{
	"task/contracts/task3/NftAuction.sol": {
		"NftAuction": {
			"abi": [
				{
					"inputs": [],
					"name": "InvalidInitialization",
					"type": "error"
				},
				{
					"inputs": [],
					"name": "NotInitializing",
					"type": "error"
				},
				{
					"anonymous": false,
					"inputs": [
						{
							"indexed": false,
							"internalType": "uint64",
							"name": "version",
							"type": "uint64"
						}
					],
					"name": "Initialized",
					"type": "event"
				},
				{
					"inputs": [],
					"name": "admin",
					"outputs": [
						{
							"internalType": "address",
							"name": "",
							"type": "address"
						}
					],
					"stateMutability": "view",
					"type": "function"
				},
				{
					"inputs": [
						{
							"internalType": "uint256",
							"name": "",
							"type": "uint256"
						}
					],
					"name": "auctions",
					"outputs": [
						{
							"internalType": "address",
							"name": "seller",
							"type": "address"
						},
						{
							"internalType": "uint256",
							"name": "startTime",
							"type": "uint256"
						},
						{
							"internalType": "uint256",
							"name": "duration",
							"type": "uint256"
						},
						{
							"internalType": "uint256",
							"name": "startPrice",
							"type": "uint256"
						},
						{
							"internalType": "bool",
							"name": "ended",
							"type": "bool"
						},
						{
							"internalType": "address",
							"name": "highestBidder",
							"type": "address"
						},
						{
							"internalType": "uint256",
							"name": "highestBid",
							"type": "uint256"
						},
						{
							"internalType": "address",
							"name": "nftContract",
							"type": "address"
						},
						{
							"internalType": "uint256",
							"name": "nftId",
							"type": "uint256"
						}
					],
					"stateMutability": "view",
					"type": "function"
				},
				{
					"inputs": [
						{
							"internalType": "uint256",
							"name": "_duration",
							"type": "uint256"
						},
						{
							"internalType": "uint256",
							"name": "_startPrice",
							"type": "uint256"
						},
						{
							"internalType": "address",
							"name": "_nftAddress",
							"type": "address"
						},
						{
							"internalType": "uint256",
							"name": "nftId",
							"type": "uint256"
						}
					],
					"name": "createAuction",
					"outputs": [],
					"stateMutability": "nonpayable",
					"type": "function"
				},
				{
					"inputs": [],
					"name": "initialize",
					"outputs": [],
					"stateMutability": "nonpayable",
					"type": "function"
				},
				{
					"inputs": [],
					"name": "nextAuctionId",
					"outputs": [
						{
							"internalType": "uint256",
							"name": "",
							"type": "uint256"
						}
					],
					"stateMutability": "view",
					"type": "function"
				},
				{
					"inputs": [
						{
							"internalType": "uint256",
							"name": "_auctionId",
							"type": "uint256"
						}
					],
					"name": "placeBid",
					"outputs": [],
					"stateMutability": "payable",
					"type": "function"
				}
			],
			"devdoc": {
				"errors": {
					"InvalidInitialization()": [
						{
							"details": "The contract is already initialized."
						}
					],
					"NotInitializing()": [
						{
							"details": "The contract is not initializing."
						}
					]
				},
				"events": {
					"Initialized(uint64)": {
						"details": "Triggered when the contract has been initialized or reinitialized."
					}
				},
				"kind": "dev",
				"methods": {},
				"version": 1
			},
			"evm": {
				"assembly": "    /* \"task/contracts/task3/NftAuction.sol\":140:2711  contract NftAuction is Initializable {... */\n  mstore(0x40, 0x80)\n  callvalue\n  dup1\n  iszero\n  tag_1\n  jumpi\n  revert(0x00, 0x00)\ntag_1:\n  pop\n  dataSize(sub_0)\n  dup1\n  dataOffset(sub_0)\n  0x00\n  codecopy\n  0x00\n  return\nstop\n\nsub_0: assembly {\n        /* \"task/contracts/task3/NftAuction.sol\":140:2711  contract NftAuction is Initializable {... */\n      mstore(0x40, 0x80)\n      jumpi(tag_1, lt(calldatasize, 0x04))\n      shr(0xe0, calldataload(0x00))\n      dup1\n      0x571a26a0\n      eq\n      tag_2\n      jumpi\n      dup1\n      0x8129fc1c\n      eq\n      tag_3\n      jumpi\n      dup1\n      0x9979ef45\n      eq\n      tag_4\n      jumpi\n      dup1\n      0xb1cb48ef\n      eq\n      tag_5\n      jumpi\n      dup1\n      0xf851a440\n      eq\n      tag_6\n      jumpi\n      dup1\n      0xfc528482\n      eq\n      tag_7\n      jumpi\n    tag_1:\n      revert(0x00, 0x00)\n        /* \"task/contracts/task3/NftAuction.sol\":710:753  mapping(uint256 => Auction) public auctions */\n    tag_2:\n      callvalue\n      dup1\n      iszero\n      tag_8\n      jumpi\n      revert(0x00, 0x00)\n    tag_8:\n      pop\n      tag_9\n      0x04\n      dup1\n      calldatasize\n      sub\n      dup2\n      add\n      swap1\n      tag_10\n      swap2\n      swap1\n      tag_11\n      jump\t// in\n    tag_10:\n      tag_12\n      jump\t// in\n    tag_9:\n      mload(0x40)\n      tag_13\n      swap10\n      swap9\n      swap8\n      swap7\n      swap6\n      swap5\n      swap4\n      swap3\n      swap2\n      swap1\n      tag_14\n      jump\t// in\n    tag_13:\n      mload(0x40)\n      dup1\n      swap2\n      sub\n      swap1\n      return\n        /* \"task/contracts/task3/NftAuction.sol\":877:955  function initialize() public initializer {... */\n    tag_3:\n      callvalue\n      dup1\n      iszero\n      tag_15\n      jumpi\n      revert(0x00, 0x00)\n    tag_15:\n      pop\n      tag_16\n      tag_17\n      jump\t// in\n    tag_16:\n      stop\n        /* \"task/contracts/task3/NftAuction.sol\":1856:2708  function placeBid(uint256 _auctionId) external payable {... */\n    tag_4:\n      tag_18\n      0x04\n      dup1\n      calldatasize\n      sub\n      dup2\n      add\n      swap1\n      tag_19\n      swap2\n      swap1\n      tag_11\n      jump\t// in\n    tag_19:\n      tag_20\n      jump\t// in\n    tag_18:\n      stop\n        /* \"task/contracts/task3/NftAuction.sol\":984:1821  function createAuction(... */\n    tag_5:\n      callvalue\n      dup1\n      iszero\n      tag_21\n      jumpi\n      revert(0x00, 0x00)\n    tag_21:\n      pop\n      tag_22\n      0x04\n      dup1\n      calldatasize\n      sub\n      dup2\n      add\n      swap1\n      tag_23\n      swap2\n      swap1\n      tag_24\n      jump\t// in\n    tag_23:\n      tag_25\n      jump\t// in\n    tag_22:\n      stop\n        /* \"task/contracts/task3/NftAuction.sol\":848:868  address public admin */\n    tag_6:\n      callvalue\n      dup1\n      iszero\n      tag_26\n      jumpi\n      revert(0x00, 0x00)\n    tag_26:\n      pop\n      tag_27\n      tag_28\n      jump\t// in\n    tag_27:\n      mload(0x40)\n      tag_29\n      swap2\n      swap1\n      tag_30\n      jump\t// in\n    tag_29:\n      mload(0x40)\n      dup1\n      swap2\n      sub\n      swap1\n      return\n        /* \"task/contracts/task3/NftAuction.sol\":789:817  uint256 public nextAuctionId */\n    tag_7:\n      callvalue\n      dup1\n      iszero\n      tag_31\n      jumpi\n      revert(0x00, 0x00)\n    tag_31:\n      pop\n      tag_32\n      tag_33\n      jump\t// in\n    tag_32:\n      mload(0x40)\n      tag_34\n      swap2\n      swap1\n      tag_35\n      jump\t// in\n    tag_34:\n      mload(0x40)\n      dup1\n      swap2\n      sub\n      swap1\n      return\n        /* \"task/contracts/task3/NftAuction.sol\":710:753  mapping(uint256 => Auction) public auctions */\n    tag_12:\n      mstore(0x20, 0x00)\n      dup1\n      0x00\n      mstore\n      keccak256(0x00, 0x40)\n      0x00\n      swap2\n      pop\n      swap1\n      pop\n      dup1\n      0x00\n      add\n      0x00\n      swap1\n      sload\n      swap1\n      0x0100\n      exp\n      swap1\n      div\n      0xffffffffffffffffffffffffffffffffffffffff\n      and\n      swap1\n      dup1\n      0x01\n      add\n      sload\n      swap1\n      dup1\n      0x02\n      add\n      sload\n      swap1\n      dup1\n      0x03\n      add\n      sload\n      swap1\n      dup1\n      0x04\n      add\n      0x00\n      swap1\n      sload\n      swap1\n      0x0100\n      exp\n      swap1\n      div\n      0xff\n      and\n      swap1\n      dup1\n      0x04\n      add\n      0x01\n      swap1\n      sload\n      swap1\n      0x0100\n      exp\n      swap1\n      div\n      0xffffffffffffffffffffffffffffffffffffffff\n      and\n      swap1\n      dup1\n      0x05\n      add\n      sload\n      swap1\n      dup1\n      0x06\n      add\n      0x00\n      swap1\n      sload\n      swap1\n      0x0100\n      exp\n      swap1\n      div\n      0xffffffffffffffffffffffffffffffffffffffff\n      and\n      swap1\n      dup1\n      0x07\n      add\n      sload\n      swap1\n      pop\n      dup10\n      jump\t// out\n        /* \"task/contracts/task3/NftAuction.sol\":877:955  function initialize() public initializer {... */\n    tag_17:\n        /* \"@openzeppelin/contracts-upgradeable/proxy/utils/Initializable.sol\":4158:4188  InitializableStorage storage $ */\n      0x00\n        /* \"@openzeppelin/contracts-upgradeable/proxy/utils/Initializable.sol\":4191:4217  _getInitializableStorage() */\n      tag_37\n        /* \"@openzeppelin/contracts-upgradeable/proxy/utils/Initializable.sol\":4191:4215  _getInitializableStorage */\n      tag_38\n        /* \"@openzeppelin/contracts-upgradeable/proxy/utils/Initializable.sol\":4191:4217  _getInitializableStorage() */\n      jump\t// in\n    tag_37:\n        /* \"@openzeppelin/contracts-upgradeable/proxy/utils/Initializable.sol\":4158:4217  InitializableStorage storage $ = _getInitializableStorage() */\n      swap1\n      pop\n        /* \"@openzeppelin/contracts-upgradeable/proxy/utils/Initializable.sol\":4279:4298  bool isTopLevelCall */\n      0x00\n        /* \"@openzeppelin/contracts-upgradeable/proxy/utils/Initializable.sol\":4302:4303  $ */\n      dup2\n        /* \"@openzeppelin/contracts-upgradeable/proxy/utils/Initializable.sol\":4302:4317  $._initializing */\n      0x00\n      add\n      0x08\n      swap1\n      sload\n      swap1\n      0x0100\n      exp\n      swap1\n      div\n      0xff\n      and\n        /* \"@openzeppelin/contracts-upgradeable/proxy/utils/Initializable.sol\":4301:4317  !$._initializing */\n      iszero\n        /* \"@openzeppelin/contracts-upgradeable/proxy/utils/Initializable.sol\":4279:4317  bool isTopLevelCall = !$._initializing */\n      swap1\n      pop\n        /* \"@openzeppelin/contracts-upgradeable/proxy/utils/Initializable.sol\":4327:4345  uint64 initialized */\n      0x00\n        /* \"@openzeppelin/contracts-upgradeable/proxy/utils/Initializable.sol\":4348:4349  $ */\n      dup3\n        /* \"@openzeppelin/contracts-upgradeable/proxy/utils/Initializable.sol\":4348:4362  $._initialized */\n      0x00\n      add\n      0x00\n      swap1\n      sload\n      swap1\n      0x0100\n      exp\n      swap1\n      div\n      0xffffffffffffffff\n      and\n        /* \"@openzeppelin/contracts-upgradeable/proxy/utils/Initializable.sol\":4327:4362  uint64 initialized = $._initialized */\n      swap1\n      pop\n        /* \"@openzeppelin/contracts-upgradeable/proxy/utils/Initializable.sol\":4704:4721  bool initialSetup */\n      0x00\n        /* \"@openzeppelin/contracts-upgradeable/proxy/utils/Initializable.sol\":4739:4740  0 */\n      0x00\n        /* \"@openzeppelin/contracts-upgradeable/proxy/utils/Initializable.sol\":4724:4735  initialized */\n      dup3\n        /* \"@openzeppelin/contracts-upgradeable/proxy/utils/Initializable.sol\":4724:4740  initialized == 0 */\n      0xffffffffffffffff\n      and\n      eq\n        /* \"@openzeppelin/contracts-upgradeable/proxy/utils/Initializable.sol\":4724:4758  initialized == 0 && isTopLevelCall */\n      dup1\n      iszero\n      tag_39\n      jumpi\n      pop\n        /* \"@openzeppelin/contracts-upgradeable/proxy/utils/Initializable.sol\":4744:4758  isTopLevelCall */\n      dup3\n        /* \"@openzeppelin/contracts-upgradeable/proxy/utils/Initializable.sol\":4724:4758  initialized == 0 && isTopLevelCall */\n    tag_39:\n        /* \"@openzeppelin/contracts-upgradeable/proxy/utils/Initializable.sol\":4704:4758  bool initialSetup = initialized == 0 && isTopLevelCall */\n      swap1\n      pop\n        /* \"@openzeppelin/contracts-upgradeable/proxy/utils/Initializable.sol\":4768:4785  bool construction */\n      0x00\n        /* \"@openzeppelin/contracts-upgradeable/proxy/utils/Initializable.sol\":4803:4804  1 */\n      0x01\n        /* \"@openzeppelin/contracts-upgradeable/proxy/utils/Initializable.sol\":4788:4799  initialized */\n      dup4\n        /* \"@openzeppelin/contracts-upgradeable/proxy/utils/Initializable.sol\":4788:4804  initialized == 1 */\n      0xffffffffffffffff\n      and\n      eq\n        /* \"@openzeppelin/contracts-upgradeable/proxy/utils/Initializable.sol\":4788:4838  initialized == 1 && address(this).code.length == 0 */\n      dup1\n      iszero\n      tag_40\n      jumpi\n      pop\n        /* \"@openzeppelin/contracts-upgradeable/proxy/utils/Initializable.sol\":4837:4838  0 */\n      0x00\n        /* \"@openzeppelin/contracts-upgradeable/proxy/utils/Initializable.sol\":4816:4820  this */\n      address\n        /* \"@openzeppelin/contracts-upgradeable/proxy/utils/Initializable.sol\":4808:4833  address(this).code.length */\n      0xffffffffffffffffffffffffffffffffffffffff\n      and\n      extcodesize\n        /* \"@openzeppelin/contracts-upgradeable/proxy/utils/Initializable.sol\":4808:4838  address(this).code.length == 0 */\n      eq\n        /* \"@openzeppelin/contracts-upgradeable/proxy/utils/Initializable.sol\":4788:4838  initialized == 1 && address(this).code.length == 0 */\n    tag_40:\n        /* \"@openzeppelin/contracts-upgradeable/proxy/utils/Initializable.sol\":4768:4838  bool construction = initialized == 1 && address(this).code.length == 0 */\n      swap1\n      pop\n        /* \"@openzeppelin/contracts-upgradeable/proxy/utils/Initializable.sol\":4854:4866  initialSetup */\n      dup2\n        /* \"@openzeppelin/contracts-upgradeable/proxy/utils/Initializable.sol\":4853:4866  !initialSetup */\n      iszero\n        /* \"@openzeppelin/contracts-upgradeable/proxy/utils/Initializable.sol\":4853:4883  !initialSetup && !construction */\n      dup1\n      iszero\n      tag_41\n      jumpi\n      pop\n        /* \"@openzeppelin/contracts-upgradeable/proxy/utils/Initializable.sol\":4871:4883  construction */\n      dup1\n        /* \"@openzeppelin/contracts-upgradeable/proxy/utils/Initializable.sol\":4870:4883  !construction */\n      iszero\n        /* \"@openzeppelin/contracts-upgradeable/proxy/utils/Initializable.sol\":4853:4883  !initialSetup && !construction */\n    tag_41:\n        /* \"@openzeppelin/contracts-upgradeable/proxy/utils/Initializable.sol\":4849:4940  if (!initialSetup && !construction) {... */\n      iszero\n      tag_42\n      jumpi\n        /* \"@openzeppelin/contracts-upgradeable/proxy/utils/Initializable.sol\":4906:4929  InvalidInitialization() */\n      mload(0x40)\n      0xf92ee8a900000000000000000000000000000000000000000000000000000000\n      dup2\n      mstore\n      0x04\n      add\n      mload(0x40)\n      dup1\n      swap2\n      sub\n      swap1\n      revert\n        /* \"@openzeppelin/contracts-upgradeable/proxy/utils/Initializable.sol\":4849:4940  if (!initialSetup && !construction) {... */\n    tag_42:\n        /* \"@openzeppelin/contracts-upgradeable/proxy/utils/Initializable.sol\":4966:4967  1 */\n      0x01\n        /* \"@openzeppelin/contracts-upgradeable/proxy/utils/Initializable.sol\":4949:4950  $ */\n      dup6\n        /* \"@openzeppelin/contracts-upgradeable/proxy/utils/Initializable.sol\":4949:4963  $._initialized */\n      0x00\n      add\n      0x00\n        /* \"@openzeppelin/contracts-upgradeable/proxy/utils/Initializable.sol\":4949:4967  $._initialized = 1 */\n      0x0100\n      exp\n      dup2\n      sload\n      dup2\n      0xffffffffffffffff\n      mul\n      not\n      and\n      swap1\n      dup4\n      0xffffffffffffffff\n      and\n      mul\n      or\n      swap1\n      sstore\n      pop\n        /* \"@openzeppelin/contracts-upgradeable/proxy/utils/Initializable.sol\":4981:4995  isTopLevelCall */\n      dup4\n        /* \"@openzeppelin/contracts-upgradeable/proxy/utils/Initializable.sol\":4977:5044  if (isTopLevelCall) {... */\n      iszero\n      tag_43\n      jumpi\n        /* \"@openzeppelin/contracts-upgradeable/proxy/utils/Initializable.sol\":5029:5033  true */\n      0x01\n        /* \"@openzeppelin/contracts-upgradeable/proxy/utils/Initializable.sol\":5011:5012  $ */\n      dup6\n        /* \"@openzeppelin/contracts-upgradeable/proxy/utils/Initializable.sol\":5011:5026  $._initializing */\n      0x00\n      add\n      0x08\n        /* \"@openzeppelin/contracts-upgradeable/proxy/utils/Initializable.sol\":5011:5033  $._initializing = true */\n      0x0100\n      exp\n      dup2\n      sload\n      dup2\n      0xff\n      mul\n      not\n      and\n      swap1\n      dup4\n      iszero\n      iszero\n      mul\n      or\n      swap1\n      sstore\n      pop\n        /* \"@openzeppelin/contracts-upgradeable/proxy/utils/Initializable.sol\":4977:5044  if (isTopLevelCall) {... */\n    tag_43:\n        /* \"task/contracts/task3/NftAuction.sol\":937:947  msg.sender */\n      caller\n        /* \"task/contracts/task3/NftAuction.sol\":929:934  admin */\n      0x02\n      0x00\n        /* \"task/contracts/task3/NftAuction.sol\":929:947  admin = msg.sender */\n      0x0100\n      exp\n      dup2\n      sload\n      dup2\n      0xffffffffffffffffffffffffffffffffffffffff\n      mul\n      not\n      and\n      swap1\n      dup4\n      0xffffffffffffffffffffffffffffffffffffffff\n      and\n      mul\n      or\n      swap1\n      sstore\n      pop\n        /* \"@openzeppelin/contracts-upgradeable/proxy/utils/Initializable.sol\":5068:5082  isTopLevelCall */\n      dup4\n        /* \"@openzeppelin/contracts-upgradeable/proxy/utils/Initializable.sol\":5064:5165  if (isTopLevelCall) {... */\n      iszero\n      tag_45\n      jumpi\n        /* \"@openzeppelin/contracts-upgradeable/proxy/utils/Initializable.sol\":5116:5121  false */\n      0x00\n        /* \"@openzeppelin/contracts-upgradeable/proxy/utils/Initializable.sol\":5098:5099  $ */\n      dup6\n        /* \"@openzeppelin/contracts-upgradeable/proxy/utils/Initializable.sol\":5098:5113  $._initializing */\n      0x00\n      add\n      0x08\n        /* \"@openzeppelin/contracts-upgradeable/proxy/utils/Initializable.sol\":5098:5121  $._initializing = false */\n      0x0100\n      exp\n      dup2\n      sload\n      dup2\n      0xff\n      mul\n      not\n      and\n      swap1\n      dup4\n      iszero\n      iszero\n      mul\n      or\n      swap1\n      sstore\n      pop\n        /* \"@openzeppelin/contracts-upgradeable/proxy/utils/Initializable.sol\":5140:5154  Initialized(1) */\n      0xc7f505b2f371ae2175ee4913f4499e1f2633a7b5936321eed1cdaeb6115181d2\n        /* \"@openzeppelin/contracts-upgradeable/proxy/utils/Initializable.sol\":5152:5153  1 */\n      0x01\n        /* \"@openzeppelin/contracts-upgradeable/proxy/utils/Initializable.sol\":5140:5154  Initialized(1) */\n      mload(0x40)\n      tag_46\n      swap2\n      swap1\n      tag_47\n      jump\t// in\n    tag_46:\n      mload(0x40)\n      dup1\n      swap2\n      sub\n      swap1\n      log1\n        /* \"@openzeppelin/contracts-upgradeable/proxy/utils/Initializable.sol\":5064:5165  if (isTopLevelCall) {... */\n    tag_45:\n        /* \"@openzeppelin/contracts-upgradeable/proxy/utils/Initializable.sol\":4092:5171  {... */\n      pop\n      pop\n      pop\n      pop\n      pop\n        /* \"task/contracts/task3/NftAuction.sol\":877:955  function initialize() public initializer {... */\n      jump\t// out\n        /* \"task/contracts/task3/NftAuction.sol\":1856:2708  function placeBid(uint256 _auctionId) external payable {... */\n    tag_20:\n        /* \"task/contracts/task3/NftAuction.sol\":1922:1945  Auction storage auction */\n      0x00\n        /* \"task/contracts/task3/NftAuction.sol\":1948:1956  auctions */\n      0x00\n        /* \"task/contracts/task3/NftAuction.sol\":1948:1968  auctions[_auctionId] */\n      0x00\n        /* \"task/contracts/task3/NftAuction.sol\":1957:1967  _auctionId */\n      dup4\n        /* \"task/contracts/task3/NftAuction.sol\":1948:1968  auctions[_auctionId] */\n      dup2\n      mstore\n      0x20\n      add\n      swap1\n      dup2\n      mstore\n      0x20\n      add\n      0x00\n      keccak256\n        /* \"task/contracts/task3/NftAuction.sol\":1922:1968  Auction storage auction = auctions[_auctionId] */\n      swap1\n      pop\n        /* \"task/contracts/task3/NftAuction.sol\":2077:2092  block.timestamp */\n      timestamp\n        /* \"task/contracts/task3/NftAuction.sol\":2058:2065  auction */\n      dup2\n        /* \"task/contracts/task3/NftAuction.sol\":2058:2074  auction.duration */\n      0x02\n      add\n      sload\n        /* \"task/contracts/task3/NftAuction.sol\":2038:2045  auction */\n      dup3\n        /* \"task/contracts/task3/NftAuction.sol\":2038:2055  auction.startTime */\n      0x01\n      add\n      sload\n        /* \"task/contracts/task3/NftAuction.sol\":2038:2074  auction.startTime + auction.duration */\n      tag_49\n      swap2\n      swap1\n      tag_50\n      jump\t// in\n    tag_49:\n        /* \"task/contracts/task3/NftAuction.sol\":2038:2092  auction.startTime + auction.duration > block.timestamp */\n      gt\n        /* \"task/contracts/task3/NftAuction.sol\":2016:2136  require(... */\n      tag_51\n      jumpi\n      mload(0x40)\n      0x08c379a000000000000000000000000000000000000000000000000000000000\n      dup2\n      mstore\n      0x04\n      add\n      tag_52\n      swap1\n      tag_53\n      jump\t// in\n    tag_52:\n      mload(0x40)\n      dup1\n      swap2\n      sub\n      swap1\n      revert\n    tag_51:\n        /* \"task/contracts/task3/NftAuction.sol\":2213:2220  auction */\n      dup1\n        /* \"task/contracts/task3/NftAuction.sol\":2213:2231  auction.startPrice */\n      0x03\n      add\n      sload\n        /* \"task/contracts/task3/NftAuction.sol\":2201:2210  msg.value */\n      callvalue\n        /* \"task/contracts/task3/NftAuction.sol\":2201:2231  msg.value > auction.startPrice */\n      gt\n        /* \"task/contracts/task3/NftAuction.sol\":2193:2262  require(msg.value > auction.startPrice, \"price must be > startPrice\") */\n      tag_54\n      jumpi\n      mload(0x40)\n      0x08c379a000000000000000000000000000000000000000000000000000000000\n      dup2\n      mstore\n      0x04\n      add\n      tag_55\n      swap1\n      tag_56\n      jump\t// in\n    tag_55:\n      mload(0x40)\n      dup1\n      swap2\n      sub\n      swap1\n      revert\n    tag_54:\n        /* \"task/contracts/task3/NftAuction.sol\":2339:2346  auction */\n      dup1\n        /* \"task/contracts/task3/NftAuction.sol\":2339:2357  auction.highestBid */\n      0x05\n      add\n      sload\n        /* \"task/contracts/task3/NftAuction.sol\":2327:2336  msg.value */\n      callvalue\n        /* \"task/contracts/task3/NftAuction.sol\":2327:2357  msg.value > auction.highestBid */\n      gt\n        /* \"task/contracts/task3/NftAuction.sol\":2319:2388  require(msg.value > auction.highestBid, \"price must be > highestBid\") */\n      tag_57\n      jumpi\n      mload(0x40)\n      0x08c379a000000000000000000000000000000000000000000000000000000000\n      dup2\n      mstore\n      0x04\n      add\n      tag_58\n      swap1\n      tag_59\n      jump\t// in\n    tag_58:\n      mload(0x40)\n      dup1\n      swap2\n      sub\n      swap1\n      revert\n    tag_57:\n        /* \"task/contracts/task3/NftAuction.sol\":2491:2492  0 */\n      0x00\n        /* \"task/contracts/task3/NftAuction.sol\":2458:2493  auction.highestBidder != address(0) */\n      0xffffffffffffffffffffffffffffffffffffffff\n      and\n        /* \"task/contracts/task3/NftAuction.sol\":2458:2465  auction */\n      dup2\n        /* \"task/contracts/task3/NftAuction.sol\":2458:2479  auction.highestBidder */\n      0x04\n      add\n      0x01\n      swap1\n      sload\n      swap1\n      0x0100\n      exp\n      swap1\n      div\n      0xffffffffffffffffffffffffffffffffffffffff\n      and\n        /* \"task/contracts/task3/NftAuction.sol\":2458:2493  auction.highestBidder != address(0) */\n      0xffffffffffffffffffffffffffffffffffffffff\n      and\n      eq\n        /* \"task/contracts/task3/NftAuction.sol\":2454:2581  if (auction.highestBidder != address(0)) {... */\n      tag_60\n      jumpi\n        /* \"task/contracts/task3/NftAuction.sol\":2518:2525  auction */\n      dup1\n        /* \"task/contracts/task3/NftAuction.sol\":2518:2539  auction.highestBidder */\n      0x04\n      add\n      0x01\n      swap1\n      sload\n      swap1\n      0x0100\n      exp\n      swap1\n      div\n      0xffffffffffffffffffffffffffffffffffffffff\n      and\n        /* \"task/contracts/task3/NftAuction.sol\":2510:2549  payable(auction.highestBidder).transfer */\n      0xffffffffffffffffffffffffffffffffffffffff\n      and\n        /* \"task/contracts/task3/NftAuction.sol\":2510:2569  payable(auction.highestBidder).transfer(auction.highestBid) */\n      0x08fc\n        /* \"task/contracts/task3/NftAuction.sol\":2550:2557  auction */\n      dup3\n        /* \"task/contracts/task3/NftAuction.sol\":2550:2568  auction.highestBid */\n      0x05\n      add\n      sload\n        /* \"task/contracts/task3/NftAuction.sol\":2510:2569  payable(auction.highestBidder).transfer(auction.highestBid) */\n      swap1\n      dup2\n      iszero\n      mul\n      swap1\n      mload(0x40)\n      0x00\n      mload(0x40)\n      dup1\n      dup4\n      sub\n      dup2\n      dup6\n      dup9\n      dup9\n      call\n      swap4\n      pop\n      pop\n      pop\n      pop\n      iszero\n      dup1\n      iszero\n      tag_62\n      jumpi\n      returndatacopy(0x00, 0x00, returndatasize)\n      revert(0x00, returndatasize)\n    tag_62:\n      pop\n        /* \"task/contracts/task3/NftAuction.sol\":2454:2581  if (auction.highestBidder != address(0)) {... */\n    tag_60:\n        /* \"task/contracts/task3/NftAuction.sol\":2649:2659  msg.sender */\n      caller\n        /* \"task/contracts/task3/NftAuction.sol\":2625:2632  auction */\n      dup2\n        /* \"task/contracts/task3/NftAuction.sol\":2625:2646  auction.highestBidder */\n      0x04\n      add\n      0x01\n        /* \"task/contracts/task3/NftAuction.sol\":2625:2659  auction.highestBidder = msg.sender */\n      0x0100\n      exp\n      dup2\n      sload\n      dup2\n      0xffffffffffffffffffffffffffffffffffffffff\n      mul\n      not\n      and\n      swap1\n      dup4\n      0xffffffffffffffffffffffffffffffffffffffff\n      and\n      mul\n      or\n      swap1\n      sstore\n      pop\n        /* \"task/contracts/task3/NftAuction.sol\":2691:2700  msg.value */\n      callvalue\n        /* \"task/contracts/task3/NftAuction.sol\":2670:2677  auction */\n      dup2\n        /* \"task/contracts/task3/NftAuction.sol\":2670:2688  auction.highestBid */\n      0x05\n      add\n        /* \"task/contracts/task3/NftAuction.sol\":2670:2700  auction.highestBid = msg.value */\n      dup2\n      swap1\n      sstore\n      pop\n        /* \"task/contracts/task3/NftAuction.sol\":1911:2708  {... */\n      pop\n        /* \"task/contracts/task3/NftAuction.sol\":1856:2708  function placeBid(uint256 _auctionId) external payable {... */\n      pop\n      jump\t// out\n        /* \"task/contracts/task3/NftAuction.sol\":984:1821  function createAuction(... */\n    tag_25:\n        /* \"task/contracts/task3/NftAuction.sol\":1206:1211  admin */\n      0x02\n      0x00\n      swap1\n      sload\n      swap1\n      0x0100\n      exp\n      swap1\n      div\n      0xffffffffffffffffffffffffffffffffffffffff\n      and\n        /* \"task/contracts/task3/NftAuction.sol\":1192:1211  msg.sender == admin */\n      0xffffffffffffffffffffffffffffffffffffffff\n      and\n        /* \"task/contracts/task3/NftAuction.sol\":1192:1202  msg.sender */\n      caller\n        /* \"task/contracts/task3/NftAuction.sol\":1192:1211  msg.sender == admin */\n      0xffffffffffffffffffffffffffffffffffffffff\n      and\n      eq\n        /* \"task/contracts/task3/NftAuction.sol\":1184:1246  require(msg.sender == admin, \"only admin can create auctions\") */\n      tag_64\n      jumpi\n      mload(0x40)\n      0x08c379a000000000000000000000000000000000000000000000000000000000\n      dup2\n      mstore\n      0x04\n      add\n      tag_65\n      swap1\n      tag_66\n      jump\t// in\n    tag_65:\n      mload(0x40)\n      dup1\n      swap2\n      sub\n      swap1\n      revert\n    tag_64:\n        /* \"task/contracts/task3/NftAuction.sol\":1302:1311  60 * 1000 */\n      0xea60\n        /* \"task/contracts/task3/NftAuction.sol\":1290:1299  _duration */\n      dup5\n        /* \"task/contracts/task3/NftAuction.sol\":1290:1311  _duration > 60 * 1000 */\n      gt\n        /* \"task/contracts/task3/NftAuction.sol\":1282:1337  require(_duration > 60 * 1000, \"duration must be > 60\") */\n      tag_67\n      jumpi\n      mload(0x40)\n      0x08c379a000000000000000000000000000000000000000000000000000000000\n      dup2\n      mstore\n      0x04\n      add\n      tag_68\n      swap1\n      tag_69\n      jump\t// in\n    tag_68:\n      mload(0x40)\n      dup1\n      swap2\n      sub\n      swap1\n      revert\n    tag_67:\n        /* \"task/contracts/task3/NftAuction.sol\":1370:1371  0 */\n      0x00\n        /* \"task/contracts/task3/NftAuction.sol\":1356:1367  _startPrice */\n      dup4\n        /* \"task/contracts/task3/NftAuction.sol\":1356:1371  _startPrice > 0 */\n      gt\n        /* \"task/contracts/task3/NftAuction.sol\":1348:1398  require(_startPrice > 0, \"startPrice must be > 0\") */\n      tag_70\n      jumpi\n      mload(0x40)\n      0x08c379a000000000000000000000000000000000000000000000000000000000\n      dup2\n      mstore\n      0x04\n      add\n      tag_71\n      swap1\n      tag_72\n      jump\t// in\n    tag_71:\n      mload(0x40)\n      dup1\n      swap2\n      sub\n      swap1\n      revert\n    tag_70:\n        /* \"task/contracts/task3/NftAuction.sol\":1460:1787  Auction({... */\n      mload(0x40)\n      dup1\n      0x0120\n      add\n      0x40\n      mstore\n      dup1\n        /* \"task/contracts/task3/NftAuction.sol\":1491:1501  msg.sender */\n      caller\n        /* \"task/contracts/task3/NftAuction.sol\":1460:1787  Auction({... */\n      0xffffffffffffffffffffffffffffffffffffffff\n      and\n      dup2\n      mstore\n      0x20\n      add\n        /* \"task/contracts/task3/NftAuction.sol\":1527:1542  block.timestamp */\n      timestamp\n        /* \"task/contracts/task3/NftAuction.sol\":1460:1787  Auction({... */\n      dup2\n      mstore\n      0x20\n      add\n        /* \"task/contracts/task3/NftAuction.sol\":1567:1576  _duration */\n      dup6\n        /* \"task/contracts/task3/NftAuction.sol\":1460:1787  Auction({... */\n      dup2\n      mstore\n      0x20\n      add\n        /* \"task/contracts/task3/NftAuction.sol\":1603:1614  _startPrice */\n      dup5\n        /* \"task/contracts/task3/NftAuction.sol\":1460:1787  Auction({... */\n      dup2\n      mstore\n      0x20\n      add\n        /* \"task/contracts/task3/NftAuction.sol\":1636:1641  false */\n      0x00\n        /* \"task/contracts/task3/NftAuction.sol\":1460:1787  Auction({... */\n      iszero\n      iszero\n      dup2\n      mstore\n      0x20\n      add\n        /* \"task/contracts/task3/NftAuction.sol\":1679:1680  0 */\n      0x00\n        /* \"task/contracts/task3/NftAuction.sol\":1460:1787  Auction({... */\n      0xffffffffffffffffffffffffffffffffffffffff\n      and\n      dup2\n      mstore\n      0x20\n      add\n        /* \"task/contracts/task3/NftAuction.sol\":1708:1709  0 */\n      0x00\n        /* \"task/contracts/task3/NftAuction.sol\":1460:1787  Auction({... */\n      dup2\n      mstore\n      0x20\n      add\n        /* \"task/contracts/task3/NftAuction.sol\":1737:1748  _nftAddress */\n      dup4\n        /* \"task/contracts/task3/NftAuction.sol\":1460:1787  Auction({... */\n      0xffffffffffffffffffffffffffffffffffffffff\n      and\n      dup2\n      mstore\n      0x20\n      add\n        /* \"task/contracts/task3/NftAuction.sol\":1770:1775  nftId */\n      dup3\n        /* \"task/contracts/task3/NftAuction.sol\":1460:1787  Auction({... */\n      dup2\n      mstore\n      pop\n        /* \"task/contracts/task3/NftAuction.sol\":1434:1442  auctions */\n      0x00\n        /* \"task/contracts/task3/NftAuction.sol\":1434:1457  auctions[nextAuctionId] */\n      0x00\n        /* \"task/contracts/task3/NftAuction.sol\":1443:1456  nextAuctionId */\n      sload(0x01)\n        /* \"task/contracts/task3/NftAuction.sol\":1434:1457  auctions[nextAuctionId] */\n      dup2\n      mstore\n      0x20\n      add\n      swap1\n      dup2\n      mstore\n      0x20\n      add\n      0x00\n      keccak256\n        /* \"task/contracts/task3/NftAuction.sol\":1434:1787  auctions[nextAuctionId] = Auction({... */\n      0x00\n      dup3\n      add\n      mload\n      dup2\n      0x00\n      add\n      exp(0x0100, 0x00)\n      dup2\n      sload\n      dup2\n      0xffffffffffffffffffffffffffffffffffffffff\n      mul\n      not\n      and\n      swap1\n      dup4\n      0xffffffffffffffffffffffffffffffffffffffff\n      and\n      mul\n      or\n      swap1\n      sstore\n      pop\n      0x20\n      dup3\n      add\n      mload\n      dup2\n      0x01\n      add\n      sstore\n      0x40\n      dup3\n      add\n      mload\n      dup2\n      0x02\n      add\n      sstore\n      0x60\n      dup3\n      add\n      mload\n      dup2\n      0x03\n      add\n      sstore\n      0x80\n      dup3\n      add\n      mload\n      dup2\n      0x04\n      add\n      exp(0x0100, 0x00)\n      dup2\n      sload\n      dup2\n      0xff\n      mul\n      not\n      and\n      swap1\n      dup4\n      iszero\n      iszero\n      mul\n      or\n      swap1\n      sstore\n      pop\n      0xa0\n      dup3\n      add\n      mload\n      dup2\n      0x04\n      add\n      exp(0x0100, 0x01)\n      dup2\n      sload\n      dup2\n      0xffffffffffffffffffffffffffffffffffffffff\n      mul\n      not\n      and\n      swap1\n      dup4\n      0xffffffffffffffffffffffffffffffffffffffff\n      and\n      mul\n      or\n      swap1\n      sstore\n      pop\n      0xc0\n      dup3\n      add\n      mload\n      dup2\n      0x05\n      add\n      sstore\n      0xe0\n      dup3\n      add\n      mload\n      dup2\n      0x06\n      add\n      exp(0x0100, 0x00)\n      dup2\n      sload\n      dup2\n      0xffffffffffffffffffffffffffffffffffffffff\n      mul\n      not\n      and\n      swap1\n      dup4\n      0xffffffffffffffffffffffffffffffffffffffff\n      and\n      mul\n      or\n      swap1\n      sstore\n      pop\n      0x0100\n      dup3\n      add\n      mload\n      dup2\n      0x07\n      add\n      sstore\n      swap1\n      pop\n      pop\n        /* \"task/contracts/task3/NftAuction.sol\":1798:1811  nextAuctionId */\n      0x01\n      0x00\n        /* \"task/contracts/task3/NftAuction.sol\":1798:1813  nextAuctionId++ */\n      dup2\n      sload\n      dup1\n      swap3\n      swap2\n      swap1\n      tag_73\n      swap1\n      tag_74\n      jump\t// in\n    tag_73:\n      swap2\n      swap1\n      pop\n      sstore\n      pop\n        /* \"task/contracts/task3/NftAuction.sol\":984:1821  function createAuction(... */\n      pop\n      pop\n      pop\n      pop\n      jump\t// out\n        /* \"task/contracts/task3/NftAuction.sol\":848:868  address public admin */\n    tag_28:\n      0x02\n      0x00\n      swap1\n      sload\n      swap1\n      0x0100\n      exp\n      swap1\n      div\n      0xffffffffffffffffffffffffffffffffffffffff\n      and\n      dup2\n      jump\t// out\n        /* \"task/contracts/task3/NftAuction.sol\":789:817  uint256 public nextAuctionId */\n    tag_33:\n      sload(0x01)\n      dup2\n      jump\t// out\n        /* \"@openzeppelin/contracts-upgradeable/proxy/utils/Initializable.sol\":9071:9276  function _getInitializableStorage() private pure returns (InitializableStorage storage $) {... */\n    tag_38:\n        /* \"@openzeppelin/contracts-upgradeable/proxy/utils/Initializable.sol\":9129:9159  InitializableStorage storage $ */\n      0x00\n        /* \"@openzeppelin/contracts-upgradeable/proxy/utils/Initializable.sol\":9171:9183  bytes32 slot */\n      0x00\n        /* \"@openzeppelin/contracts-upgradeable/proxy/utils/Initializable.sol\":9186:9213  _initializableStorageSlot() */\n      tag_76\n        /* \"@openzeppelin/contracts-upgradeable/proxy/utils/Initializable.sol\":9186:9211  _initializableStorageSlot */\n      tag_77\n        /* \"@openzeppelin/contracts-upgradeable/proxy/utils/Initializable.sol\":9186:9213  _initializableStorageSlot() */\n      jump\t// in\n    tag_76:\n        /* \"@openzeppelin/contracts-upgradeable/proxy/utils/Initializable.sol\":9171:9213  bytes32 slot = _initializableStorageSlot() */\n      swap1\n      pop\n        /* \"@openzeppelin/contracts-upgradeable/proxy/utils/Initializable.sol\":9256:9260  slot */\n      dup1\n        /* \"@openzeppelin/contracts-upgradeable/proxy/utils/Initializable.sol\":9246:9260  $.slot := slot */\n      swap2\n      pop\n        /* \"@openzeppelin/contracts-upgradeable/proxy/utils/Initializable.sol\":9232:9270  {... */\n      pop\n        /* \"@openzeppelin/contracts-upgradeable/proxy/utils/Initializable.sol\":9071:9276  function _getInitializableStorage() private pure returns (InitializableStorage storage $) {... */\n      swap1\n      jump\t// out\n        /* \"@openzeppelin/contracts-upgradeable/proxy/utils/Initializable.sol\":8819:8941  function _initializableStorageSlot() internal pure virtual returns (bytes32) {... */\n    tag_77:\n        /* \"@openzeppelin/contracts-upgradeable/proxy/utils/Initializable.sol\":8887:8894  bytes32 */\n      0x00\n        /* \"@openzeppelin/contracts-upgradeable/proxy/utils/Initializable.sol\":3147:3213  0xf0c57e16840df040f15088dc2f81fe391c3923bec73e23a9662efc9c229c6a00 */\n      0xf0c57e16840df040f15088dc2f81fe391c3923bec73e23a9662efc9c229c6a00\n        /* \"@openzeppelin/contracts-upgradeable/proxy/utils/Initializable.sol\":8913:8934  INITIALIZABLE_STORAGE */\n      0x00\n      shl\n        /* \"@openzeppelin/contracts-upgradeable/proxy/utils/Initializable.sol\":8906:8934  return INITIALIZABLE_STORAGE */\n      swap1\n      pop\n        /* \"@openzeppelin/contracts-upgradeable/proxy/utils/Initializable.sol\":8819:8941  function _initializableStorageSlot() internal pure virtual returns (bytes32) {... */\n      swap1\n      jump\t// out\n        /* \"#utility.yul\":88:205   */\n    tag_80:\n        /* \"#utility.yul\":197:198   */\n      0x00\n        /* \"#utility.yul\":194:195   */\n      0x00\n        /* \"#utility.yul\":187:199   */\n      revert\n        /* \"#utility.yul\":334:411   */\n    tag_82:\n        /* \"#utility.yul\":371:378   */\n      0x00\n        /* \"#utility.yul\":400:405   */\n      dup2\n        /* \"#utility.yul\":389:405   */\n      swap1\n      pop\n        /* \"#utility.yul\":334:411   */\n      swap2\n      swap1\n      pop\n      jump\t// out\n        /* \"#utility.yul\":417:539   */\n    tag_83:\n        /* \"#utility.yul\":490:514   */\n      tag_118\n        /* \"#utility.yul\":508:513   */\n      dup2\n        /* \"#utility.yul\":490:514   */\n      tag_82\n      jump\t// in\n    tag_118:\n        /* \"#utility.yul\":483:488   */\n      dup2\n        /* \"#utility.yul\":480:515   */\n      eq\n        /* \"#utility.yul\":470:533   */\n      tag_119\n      jumpi\n        /* \"#utility.yul\":529:530   */\n      0x00\n        /* \"#utility.yul\":526:527   */\n      0x00\n        /* \"#utility.yul\":519:531   */\n      revert\n        /* \"#utility.yul\":470:533   */\n    tag_119:\n        /* \"#utility.yul\":417:539   */\n      pop\n      jump\t// out\n        /* \"#utility.yul\":545:684   */\n    tag_84:\n        /* \"#utility.yul\":591:596   */\n      0x00\n        /* \"#utility.yul\":629:635   */\n      dup2\n        /* \"#utility.yul\":616:636   */\n      calldataload\n        /* \"#utility.yul\":607:636   */\n      swap1\n      pop\n        /* \"#utility.yul\":645:678   */\n      tag_121\n        /* \"#utility.yul\":672:677   */\n      dup2\n        /* \"#utility.yul\":645:678   */\n      tag_83\n      jump\t// in\n    tag_121:\n        /* \"#utility.yul\":545:684   */\n      swap3\n      swap2\n      pop\n      pop\n      jump\t// out\n        /* \"#utility.yul\":690:1019   */\n    tag_11:\n        /* \"#utility.yul\":749:755   */\n      0x00\n        /* \"#utility.yul\":798:800   */\n      0x20\n        /* \"#utility.yul\":786:795   */\n      dup3\n        /* \"#utility.yul\":777:784   */\n      dup5\n        /* \"#utility.yul\":773:796   */\n      sub\n        /* \"#utility.yul\":769:801   */\n      slt\n        /* \"#utility.yul\":766:885   */\n      iszero\n      tag_123\n      jumpi\n        /* \"#utility.yul\":804:883   */\n      tag_124\n      tag_80\n      jump\t// in\n    tag_124:\n        /* \"#utility.yul\":766:885   */\n    tag_123:\n        /* \"#utility.yul\":924:925   */\n      0x00\n        /* \"#utility.yul\":949:1002   */\n      tag_125\n        /* \"#utility.yul\":994:1001   */\n      dup5\n        /* \"#utility.yul\":985:991   */\n      dup3\n        /* \"#utility.yul\":974:983   */\n      dup6\n        /* \"#utility.yul\":970:992   */\n      add\n        /* \"#utility.yul\":949:1002   */\n      tag_84\n      jump\t// in\n    tag_125:\n        /* \"#utility.yul\":939:1002   */\n      swap2\n      pop\n        /* \"#utility.yul\":895:1012   */\n      pop\n        /* \"#utility.yul\":690:1019   */\n      swap3\n      swap2\n      pop\n      pop\n      jump\t// out\n        /* \"#utility.yul\":1025:1151   */\n    tag_85:\n        /* \"#utility.yul\":1062:1069   */\n      0x00\n        /* \"#utility.yul\":1102:1144   */\n      0xffffffffffffffffffffffffffffffffffffffff\n        /* \"#utility.yul\":1095:1100   */\n      dup3\n        /* \"#utility.yul\":1091:1145   */\n      and\n        /* \"#utility.yul\":1080:1145   */\n      swap1\n      pop\n        /* \"#utility.yul\":1025:1151   */\n      swap2\n      swap1\n      pop\n      jump\t// out\n        /* \"#utility.yul\":1157:1253   */\n    tag_86:\n        /* \"#utility.yul\":1194:1201   */\n      0x00\n        /* \"#utility.yul\":1223:1247   */\n      tag_128\n        /* \"#utility.yul\":1241:1246   */\n      dup3\n        /* \"#utility.yul\":1223:1247   */\n      tag_85\n      jump\t// in\n    tag_128:\n        /* \"#utility.yul\":1212:1247   */\n      swap1\n      pop\n        /* \"#utility.yul\":1157:1253   */\n      swap2\n      swap1\n      pop\n      jump\t// out\n        /* \"#utility.yul\":1259:1377   */\n    tag_87:\n        /* \"#utility.yul\":1346:1370   */\n      tag_130\n        /* \"#utility.yul\":1364:1369   */\n      dup2\n        /* \"#utility.yul\":1346:1370   */\n      tag_86\n      jump\t// in\n    tag_130:\n        /* \"#utility.yul\":1341:1344   */\n      dup3\n        /* \"#utility.yul\":1334:1371   */\n      mstore\n        /* \"#utility.yul\":1259:1377   */\n      pop\n      pop\n      jump\t// out\n        /* \"#utility.yul\":1383:1501   */\n    tag_88:\n        /* \"#utility.yul\":1470:1494   */\n      tag_132\n        /* \"#utility.yul\":1488:1493   */\n      dup2\n        /* \"#utility.yul\":1470:1494   */\n      tag_82\n      jump\t// in\n    tag_132:\n        /* \"#utility.yul\":1465:1468   */\n      dup3\n        /* \"#utility.yul\":1458:1495   */\n      mstore\n        /* \"#utility.yul\":1383:1501   */\n      pop\n      pop\n      jump\t// out\n        /* \"#utility.yul\":1507:1597   */\n    tag_89:\n        /* \"#utility.yul\":1541:1548   */\n      0x00\n        /* \"#utility.yul\":1584:1589   */\n      dup2\n        /* \"#utility.yul\":1577:1590   */\n      iszero\n        /* \"#utility.yul\":1570:1591   */\n      iszero\n        /* \"#utility.yul\":1559:1591   */\n      swap1\n      pop\n        /* \"#utility.yul\":1507:1597   */\n      swap2\n      swap1\n      pop\n      jump\t// out\n        /* \"#utility.yul\":1603:1712   */\n    tag_90:\n        /* \"#utility.yul\":1684:1705   */\n      tag_135\n        /* \"#utility.yul\":1699:1704   */\n      dup2\n        /* \"#utility.yul\":1684:1705   */\n      tag_89\n      jump\t// in\n    tag_135:\n        /* \"#utility.yul\":1679:1682   */\n      dup3\n        /* \"#utility.yul\":1672:1706   */\n      mstore\n        /* \"#utility.yul\":1603:1712   */\n      pop\n      pop\n      jump\t// out\n        /* \"#utility.yul\":1718:2814   */\n    tag_14:\n        /* \"#utility.yul\":2029:2033   */\n      0x00\n        /* \"#utility.yul\":2067:2070   */\n      0x0120\n        /* \"#utility.yul\":2056:2065   */\n      dup3\n        /* \"#utility.yul\":2052:2071   */\n      add\n        /* \"#utility.yul\":2044:2071   */\n      swap1\n      pop\n        /* \"#utility.yul\":2081:2152   */\n      tag_137\n        /* \"#utility.yul\":2149:2150   */\n      0x00\n        /* \"#utility.yul\":2138:2147   */\n      dup4\n        /* \"#utility.yul\":2134:2151   */\n      add\n        /* \"#utility.yul\":2125:2131   */\n      dup13\n        /* \"#utility.yul\":2081:2152   */\n      tag_87\n      jump\t// in\n    tag_137:\n        /* \"#utility.yul\":2162:2234   */\n      tag_138\n        /* \"#utility.yul\":2230:2232   */\n      0x20\n        /* \"#utility.yul\":2219:2228   */\n      dup4\n        /* \"#utility.yul\":2215:2233   */\n      add\n        /* \"#utility.yul\":2206:2212   */\n      dup12\n        /* \"#utility.yul\":2162:2234   */\n      tag_88\n      jump\t// in\n    tag_138:\n        /* \"#utility.yul\":2244:2316   */\n      tag_139\n        /* \"#utility.yul\":2312:2314   */\n      0x40\n        /* \"#utility.yul\":2301:2310   */\n      dup4\n        /* \"#utility.yul\":2297:2315   */\n      add\n        /* \"#utility.yul\":2288:2294   */\n      dup11\n        /* \"#utility.yul\":2244:2316   */\n      tag_88\n      jump\t// in\n    tag_139:\n        /* \"#utility.yul\":2326:2398   */\n      tag_140\n        /* \"#utility.yul\":2394:2396   */\n      0x60\n        /* \"#utility.yul\":2383:2392   */\n      dup4\n        /* \"#utility.yul\":2379:2397   */\n      add\n        /* \"#utility.yul\":2370:2376   */\n      dup10\n        /* \"#utility.yul\":2326:2398   */\n      tag_88\n      jump\t// in\n    tag_140:\n        /* \"#utility.yul\":2408:2475   */\n      tag_141\n        /* \"#utility.yul\":2470:2473   */\n      0x80\n        /* \"#utility.yul\":2459:2468   */\n      dup4\n        /* \"#utility.yul\":2455:2474   */\n      add\n        /* \"#utility.yul\":2446:2452   */\n      dup9\n        /* \"#utility.yul\":2408:2475   */\n      tag_90\n      jump\t// in\n    tag_141:\n        /* \"#utility.yul\":2485:2558   */\n      tag_142\n        /* \"#utility.yul\":2553:2556   */\n      0xa0\n        /* \"#utility.yul\":2542:2551   */\n      dup4\n        /* \"#utility.yul\":2538:2557   */\n      add\n        /* \"#utility.yul\":2529:2535   */\n      dup8\n        /* \"#utility.yul\":2485:2558   */\n      tag_87\n      jump\t// in\n    tag_142:\n        /* \"#utility.yul\":2568:2641   */\n      tag_143\n        /* \"#utility.yul\":2636:2639   */\n      0xc0\n        /* \"#utility.yul\":2625:2634   */\n      dup4\n        /* \"#utility.yul\":2621:2640   */\n      add\n        /* \"#utility.yul\":2612:2618   */\n      dup7\n        /* \"#utility.yul\":2568:2641   */\n      tag_88\n      jump\t// in\n    tag_143:\n        /* \"#utility.yul\":2651:2724   */\n      tag_144\n        /* \"#utility.yul\":2719:2722   */\n      0xe0\n        /* \"#utility.yul\":2708:2717   */\n      dup4\n        /* \"#utility.yul\":2704:2723   */\n      add\n        /* \"#utility.yul\":2695:2701   */\n      dup6\n        /* \"#utility.yul\":2651:2724   */\n      tag_87\n      jump\t// in\n    tag_144:\n        /* \"#utility.yul\":2734:2807   */\n      tag_145\n        /* \"#utility.yul\":2802:2805   */\n      0x0100\n        /* \"#utility.yul\":2791:2800   */\n      dup4\n        /* \"#utility.yul\":2787:2806   */\n      add\n        /* \"#utility.yul\":2778:2784   */\n      dup5\n        /* \"#utility.yul\":2734:2807   */\n      tag_88\n      jump\t// in\n    tag_145:\n        /* \"#utility.yul\":1718:2814   */\n      swap11\n      swap10\n      pop\n      pop\n      pop\n      pop\n      pop\n      pop\n      pop\n      pop\n      pop\n      pop\n      jump\t// out\n        /* \"#utility.yul\":2820:2942   */\n    tag_91:\n        /* \"#utility.yul\":2893:2917   */\n      tag_147\n        /* \"#utility.yul\":2911:2916   */\n      dup2\n        /* \"#utility.yul\":2893:2917   */\n      tag_86\n      jump\t// in\n    tag_147:\n        /* \"#utility.yul\":2886:2891   */\n      dup2\n        /* \"#utility.yul\":2883:2918   */\n      eq\n        /* \"#utility.yul\":2873:2936   */\n      tag_148\n      jumpi\n        /* \"#utility.yul\":2932:2933   */\n      0x00\n        /* \"#utility.yul\":2929:2930   */\n      0x00\n        /* \"#utility.yul\":2922:2934   */\n      revert\n        /* \"#utility.yul\":2873:2936   */\n    tag_148:\n        /* \"#utility.yul\":2820:2942   */\n      pop\n      jump\t// out\n        /* \"#utility.yul\":2948:3087   */\n    tag_92:\n        /* \"#utility.yul\":2994:2999   */\n      0x00\n        /* \"#utility.yul\":3032:3038   */\n      dup2\n        /* \"#utility.yul\":3019:3039   */\n      calldataload\n        /* \"#utility.yul\":3010:3039   */\n      swap1\n      pop\n        /* \"#utility.yul\":3048:3081   */\n      tag_150\n        /* \"#utility.yul\":3075:3080   */\n      dup2\n        /* \"#utility.yul\":3048:3081   */\n      tag_91\n      jump\t// in\n    tag_150:\n        /* \"#utility.yul\":2948:3087   */\n      swap3\n      swap2\n      pop\n      pop\n      jump\t// out\n        /* \"#utility.yul\":3093:3858   */\n    tag_24:\n        /* \"#utility.yul\":3179:3185   */\n      0x00\n        /* \"#utility.yul\":3187:3193   */\n      0x00\n        /* \"#utility.yul\":3195:3201   */\n      0x00\n        /* \"#utility.yul\":3203:3209   */\n      0x00\n        /* \"#utility.yul\":3252:3255   */\n      0x80\n        /* \"#utility.yul\":3240:3249   */\n      dup6\n        /* \"#utility.yul\":3231:3238   */\n      dup8\n        /* \"#utility.yul\":3227:3250   */\n      sub\n        /* \"#utility.yul\":3223:3256   */\n      slt\n        /* \"#utility.yul\":3220:3340   */\n      iszero\n      tag_152\n      jumpi\n        /* \"#utility.yul\":3259:3338   */\n      tag_153\n      tag_80\n      jump\t// in\n    tag_153:\n        /* \"#utility.yul\":3220:3340   */\n    tag_152:\n        /* \"#utility.yul\":3379:3380   */\n      0x00\n        /* \"#utility.yul\":3404:3457   */\n      tag_154\n        /* \"#utility.yul\":3449:3456   */\n      dup8\n        /* \"#utility.yul\":3440:3446   */\n      dup3\n        /* \"#utility.yul\":3429:3438   */\n      dup9\n        /* \"#utility.yul\":3425:3447   */\n      add\n        /* \"#utility.yul\":3404:3457   */\n      tag_84\n      jump\t// in\n    tag_154:\n        /* \"#utility.yul\":3394:3457   */\n      swap5\n      pop\n        /* \"#utility.yul\":3350:3467   */\n      pop\n        /* \"#utility.yul\":3506:3508   */\n      0x20\n        /* \"#utility.yul\":3532:3585   */\n      tag_155\n        /* \"#utility.yul\":3577:3584   */\n      dup8\n        /* \"#utility.yul\":3568:3574   */\n      dup3\n        /* \"#utility.yul\":3557:3566   */\n      dup9\n        /* \"#utility.yul\":3553:3575   */\n      add\n        /* \"#utility.yul\":3532:3585   */\n      tag_84\n      jump\t// in\n    tag_155:\n        /* \"#utility.yul\":3522:3585   */\n      swap4\n      pop\n        /* \"#utility.yul\":3477:3595   */\n      pop\n        /* \"#utility.yul\":3634:3636   */\n      0x40\n        /* \"#utility.yul\":3660:3713   */\n      tag_156\n        /* \"#utility.yul\":3705:3712   */\n      dup8\n        /* \"#utility.yul\":3696:3702   */\n      dup3\n        /* \"#utility.yul\":3685:3694   */\n      dup9\n        /* \"#utility.yul\":3681:3703   */\n      add\n        /* \"#utility.yul\":3660:3713   */\n      tag_92\n      jump\t// in\n    tag_156:\n        /* \"#utility.yul\":3650:3713   */\n      swap3\n      pop\n        /* \"#utility.yul\":3605:3723   */\n      pop\n        /* \"#utility.yul\":3762:3764   */\n      0x60\n        /* \"#utility.yul\":3788:3841   */\n      tag_157\n        /* \"#utility.yul\":3833:3840   */\n      dup8\n        /* \"#utility.yul\":3824:3830   */\n      dup3\n        /* \"#utility.yul\":3813:3822   */\n      dup9\n        /* \"#utility.yul\":3809:3831   */\n      add\n        /* \"#utility.yul\":3788:3841   */\n      tag_84\n      jump\t// in\n    tag_157:\n        /* \"#utility.yul\":3778:3841   */\n      swap2\n      pop\n        /* \"#utility.yul\":3733:3851   */\n      pop\n        /* \"#utility.yul\":3093:3858   */\n      swap3\n      swap6\n      swap2\n      swap5\n      pop\n      swap3\n      pop\n      jump\t// out\n        /* \"#utility.yul\":3864:4086   */\n    tag_30:\n        /* \"#utility.yul\":3957:3961   */\n      0x00\n        /* \"#utility.yul\":3995:3997   */\n      0x20\n        /* \"#utility.yul\":3984:3993   */\n      dup3\n        /* \"#utility.yul\":3980:3998   */\n      add\n        /* \"#utility.yul\":3972:3998   */\n      swap1\n      pop\n        /* \"#utility.yul\":4008:4079   */\n      tag_159\n        /* \"#utility.yul\":4076:4077   */\n      0x00\n        /* \"#utility.yul\":4065:4074   */\n      dup4\n        /* \"#utility.yul\":4061:4078   */\n      add\n        /* \"#utility.yul\":4052:4058   */\n      dup5\n        /* \"#utility.yul\":4008:4079   */\n      tag_87\n      jump\t// in\n    tag_159:\n        /* \"#utility.yul\":3864:4086   */\n      swap3\n      swap2\n      pop\n      pop\n      jump\t// out\n        /* \"#utility.yul\":4092:4314   */\n    tag_35:\n        /* \"#utility.yul\":4185:4189   */\n      0x00\n        /* \"#utility.yul\":4223:4225   */\n      0x20\n        /* \"#utility.yul\":4212:4221   */\n      dup3\n        /* \"#utility.yul\":4208:4226   */\n      add\n        /* \"#utility.yul\":4200:4226   */\n      swap1\n      pop\n        /* \"#utility.yul\":4236:4307   */\n      tag_161\n        /* \"#utility.yul\":4304:4305   */\n      0x00\n        /* \"#utility.yul\":4293:4302   */\n      dup4\n        /* \"#utility.yul\":4289:4306   */\n      add\n        /* \"#utility.yul\":4280:4286   */\n      dup5\n        /* \"#utility.yul\":4236:4307   */\n      tag_88\n      jump\t// in\n    tag_161:\n        /* \"#utility.yul\":4092:4314   */\n      swap3\n      swap2\n      pop\n      pop\n      jump\t// out\n        /* \"#utility.yul\":4320:4405   */\n    tag_93:\n        /* \"#utility.yul\":4365:4372   */\n      0x00\n        /* \"#utility.yul\":4394:4399   */\n      dup2\n        /* \"#utility.yul\":4383:4399   */\n      swap1\n      pop\n        /* \"#utility.yul\":4320:4405   */\n      swap2\n      swap1\n      pop\n      jump\t// out\n        /* \"#utility.yul\":4411:4512   */\n    tag_94:\n        /* \"#utility.yul\":4447:4454   */\n      0x00\n        /* \"#utility.yul\":4487:4505   */\n      0xffffffffffffffff\n        /* \"#utility.yul\":4480:4485   */\n      dup3\n        /* \"#utility.yul\":4476:4506   */\n      and\n        /* \"#utility.yul\":4465:4506   */\n      swap1\n      pop\n        /* \"#utility.yul\":4411:4512   */\n      swap2\n      swap1\n      pop\n      jump\t// out\n        /* \"#utility.yul\":4518:4578   */\n    tag_95:\n        /* \"#utility.yul\":4546:4549   */\n      0x00\n        /* \"#utility.yul\":4567:4572   */\n      dup2\n        /* \"#utility.yul\":4560:4572   */\n      swap1\n      pop\n        /* \"#utility.yul\":4518:4578   */\n      swap2\n      swap1\n      pop\n      jump\t// out\n        /* \"#utility.yul\":4584:4740   */\n    tag_96:\n        /* \"#utility.yul\":4641:4650   */\n      0x00\n        /* \"#utility.yul\":4674:4734   */\n      tag_166\n        /* \"#utility.yul\":4691:4733   */\n      tag_167\n        /* \"#utility.yul\":4700:4732   */\n      tag_168\n        /* \"#utility.yul\":4726:4731   */\n      dup5\n        /* \"#utility.yul\":4700:4732   */\n      tag_93\n      jump\t// in\n    tag_168:\n        /* \"#utility.yul\":4691:4733   */\n      tag_95\n      jump\t// in\n    tag_167:\n        /* \"#utility.yul\":4674:4734   */\n      tag_94\n      jump\t// in\n    tag_166:\n        /* \"#utility.yul\":4661:4734   */\n      swap1\n      pop\n        /* \"#utility.yul\":4584:4740   */\n      swap2\n      swap1\n      pop\n      jump\t// out\n        /* \"#utility.yul\":4746:4891   */\n    tag_97:\n        /* \"#utility.yul\":4840:4884   */\n      tag_170\n        /* \"#utility.yul\":4878:4883   */\n      dup2\n        /* \"#utility.yul\":4840:4884   */\n      tag_96\n      jump\t// in\n    tag_170:\n        /* \"#utility.yul\":4835:4838   */\n      dup3\n        /* \"#utility.yul\":4828:4885   */\n      mstore\n        /* \"#utility.yul\":4746:4891   */\n      pop\n      pop\n      jump\t// out\n        /* \"#utility.yul\":4897:5133   */\n    tag_47:\n        /* \"#utility.yul\":4997:5001   */\n      0x00\n        /* \"#utility.yul\":5035:5037   */\n      0x20\n        /* \"#utility.yul\":5024:5033   */\n      dup3\n        /* \"#utility.yul\":5020:5038   */\n      add\n        /* \"#utility.yul\":5012:5038   */\n      swap1\n      pop\n        /* \"#utility.yul\":5048:5126   */\n      tag_172\n        /* \"#utility.yul\":5123:5124   */\n      0x00\n        /* \"#utility.yul\":5112:5121   */\n      dup4\n        /* \"#utility.yul\":5108:5125   */\n      add\n        /* \"#utility.yul\":5099:5105   */\n      dup5\n        /* \"#utility.yul\":5048:5126   */\n      tag_97\n      jump\t// in\n    tag_172:\n        /* \"#utility.yul\":4897:5133   */\n      swap3\n      swap2\n      pop\n      pop\n      jump\t// out\n        /* \"#utility.yul\":5139:5319   */\n    tag_98:\n        /* \"#utility.yul\":5187:5264   */\n      0x4e487b7100000000000000000000000000000000000000000000000000000000\n        /* \"#utility.yul\":5184:5185   */\n      0x00\n        /* \"#utility.yul\":5177:5265   */\n      mstore\n        /* \"#utility.yul\":5284:5288   */\n      0x11\n        /* \"#utility.yul\":5281:5282   */\n      0x04\n        /* \"#utility.yul\":5274:5289   */\n      mstore\n        /* \"#utility.yul\":5308:5312   */\n      0x24\n        /* \"#utility.yul\":5305:5306   */\n      0x00\n        /* \"#utility.yul\":5298:5313   */\n      revert\n        /* \"#utility.yul\":5325:5516   */\n    tag_50:\n        /* \"#utility.yul\":5365:5368   */\n      0x00\n        /* \"#utility.yul\":5384:5404   */\n      tag_175\n        /* \"#utility.yul\":5402:5403   */\n      dup3\n        /* \"#utility.yul\":5384:5404   */\n      tag_82\n      jump\t// in\n    tag_175:\n        /* \"#utility.yul\":5379:5404   */\n      swap2\n      pop\n        /* \"#utility.yul\":5418:5438   */\n      tag_176\n        /* \"#utility.yul\":5436:5437   */\n      dup4\n        /* \"#utility.yul\":5418:5438   */\n      tag_82\n      jump\t// in\n    tag_176:\n        /* \"#utility.yul\":5413:5438   */\n      swap3\n      pop\n        /* \"#utility.yul\":5461:5462   */\n      dup3\n        /* \"#utility.yul\":5458:5459   */\n      dup3\n        /* \"#utility.yul\":5454:5463   */\n      add\n        /* \"#utility.yul\":5447:5463   */\n      swap1\n      pop\n        /* \"#utility.yul\":5482:5485   */\n      dup1\n        /* \"#utility.yul\":5479:5480   */\n      dup3\n        /* \"#utility.yul\":5476:5486   */\n      gt\n        /* \"#utility.yul\":5473:5509   */\n      iszero\n      tag_177\n      jumpi\n        /* \"#utility.yul\":5489:5507   */\n      tag_178\n      tag_98\n      jump\t// in\n    tag_178:\n        /* \"#utility.yul\":5473:5509   */\n    tag_177:\n        /* \"#utility.yul\":5325:5516   */\n      swap3\n      swap2\n      pop\n      pop\n      jump\t// out\n        /* \"#utility.yul\":5522:5691   */\n    tag_99:\n        /* \"#utility.yul\":5606:5617   */\n      0x00\n        /* \"#utility.yul\":5640:5646   */\n      dup3\n        /* \"#utility.yul\":5635:5638   */\n      dup3\n        /* \"#utility.yul\":5628:5647   */\n      mstore\n        /* \"#utility.yul\":5680:5684   */\n      0x20\n        /* \"#utility.yul\":5675:5678   */\n      dup3\n        /* \"#utility.yul\":5671:5685   */\n      add\n        /* \"#utility.yul\":5656:5685   */\n      swap1\n      pop\n        /* \"#utility.yul\":5522:5691   */\n      swap3\n      swap2\n      pop\n      pop\n      jump\t// out\n        /* \"#utility.yul\":5697:5863   */\n    tag_100:\n        /* \"#utility.yul\":5837:5855   */\n      0x61756374696f6e20697320656e64656400000000000000000000000000000000\n        /* \"#utility.yul\":5833:5834   */\n      0x00\n        /* \"#utility.yul\":5825:5831   */\n      dup3\n        /* \"#utility.yul\":5821:5835   */\n      add\n        /* \"#utility.yul\":5814:5856   */\n      mstore\n        /* \"#utility.yul\":5697:5863   */\n      pop\n      jump\t// out\n        /* \"#utility.yul\":5869:6235   */\n    tag_101:\n        /* \"#utility.yul\":6011:6014   */\n      0x00\n        /* \"#utility.yul\":6032:6099   */\n      tag_182\n        /* \"#utility.yul\":6096:6098   */\n      0x10\n        /* \"#utility.yul\":6091:6094   */\n      dup4\n        /* \"#utility.yul\":6032:6099   */\n      tag_99\n      jump\t// in\n    tag_182:\n        /* \"#utility.yul\":6025:6099   */\n      swap2\n      pop\n        /* \"#utility.yul\":6108:6201   */\n      tag_183\n        /* \"#utility.yul\":6197:6200   */\n      dup3\n        /* \"#utility.yul\":6108:6201   */\n      tag_100\n      jump\t// in\n    tag_183:\n        /* \"#utility.yul\":6226:6228   */\n      0x20\n        /* \"#utility.yul\":6221:6224   */\n      dup3\n        /* \"#utility.yul\":6217:6229   */\n      add\n        /* \"#utility.yul\":6210:6229   */\n      swap1\n      pop\n        /* \"#utility.yul\":5869:6235   */\n      swap2\n      swap1\n      pop\n      jump\t// out\n        /* \"#utility.yul\":6241:6660   */\n    tag_53:\n        /* \"#utility.yul\":6407:6411   */\n      0x00\n        /* \"#utility.yul\":6445:6447   */\n      0x20\n        /* \"#utility.yul\":6434:6443   */\n      dup3\n        /* \"#utility.yul\":6430:6448   */\n      add\n        /* \"#utility.yul\":6422:6448   */\n      swap1\n      pop\n        /* \"#utility.yul\":6494:6503   */\n      dup2\n        /* \"#utility.yul\":6488:6492   */\n      dup2\n        /* \"#utility.yul\":6484:6504   */\n      sub\n        /* \"#utility.yul\":6480:6481   */\n      0x00\n        /* \"#utility.yul\":6469:6478   */\n      dup4\n        /* \"#utility.yul\":6465:6482   */\n      add\n        /* \"#utility.yul\":6458:6505   */\n      mstore\n        /* \"#utility.yul\":6522:6653   */\n      tag_185\n        /* \"#utility.yul\":6648:6652   */\n      dup2\n        /* \"#utility.yul\":6522:6653   */\n      tag_101\n      jump\t// in\n    tag_185:\n        /* \"#utility.yul\":6514:6653   */\n      swap1\n      pop\n        /* \"#utility.yul\":6241:6660   */\n      swap2\n      swap1\n      pop\n      jump\t// out\n        /* \"#utility.yul\":6666:6842   */\n    tag_102:\n        /* \"#utility.yul\":6806:6834   */\n      0x7072696365206d757374206265203e2073746172745072696365000000000000\n        /* \"#utility.yul\":6802:6803   */\n      0x00\n        /* \"#utility.yul\":6794:6800   */\n      dup3\n        /* \"#utility.yul\":6790:6804   */\n      add\n        /* \"#utility.yul\":6783:6835   */\n      mstore\n        /* \"#utility.yul\":6666:6842   */\n      pop\n      jump\t// out\n        /* \"#utility.yul\":6848:7214   */\n    tag_103:\n        /* \"#utility.yul\":6990:6993   */\n      0x00\n        /* \"#utility.yul\":7011:7078   */\n      tag_188\n        /* \"#utility.yul\":7075:7077   */\n      0x1a\n        /* \"#utility.yul\":7070:7073   */\n      dup4\n        /* \"#utility.yul\":7011:7078   */\n      tag_99\n      jump\t// in\n    tag_188:\n        /* \"#utility.yul\":7004:7078   */\n      swap2\n      pop\n        /* \"#utility.yul\":7087:7180   */\n      tag_189\n        /* \"#utility.yul\":7176:7179   */\n      dup3\n        /* \"#utility.yul\":7087:7180   */\n      tag_102\n      jump\t// in\n    tag_189:\n        /* \"#utility.yul\":7205:7207   */\n      0x20\n        /* \"#utility.yul\":7200:7203   */\n      dup3\n        /* \"#utility.yul\":7196:7208   */\n      add\n        /* \"#utility.yul\":7189:7208   */\n      swap1\n      pop\n        /* \"#utility.yul\":6848:7214   */\n      swap2\n      swap1\n      pop\n      jump\t// out\n        /* \"#utility.yul\":7220:7639   */\n    tag_56:\n        /* \"#utility.yul\":7386:7390   */\n      0x00\n        /* \"#utility.yul\":7424:7426   */\n      0x20\n        /* \"#utility.yul\":7413:7422   */\n      dup3\n        /* \"#utility.yul\":7409:7427   */\n      add\n        /* \"#utility.yul\":7401:7427   */\n      swap1\n      pop\n        /* \"#utility.yul\":7473:7482   */\n      dup2\n        /* \"#utility.yul\":7467:7471   */\n      dup2\n        /* \"#utility.yul\":7463:7483   */\n      sub\n        /* \"#utility.yul\":7459:7460   */\n      0x00\n        /* \"#utility.yul\":7448:7457   */\n      dup4\n        /* \"#utility.yul\":7444:7461   */\n      add\n        /* \"#utility.yul\":7437:7484   */\n      mstore\n        /* \"#utility.yul\":7501:7632   */\n      tag_191\n        /* \"#utility.yul\":7627:7631   */\n      dup2\n        /* \"#utility.yul\":7501:7632   */\n      tag_103\n      jump\t// in\n    tag_191:\n        /* \"#utility.yul\":7493:7632   */\n      swap1\n      pop\n        /* \"#utility.yul\":7220:7639   */\n      swap2\n      swap1\n      pop\n      jump\t// out\n        /* \"#utility.yul\":7645:7821   */\n    tag_104:\n        /* \"#utility.yul\":7785:7813   */\n      0x7072696365206d757374206265203e2068696768657374426964000000000000\n        /* \"#utility.yul\":7781:7782   */\n      0x00\n        /* \"#utility.yul\":7773:7779   */\n      dup3\n        /* \"#utility.yul\":7769:7783   */\n      add\n        /* \"#utility.yul\":7762:7814   */\n      mstore\n        /* \"#utility.yul\":7645:7821   */\n      pop\n      jump\t// out\n        /* \"#utility.yul\":7827:8193   */\n    tag_105:\n        /* \"#utility.yul\":7969:7972   */\n      0x00\n        /* \"#utility.yul\":7990:8057   */\n      tag_194\n        /* \"#utility.yul\":8054:8056   */\n      0x1a\n        /* \"#utility.yul\":8049:8052   */\n      dup4\n        /* \"#utility.yul\":7990:8057   */\n      tag_99\n      jump\t// in\n    tag_194:\n        /* \"#utility.yul\":7983:8057   */\n      swap2\n      pop\n        /* \"#utility.yul\":8066:8159   */\n      tag_195\n        /* \"#utility.yul\":8155:8158   */\n      dup3\n        /* \"#utility.yul\":8066:8159   */\n      tag_104\n      jump\t// in\n    tag_195:\n        /* \"#utility.yul\":8184:8186   */\n      0x20\n        /* \"#utility.yul\":8179:8182   */\n      dup3\n        /* \"#utility.yul\":8175:8187   */\n      add\n        /* \"#utility.yul\":8168:8187   */\n      swap1\n      pop\n        /* \"#utility.yul\":7827:8193   */\n      swap2\n      swap1\n      pop\n      jump\t// out\n        /* \"#utility.yul\":8199:8618   */\n    tag_59:\n        /* \"#utility.yul\":8365:8369   */\n      0x00\n        /* \"#utility.yul\":8403:8405   */\n      0x20\n        /* \"#utility.yul\":8392:8401   */\n      dup3\n        /* \"#utility.yul\":8388:8406   */\n      add\n        /* \"#utility.yul\":8380:8406   */\n      swap1\n      pop\n        /* \"#utility.yul\":8452:8461   */\n      dup2\n        /* \"#utility.yul\":8446:8450   */\n      dup2\n        /* \"#utility.yul\":8442:8462   */\n      sub\n        /* \"#utility.yul\":8438:8439   */\n      0x00\n        /* \"#utility.yul\":8427:8436   */\n      dup4\n        /* \"#utility.yul\":8423:8440   */\n      add\n        /* \"#utility.yul\":8416:8463   */\n      mstore\n        /* \"#utility.yul\":8480:8611   */\n      tag_197\n        /* \"#utility.yul\":8606:8610   */\n      dup2\n        /* \"#utility.yul\":8480:8611   */\n      tag_105\n      jump\t// in\n    tag_197:\n        /* \"#utility.yul\":8472:8611   */\n      swap1\n      pop\n        /* \"#utility.yul\":8199:8618   */\n      swap2\n      swap1\n      pop\n      jump\t// out\n        /* \"#utility.yul\":8624:8804   */\n    tag_106:\n        /* \"#utility.yul\":8764:8796   */\n      0x6f6e6c792061646d696e2063616e206372656174652061756374696f6e730000\n        /* \"#utility.yul\":8760:8761   */\n      0x00\n        /* \"#utility.yul\":8752:8758   */\n      dup3\n        /* \"#utility.yul\":8748:8762   */\n      add\n        /* \"#utility.yul\":8741:8797   */\n      mstore\n        /* \"#utility.yul\":8624:8804   */\n      pop\n      jump\t// out\n        /* \"#utility.yul\":8810:9176   */\n    tag_107:\n        /* \"#utility.yul\":8952:8955   */\n      0x00\n        /* \"#utility.yul\":8973:9040   */\n      tag_200\n        /* \"#utility.yul\":9037:9039   */\n      0x1e\n        /* \"#utility.yul\":9032:9035   */\n      dup4\n        /* \"#utility.yul\":8973:9040   */\n      tag_99\n      jump\t// in\n    tag_200:\n        /* \"#utility.yul\":8966:9040   */\n      swap2\n      pop\n        /* \"#utility.yul\":9049:9142   */\n      tag_201\n        /* \"#utility.yul\":9138:9141   */\n      dup3\n        /* \"#utility.yul\":9049:9142   */\n      tag_106\n      jump\t// in\n    tag_201:\n        /* \"#utility.yul\":9167:9169   */\n      0x20\n        /* \"#utility.yul\":9162:9165   */\n      dup3\n        /* \"#utility.yul\":9158:9170   */\n      add\n        /* \"#utility.yul\":9151:9170   */\n      swap1\n      pop\n        /* \"#utility.yul\":8810:9176   */\n      swap2\n      swap1\n      pop\n      jump\t// out\n        /* \"#utility.yul\":9182:9601   */\n    tag_66:\n        /* \"#utility.yul\":9348:9352   */\n      0x00\n        /* \"#utility.yul\":9386:9388   */\n      0x20\n        /* \"#utility.yul\":9375:9384   */\n      dup3\n        /* \"#utility.yul\":9371:9389   */\n      add\n        /* \"#utility.yul\":9363:9389   */\n      swap1\n      pop\n        /* \"#utility.yul\":9435:9444   */\n      dup2\n        /* \"#utility.yul\":9429:9433   */\n      dup2\n        /* \"#utility.yul\":9425:9445   */\n      sub\n        /* \"#utility.yul\":9421:9422   */\n      0x00\n        /* \"#utility.yul\":9410:9419   */\n      dup4\n        /* \"#utility.yul\":9406:9423   */\n      add\n        /* \"#utility.yul\":9399:9446   */\n      mstore\n        /* \"#utility.yul\":9463:9594   */\n      tag_203\n        /* \"#utility.yul\":9589:9593   */\n      dup2\n        /* \"#utility.yul\":9463:9594   */\n      tag_107\n      jump\t// in\n    tag_203:\n        /* \"#utility.yul\":9455:9594   */\n      swap1\n      pop\n        /* \"#utility.yul\":9182:9601   */\n      swap2\n      swap1\n      pop\n      jump\t// out\n        /* \"#utility.yul\":9607:9778   */\n    tag_108:\n        /* \"#utility.yul\":9747:9770   */\n      0x6475726174696f6e206d757374206265203e2036300000000000000000000000\n        /* \"#utility.yul\":9743:9744   */\n      0x00\n        /* \"#utility.yul\":9735:9741   */\n      dup3\n        /* \"#utility.yul\":9731:9745   */\n      add\n        /* \"#utility.yul\":9724:9771   */\n      mstore\n        /* \"#utility.yul\":9607:9778   */\n      pop\n      jump\t// out\n        /* \"#utility.yul\":9784:10150   */\n    tag_109:\n        /* \"#utility.yul\":9926:9929   */\n      0x00\n        /* \"#utility.yul\":9947:10014   */\n      tag_206\n        /* \"#utility.yul\":10011:10013   */\n      0x15\n        /* \"#utility.yul\":10006:10009   */\n      dup4\n        /* \"#utility.yul\":9947:10014   */\n      tag_99\n      jump\t// in\n    tag_206:\n        /* \"#utility.yul\":9940:10014   */\n      swap2\n      pop\n        /* \"#utility.yul\":10023:10116   */\n      tag_207\n        /* \"#utility.yul\":10112:10115   */\n      dup3\n        /* \"#utility.yul\":10023:10116   */\n      tag_108\n      jump\t// in\n    tag_207:\n        /* \"#utility.yul\":10141:10143   */\n      0x20\n        /* \"#utility.yul\":10136:10139   */\n      dup3\n        /* \"#utility.yul\":10132:10144   */\n      add\n        /* \"#utility.yul\":10125:10144   */\n      swap1\n      pop\n        /* \"#utility.yul\":9784:10150   */\n      swap2\n      swap1\n      pop\n      jump\t// out\n        /* \"#utility.yul\":10156:10575   */\n    tag_69:\n        /* \"#utility.yul\":10322:10326   */\n      0x00\n        /* \"#utility.yul\":10360:10362   */\n      0x20\n        /* \"#utility.yul\":10349:10358   */\n      dup3\n        /* \"#utility.yul\":10345:10363   */\n      add\n        /* \"#utility.yul\":10337:10363   */\n      swap1\n      pop\n        /* \"#utility.yul\":10409:10418   */\n      dup2\n        /* \"#utility.yul\":10403:10407   */\n      dup2\n        /* \"#utility.yul\":10399:10419   */\n      sub\n        /* \"#utility.yul\":10395:10396   */\n      0x00\n        /* \"#utility.yul\":10384:10393   */\n      dup4\n        /* \"#utility.yul\":10380:10397   */\n      add\n        /* \"#utility.yul\":10373:10420   */\n      mstore\n        /* \"#utility.yul\":10437:10568   */\n      tag_209\n        /* \"#utility.yul\":10563:10567   */\n      dup2\n        /* \"#utility.yul\":10437:10568   */\n      tag_109\n      jump\t// in\n    tag_209:\n        /* \"#utility.yul\":10429:10568   */\n      swap1\n      pop\n        /* \"#utility.yul\":10156:10575   */\n      swap2\n      swap1\n      pop\n      jump\t// out\n        /* \"#utility.yul\":10581:10753   */\n    tag_110:\n        /* \"#utility.yul\":10721:10745   */\n      0x73746172745072696365206d757374206265203e203000000000000000000000\n        /* \"#utility.yul\":10717:10718   */\n      0x00\n        /* \"#utility.yul\":10709:10715   */\n      dup3\n        /* \"#utility.yul\":10705:10719   */\n      add\n        /* \"#utility.yul\":10698:10746   */\n      mstore\n        /* \"#utility.yul\":10581:10753   */\n      pop\n      jump\t// out\n        /* \"#utility.yul\":10759:11125   */\n    tag_111:\n        /* \"#utility.yul\":10901:10904   */\n      0x00\n        /* \"#utility.yul\":10922:10989   */\n      tag_212\n        /* \"#utility.yul\":10986:10988   */\n      0x16\n        /* \"#utility.yul\":10981:10984   */\n      dup4\n        /* \"#utility.yul\":10922:10989   */\n      tag_99\n      jump\t// in\n    tag_212:\n        /* \"#utility.yul\":10915:10989   */\n      swap2\n      pop\n        /* \"#utility.yul\":10998:11091   */\n      tag_213\n        /* \"#utility.yul\":11087:11090   */\n      dup3\n        /* \"#utility.yul\":10998:11091   */\n      tag_110\n      jump\t// in\n    tag_213:\n        /* \"#utility.yul\":11116:11118   */\n      0x20\n        /* \"#utility.yul\":11111:11114   */\n      dup3\n        /* \"#utility.yul\":11107:11119   */\n      add\n        /* \"#utility.yul\":11100:11119   */\n      swap1\n      pop\n        /* \"#utility.yul\":10759:11125   */\n      swap2\n      swap1\n      pop\n      jump\t// out\n        /* \"#utility.yul\":11131:11550   */\n    tag_72:\n        /* \"#utility.yul\":11297:11301   */\n      0x00\n        /* \"#utility.yul\":11335:11337   */\n      0x20\n        /* \"#utility.yul\":11324:11333   */\n      dup3\n        /* \"#utility.yul\":11320:11338   */\n      add\n        /* \"#utility.yul\":11312:11338   */\n      swap1\n      pop\n        /* \"#utility.yul\":11384:11393   */\n      dup2\n        /* \"#utility.yul\":11378:11382   */\n      dup2\n        /* \"#utility.yul\":11374:11394   */\n      sub\n        /* \"#utility.yul\":11370:11371   */\n      0x00\n        /* \"#utility.yul\":11359:11368   */\n      dup4\n        /* \"#utility.yul\":11355:11372   */\n      add\n        /* \"#utility.yul\":11348:11395   */\n      mstore\n        /* \"#utility.yul\":11412:11543   */\n      tag_215\n        /* \"#utility.yul\":11538:11542   */\n      dup2\n        /* \"#utility.yul\":11412:11543   */\n      tag_111\n      jump\t// in\n    tag_215:\n        /* \"#utility.yul\":11404:11543   */\n      swap1\n      pop\n        /* \"#utility.yul\":11131:11550   */\n      swap2\n      swap1\n      pop\n      jump\t// out\n        /* \"#utility.yul\":11556:11789   */\n    tag_74:\n        /* \"#utility.yul\":11595:11598   */\n      0x00\n        /* \"#utility.yul\":11618:11642   */\n      tag_217\n        /* \"#utility.yul\":11636:11641   */\n      dup3\n        /* \"#utility.yul\":11618:11642   */\n      tag_82\n      jump\t// in\n    tag_217:\n        /* \"#utility.yul\":11609:11642   */\n      swap2\n      pop\n        /* \"#utility.yul\":11664:11730   */\n      0xffffffffffffffffffffffffffffffffffffffffffffffffffffffffffffffff\n        /* \"#utility.yul\":11657:11662   */\n      dup3\n        /* \"#utility.yul\":11654:11731   */\n      sub\n        /* \"#utility.yul\":11651:11754   */\n      tag_218\n      jumpi\n        /* \"#utility.yul\":11734:11752   */\n      tag_219\n      tag_98\n      jump\t// in\n    tag_219:\n        /* \"#utility.yul\":11651:11754   */\n    tag_218:\n        /* \"#utility.yul\":11781:11782   */\n      0x01\n        /* \"#utility.yul\":11774:11779   */\n      dup3\n        /* \"#utility.yul\":11770:11783   */\n      add\n        /* \"#utility.yul\":11763:11783   */\n      swap1\n      pop\n        /* \"#utility.yul\":11556:11789   */\n      swap2\n      swap1\n      pop\n      jump\t// out\n\n    auxdata: 0xa2646970667358221220c4739be058b374b49fda1a097c3847dfdb66d89bd2569e13a459f05b6c2f46b964736f6c634300081e0033\n}\n",
				"bytecode": {
					"linkReferences": {},
					"object": "6080604052348015600e575f5ffd5b50610ef18061001c5f395ff3fe608060405260043610610054575f3560e01c8063571a26a0146100585780638129fc1c1461009c5780639979ef45146100b2578063b1cb48ef146100ce578063f851a440146100f6578063fc52848214610120575b5f5ffd5b348015610063575f5ffd5b5061007e60048036038101906100799190610948565b61014a565b604051610093999897969594939291906109db565b60405180910390f35b3480156100a7575f5ffd5b506100b06101fd565b005b6100cc60048036038101906100c79190610948565b6103b4565b005b3480156100d9575f5ffd5b506100f460048036038101906100ef9190610a90565b6105bc565b005b348015610101575f5ffd5b5061010a6108aa565b6040516101179190610af4565b60405180910390f35b34801561012b575f5ffd5b506101346108cf565b6040516101419190610b0d565b60405180910390f35b5f602052805f5260405f205f91509050805f015f9054906101000a900473ffffffffffffffffffffffffffffffffffffffff1690806001015490806002015490806003015490806004015f9054906101000a900460ff16908060040160019054906101000a900473ffffffffffffffffffffffffffffffffffffffff1690806005015490806006015f9054906101000a900473ffffffffffffffffffffffffffffffffffffffff16908060070154905089565b5f6102066108d5565b90505f815f0160089054906101000a900460ff161590505f825f015f9054906101000a900467ffffffffffffffff1690505f5f8267ffffffffffffffff1614801561024e5750825b90505f60018367ffffffffffffffff1614801561028157505f3073ffffffffffffffffffffffffffffffffffffffff163b145b90508115801561028f575080155b156102c6576040517ff92ee8a900000000000000000000000000000000000000000000000000000000815260040160405180910390fd5b6001855f015f6101000a81548167ffffffffffffffff021916908367ffffffffffffffff1602179055508315610313576001855f0160086101000a81548160ff0219169083151502179055505b3360025f6101000a81548173ffffffffffffffffffffffffffffffffffffffff021916908373ffffffffffffffffffffffffffffffffffffffff16021790555083156103ad575f855f0160086101000a81548160ff0219169083151502179055507fc7f505b2f371ae2175ee4913f4499e1f2633a7b5936321eed1cdaeb6115181d260016040516103a49190610b7b565b60405180910390a15b5050505050565b5f5f5f8381526020019081526020015f20905042816002015482600101546103dc9190610bc1565b1161041c576040517f08c379a000000000000000000000000000000000000000000000000000000000815260040161041390610c4e565b60405180910390fd5b80600301543411610462576040517f08c379a000000000000000000000000000000000000000000000000000000000815260040161045990610cb6565b60405180910390fd5b806005015434116104a8576040517f08c379a000000000000000000000000000000000000000000000000000000000815260040161049f90610d1e565b60405180910390fd5b5f73ffffffffffffffffffffffffffffffffffffffff168160040160019054906101000a900473ffffffffffffffffffffffffffffffffffffffff1673ffffffffffffffffffffffffffffffffffffffff161461056c578060040160019054906101000a900473ffffffffffffffffffffffffffffffffffffffff1673ffffffffffffffffffffffffffffffffffffffff166108fc826005015490811502906040515f60405180830381858888f1935050505015801561056a573d5f5f3e3d5ffd5b505b338160040160016101000a81548173ffffffffffffffffffffffffffffffffffffffff021916908373ffffffffffffffffffffffffffffffffffffffff1602179055503481600501819055505050565b60025f9054906101000a900473ffffffffffffffffffffffffffffffffffffffff1673ffffffffffffffffffffffffffffffffffffffff163373ffffffffffffffffffffffffffffffffffffffff161461064b576040517f08c379a000000000000000000000000000000000000000000000000000000000815260040161064290610d86565b60405180910390fd5b61ea60841161068f576040517f08c379a000000000000000000000000000000000000000000000000000000000815260040161068690610dee565b60405180910390fd5b5f83116106d1576040517f08c379a00000000000000000000000000000000000000000000000000000000081526004016106c890610e56565b60405180910390fd5b6040518061012001604052803373ffffffffffffffffffffffffffffffffffffffff1681526020014281526020018581526020018481526020015f151581526020015f73ffffffffffffffffffffffffffffffffffffffff1681526020015f81526020018373ffffffffffffffffffffffffffffffffffffffff168152602001828152505f5f60015481526020019081526020015f205f820151815f015f6101000a81548173ffffffffffffffffffffffffffffffffffffffff021916908373ffffffffffffffffffffffffffffffffffffffff1602179055506020820151816001015560408201518160020155606082015181600301556080820151816004015f6101000a81548160ff02191690831515021790555060a08201518160040160016101000a81548173ffffffffffffffffffffffffffffffffffffffff021916908373ffffffffffffffffffffffffffffffffffffffff16021790555060c0820151816005015560e0820151816006015f6101000a81548173ffffffffffffffffffffffffffffffffffffffff021916908373ffffffffffffffffffffffffffffffffffffffff160217905550610100820151816007015590505060015f81548092919061089f90610e74565b919050555050505050565b60025f9054906101000a900473ffffffffffffffffffffffffffffffffffffffff1681565b60015481565b5f5f6108df6108e8565b90508091505090565b5f7ff0c57e16840df040f15088dc2f81fe391c3923bec73e23a9662efc9c229c6a005f1b905090565b5f5ffd5b5f819050919050565b61092781610915565b8114610931575f5ffd5b50565b5f813590506109428161091e565b92915050565b5f6020828403121561095d5761095c610911565b5b5f61096a84828501610934565b91505092915050565b5f73ffffffffffffffffffffffffffffffffffffffff82169050919050565b5f61099c82610973565b9050919050565b6109ac81610992565b82525050565b6109bb81610915565b82525050565b5f8115159050919050565b6109d5816109c1565b82525050565b5f610120820190506109ef5f83018c6109a3565b6109fc602083018b6109b2565b610a09604083018a6109b2565b610a1660608301896109b2565b610a2360808301886109cc565b610a3060a08301876109a3565b610a3d60c08301866109b2565b610a4a60e08301856109a3565b610a586101008301846109b2565b9a9950505050505050505050565b610a6f81610992565b8114610a79575f5ffd5b50565b5f81359050610a8a81610a66565b92915050565b5f5f5f5f60808587031215610aa857610aa7610911565b5b5f610ab587828801610934565b9450506020610ac687828801610934565b9350506040610ad787828801610a7c565b9250506060610ae887828801610934565b91505092959194509250565b5f602082019050610b075f8301846109a3565b92915050565b5f602082019050610b205f8301846109b2565b92915050565b5f819050919050565b5f67ffffffffffffffff82169050919050565b5f819050919050565b5f610b65610b60610b5b84610b26565b610b42565b610b2f565b9050919050565b610b7581610b4b565b82525050565b5f602082019050610b8e5f830184610b6c565b92915050565b7f4e487b71000000000000000000000000000000000000000000000000000000005f52601160045260245ffd5b5f610bcb82610915565b9150610bd683610915565b9250828201905080821115610bee57610bed610b94565b5b92915050565b5f82825260208201905092915050565b7f61756374696f6e20697320656e646564000000000000000000000000000000005f82015250565b5f610c38601083610bf4565b9150610c4382610c04565b602082019050919050565b5f6020820190508181035f830152610c6581610c2c565b9050919050565b7f7072696365206d757374206265203e20737461727450726963650000000000005f82015250565b5f610ca0601a83610bf4565b9150610cab82610c6c565b602082019050919050565b5f6020820190508181035f830152610ccd81610c94565b9050919050565b7f7072696365206d757374206265203e20686967686573744269640000000000005f82015250565b5f610d08601a83610bf4565b9150610d1382610cd4565b602082019050919050565b5f6020820190508181035f830152610d3581610cfc565b9050919050565b7f6f6e6c792061646d696e2063616e206372656174652061756374696f6e7300005f82015250565b5f610d70601e83610bf4565b9150610d7b82610d3c565b602082019050919050565b5f6020820190508181035f830152610d9d81610d64565b9050919050565b7f6475726174696f6e206d757374206265203e20363000000000000000000000005f82015250565b5f610dd8601583610bf4565b9150610de382610da4565b602082019050919050565b5f6020820190508181035f830152610e0581610dcc565b9050919050565b7f73746172745072696365206d757374206265203e2030000000000000000000005f82015250565b5f610e40601683610bf4565b9150610e4b82610e0c565b602082019050919050565b5f6020820190508181035f830152610e6d81610e34565b9050919050565b5f610e7e82610915565b91507fffffffffffffffffffffffffffffffffffffffffffffffffffffffffffffffff8203610eb057610eaf610b94565b5b60018201905091905056fea2646970667358221220c4739be058b374b49fda1a097c3847dfdb66d89bd2569e13a459f05b6c2f46b964736f6c634300081e0033",
					"opcodes": "PUSH1 0x80 PUSH1 0x40 MSTORE CALLVALUE DUP1 ISZERO PUSH1 0xE JUMPI PUSH0 PUSH0 REVERT JUMPDEST POP PUSH2 0xEF1 DUP1 PUSH2 0x1C PUSH0 CODECOPY PUSH0 RETURN INVALID PUSH1 0x80 PUSH1 0x40 MSTORE PUSH1 0x4 CALLDATASIZE LT PUSH2 0x54 JUMPI PUSH0 CALLDATALOAD PUSH1 0xE0 SHR DUP1 PUSH4 0x571A26A0 EQ PUSH2 0x58 JUMPI DUP1 PUSH4 0x8129FC1C EQ PUSH2 0x9C JUMPI DUP1 PUSH4 0x9979EF45 EQ PUSH2 0xB2 JUMPI DUP1 PUSH4 0xB1CB48EF EQ PUSH2 0xCE JUMPI DUP1 PUSH4 0xF851A440 EQ PUSH2 0xF6 JUMPI DUP1 PUSH4 0xFC528482 EQ PUSH2 0x120 JUMPI JUMPDEST PUSH0 PUSH0 REVERT JUMPDEST CALLVALUE DUP1 ISZERO PUSH2 0x63 JUMPI PUSH0 PUSH0 REVERT JUMPDEST POP PUSH2 0x7E PUSH1 0x4 DUP1 CALLDATASIZE SUB DUP2 ADD SWAP1 PUSH2 0x79 SWAP2 SWAP1 PUSH2 0x948 JUMP JUMPDEST PUSH2 0x14A JUMP JUMPDEST PUSH1 0x40 MLOAD PUSH2 0x93 SWAP10 SWAP9 SWAP8 SWAP7 SWAP6 SWAP5 SWAP4 SWAP3 SWAP2 SWAP1 PUSH2 0x9DB JUMP JUMPDEST PUSH1 0x40 MLOAD DUP1 SWAP2 SUB SWAP1 RETURN JUMPDEST CALLVALUE DUP1 ISZERO PUSH2 0xA7 JUMPI PUSH0 PUSH0 REVERT JUMPDEST POP PUSH2 0xB0 PUSH2 0x1FD JUMP JUMPDEST STOP JUMPDEST PUSH2 0xCC PUSH1 0x4 DUP1 CALLDATASIZE SUB DUP2 ADD SWAP1 PUSH2 0xC7 SWAP2 SWAP1 PUSH2 0x948 JUMP JUMPDEST PUSH2 0x3B4 JUMP JUMPDEST STOP JUMPDEST CALLVALUE DUP1 ISZERO PUSH2 0xD9 JUMPI PUSH0 PUSH0 REVERT JUMPDEST POP PUSH2 0xF4 PUSH1 0x4 DUP1 CALLDATASIZE SUB DUP2 ADD SWAP1 PUSH2 0xEF SWAP2 SWAP1 PUSH2 0xA90 JUMP JUMPDEST PUSH2 0x5BC JUMP JUMPDEST STOP JUMPDEST CALLVALUE DUP1 ISZERO PUSH2 0x101 JUMPI PUSH0 PUSH0 REVERT JUMPDEST POP PUSH2 0x10A PUSH2 0x8AA JUMP JUMPDEST PUSH1 0x40 MLOAD PUSH2 0x117 SWAP2 SWAP1 PUSH2 0xAF4 JUMP JUMPDEST PUSH1 0x40 MLOAD DUP1 SWAP2 SUB SWAP1 RETURN JUMPDEST CALLVALUE DUP1 ISZERO PUSH2 0x12B JUMPI PUSH0 PUSH0 REVERT JUMPDEST POP PUSH2 0x134 PUSH2 0x8CF JUMP JUMPDEST PUSH1 0x40 MLOAD PUSH2 0x141 SWAP2 SWAP1 PUSH2 0xB0D JUMP JUMPDEST PUSH1 0x40 MLOAD DUP1 SWAP2 SUB SWAP1 RETURN JUMPDEST PUSH0 PUSH1 0x20 MSTORE DUP1 PUSH0 MSTORE PUSH1 0x40 PUSH0 KECCAK256 PUSH0 SWAP2 POP SWAP1 POP DUP1 PUSH0 ADD PUSH0 SWAP1 SLOAD SWAP1 PUSH2 0x100 EXP SWAP1 DIV PUSH20 0xFFFFFFFFFFFFFFFFFFFFFFFFFFFFFFFFFFFFFFFF AND SWAP1 DUP1 PUSH1 0x1 ADD SLOAD SWAP1 DUP1 PUSH1 0x2 ADD SLOAD SWAP1 DUP1 PUSH1 0x3 ADD SLOAD SWAP1 DUP1 PUSH1 0x4 ADD PUSH0 SWAP1 SLOAD SWAP1 PUSH2 0x100 EXP SWAP1 DIV PUSH1 0xFF AND SWAP1 DUP1 PUSH1 0x4 ADD PUSH1 0x1 SWAP1 SLOAD SWAP1 PUSH2 0x100 EXP SWAP1 DIV PUSH20 0xFFFFFFFFFFFFFFFFFFFFFFFFFFFFFFFFFFFFFFFF AND SWAP1 DUP1 PUSH1 0x5 ADD SLOAD SWAP1 DUP1 PUSH1 0x6 ADD PUSH0 SWAP1 SLOAD SWAP1 PUSH2 0x100 EXP SWAP1 DIV PUSH20 0xFFFFFFFFFFFFFFFFFFFFFFFFFFFFFFFFFFFFFFFF AND SWAP1 DUP1 PUSH1 0x7 ADD SLOAD SWAP1 POP DUP10 JUMP JUMPDEST PUSH0 PUSH2 0x206 PUSH2 0x8D5 JUMP JUMPDEST SWAP1 POP PUSH0 DUP2 PUSH0 ADD PUSH1 0x8 SWAP1 SLOAD SWAP1 PUSH2 0x100 EXP SWAP1 DIV PUSH1 0xFF AND ISZERO SWAP1 POP PUSH0 DUP3 PUSH0 ADD PUSH0 SWAP1 SLOAD SWAP1 PUSH2 0x100 EXP SWAP1 DIV PUSH8 0xFFFFFFFFFFFFFFFF AND SWAP1 POP PUSH0 PUSH0 DUP3 PUSH8 0xFFFFFFFFFFFFFFFF AND EQ DUP1 ISZERO PUSH2 0x24E JUMPI POP DUP3 JUMPDEST SWAP1 POP PUSH0 PUSH1 0x1 DUP4 PUSH8 0xFFFFFFFFFFFFFFFF AND EQ DUP1 ISZERO PUSH2 0x281 JUMPI POP PUSH0 ADDRESS PUSH20 0xFFFFFFFFFFFFFFFFFFFFFFFFFFFFFFFFFFFFFFFF AND EXTCODESIZE EQ JUMPDEST SWAP1 POP DUP2 ISZERO DUP1 ISZERO PUSH2 0x28F JUMPI POP DUP1 ISZERO JUMPDEST ISZERO PUSH2 0x2C6 JUMPI PUSH1 0x40 MLOAD PUSH32 0xF92EE8A900000000000000000000000000000000000000000000000000000000 DUP2 MSTORE PUSH1 0x4 ADD PUSH1 0x40 MLOAD DUP1 SWAP2 SUB SWAP1 REVERT JUMPDEST PUSH1 0x1 DUP6 PUSH0 ADD PUSH0 PUSH2 0x100 EXP DUP2 SLOAD DUP2 PUSH8 0xFFFFFFFFFFFFFFFF MUL NOT AND SWAP1 DUP4 PUSH8 0xFFFFFFFFFFFFFFFF AND MUL OR SWAP1 SSTORE POP DUP4 ISZERO PUSH2 0x313 JUMPI PUSH1 0x1 DUP6 PUSH0 ADD PUSH1 0x8 PUSH2 0x100 EXP DUP2 SLOAD DUP2 PUSH1 0xFF MUL NOT AND SWAP1 DUP4 ISZERO ISZERO MUL OR SWAP1 SSTORE POP JUMPDEST CALLER PUSH1 0x2 PUSH0 PUSH2 0x100 EXP DUP2 SLOAD DUP2 PUSH20 0xFFFFFFFFFFFFFFFFFFFFFFFFFFFFFFFFFFFFFFFF MUL NOT AND SWAP1 DUP4 PUSH20 0xFFFFFFFFFFFFFFFFFFFFFFFFFFFFFFFFFFFFFFFF AND MUL OR SWAP1 SSTORE POP DUP4 ISZERO PUSH2 0x3AD JUMPI PUSH0 DUP6 PUSH0 ADD PUSH1 0x8 PUSH2 0x100 EXP DUP2 SLOAD DUP2 PUSH1 0xFF MUL NOT AND SWAP1 DUP4 ISZERO ISZERO MUL OR SWAP1 SSTORE POP PUSH32 0xC7F505B2F371AE2175EE4913F4499E1F2633A7B5936321EED1CDAEB6115181D2 PUSH1 0x1 PUSH1 0x40 MLOAD PUSH2 0x3A4 SWAP2 SWAP1 PUSH2 0xB7B JUMP JUMPDEST PUSH1 0x40 MLOAD DUP1 SWAP2 SUB SWAP1 LOG1 JUMPDEST POP POP POP POP POP JUMP JUMPDEST PUSH0 PUSH0 PUSH0 DUP4 DUP2 MSTORE PUSH1 0x20 ADD SWAP1 DUP2 MSTORE PUSH1 0x20 ADD PUSH0 KECCAK256 SWAP1 POP TIMESTAMP DUP2 PUSH1 0x2 ADD SLOAD DUP3 PUSH1 0x1 ADD SLOAD PUSH2 0x3DC SWAP2 SWAP1 PUSH2 0xBC1 JUMP JUMPDEST GT PUSH2 0x41C JUMPI PUSH1 0x40 MLOAD PUSH32 0x8C379A000000000000000000000000000000000000000000000000000000000 DUP2 MSTORE PUSH1 0x4 ADD PUSH2 0x413 SWAP1 PUSH2 0xC4E JUMP JUMPDEST PUSH1 0x40 MLOAD DUP1 SWAP2 SUB SWAP1 REVERT JUMPDEST DUP1 PUSH1 0x3 ADD SLOAD CALLVALUE GT PUSH2 0x462 JUMPI PUSH1 0x40 MLOAD PUSH32 0x8C379A000000000000000000000000000000000000000000000000000000000 DUP2 MSTORE PUSH1 0x4 ADD PUSH2 0x459 SWAP1 PUSH2 0xCB6 JUMP JUMPDEST PUSH1 0x40 MLOAD DUP1 SWAP2 SUB SWAP1 REVERT JUMPDEST DUP1 PUSH1 0x5 ADD SLOAD CALLVALUE GT PUSH2 0x4A8 JUMPI PUSH1 0x40 MLOAD PUSH32 0x8C379A000000000000000000000000000000000000000000000000000000000 DUP2 MSTORE PUSH1 0x4 ADD PUSH2 0x49F SWAP1 PUSH2 0xD1E JUMP JUMPDEST PUSH1 0x40 MLOAD DUP1 SWAP2 SUB SWAP1 REVERT JUMPDEST PUSH0 PUSH20 0xFFFFFFFFFFFFFFFFFFFFFFFFFFFFFFFFFFFFFFFF AND DUP2 PUSH1 0x4 ADD PUSH1 0x1 SWAP1 SLOAD SWAP1 PUSH2 0x100 EXP SWAP1 DIV PUSH20 0xFFFFFFFFFFFFFFFFFFFFFFFFFFFFFFFFFFFFFFFF AND PUSH20 0xFFFFFFFFFFFFFFFFFFFFFFFFFFFFFFFFFFFFFFFF AND EQ PUSH2 0x56C JUMPI DUP1 PUSH1 0x4 ADD PUSH1 0x1 SWAP1 SLOAD SWAP1 PUSH2 0x100 EXP SWAP1 DIV PUSH20 0xFFFFFFFFFFFFFFFFFFFFFFFFFFFFFFFFFFFFFFFF AND PUSH20 0xFFFFFFFFFFFFFFFFFFFFFFFFFFFFFFFFFFFFFFFF AND PUSH2 0x8FC DUP3 PUSH1 0x5 ADD SLOAD SWAP1 DUP2 ISZERO MUL SWAP1 PUSH1 0x40 MLOAD PUSH0 PUSH1 0x40 MLOAD DUP1 DUP4 SUB DUP2 DUP6 DUP9 DUP9 CALL SWAP4 POP POP POP POP ISZERO DUP1 ISZERO PUSH2 0x56A JUMPI RETURNDATASIZE PUSH0 PUSH0 RETURNDATACOPY RETURNDATASIZE PUSH0 REVERT JUMPDEST POP JUMPDEST CALLER DUP2 PUSH1 0x4 ADD PUSH1 0x1 PUSH2 0x100 EXP DUP2 SLOAD DUP2 PUSH20 0xFFFFFFFFFFFFFFFFFFFFFFFFFFFFFFFFFFFFFFFF MUL NOT AND SWAP1 DUP4 PUSH20 0xFFFFFFFFFFFFFFFFFFFFFFFFFFFFFFFFFFFFFFFF AND MUL OR SWAP1 SSTORE POP CALLVALUE DUP2 PUSH1 0x5 ADD DUP2 SWAP1 SSTORE POP POP POP JUMP JUMPDEST PUSH1 0x2 PUSH0 SWAP1 SLOAD SWAP1 PUSH2 0x100 EXP SWAP1 DIV PUSH20 0xFFFFFFFFFFFFFFFFFFFFFFFFFFFFFFFFFFFFFFFF AND PUSH20 0xFFFFFFFFFFFFFFFFFFFFFFFFFFFFFFFFFFFFFFFF AND CALLER PUSH20 0xFFFFFFFFFFFFFFFFFFFFFFFFFFFFFFFFFFFFFFFF AND EQ PUSH2 0x64B JUMPI PUSH1 0x40 MLOAD PUSH32 0x8C379A000000000000000000000000000000000000000000000000000000000 DUP2 MSTORE PUSH1 0x4 ADD PUSH2 0x642 SWAP1 PUSH2 0xD86 JUMP JUMPDEST PUSH1 0x40 MLOAD DUP1 SWAP2 SUB SWAP1 REVERT JUMPDEST PUSH2 0xEA60 DUP5 GT PUSH2 0x68F JUMPI PUSH1 0x40 MLOAD PUSH32 0x8C379A000000000000000000000000000000000000000000000000000000000 DUP2 MSTORE PUSH1 0x4 ADD PUSH2 0x686 SWAP1 PUSH2 0xDEE JUMP JUMPDEST PUSH1 0x40 MLOAD DUP1 SWAP2 SUB SWAP1 REVERT JUMPDEST PUSH0 DUP4 GT PUSH2 0x6D1 JUMPI PUSH1 0x40 MLOAD PUSH32 0x8C379A000000000000000000000000000000000000000000000000000000000 DUP2 MSTORE PUSH1 0x4 ADD PUSH2 0x6C8 SWAP1 PUSH2 0xE56 JUMP JUMPDEST PUSH1 0x40 MLOAD DUP1 SWAP2 SUB SWAP1 REVERT JUMPDEST PUSH1 0x40 MLOAD DUP1 PUSH2 0x120 ADD PUSH1 0x40 MSTORE DUP1 CALLER PUSH20 0xFFFFFFFFFFFFFFFFFFFFFFFFFFFFFFFFFFFFFFFF AND DUP2 MSTORE PUSH1 0x20 ADD TIMESTAMP DUP2 MSTORE PUSH1 0x20 ADD DUP6 DUP2 MSTORE PUSH1 0x20 ADD DUP5 DUP2 MSTORE PUSH1 0x20 ADD PUSH0 ISZERO ISZERO DUP2 MSTORE PUSH1 0x20 ADD PUSH0 PUSH20 0xFFFFFFFFFFFFFFFFFFFFFFFFFFFFFFFFFFFFFFFF AND DUP2 MSTORE PUSH1 0x20 ADD PUSH0 DUP2 MSTORE PUSH1 0x20 ADD DUP4 PUSH20 0xFFFFFFFFFFFFFFFFFFFFFFFFFFFFFFFFFFFFFFFF AND DUP2 MSTORE PUSH1 0x20 ADD DUP3 DUP2 MSTORE POP PUSH0 PUSH0 PUSH1 0x1 SLOAD DUP2 MSTORE PUSH1 0x20 ADD SWAP1 DUP2 MSTORE PUSH1 0x20 ADD PUSH0 KECCAK256 PUSH0 DUP3 ADD MLOAD DUP2 PUSH0 ADD PUSH0 PUSH2 0x100 EXP DUP2 SLOAD DUP2 PUSH20 0xFFFFFFFFFFFFFFFFFFFFFFFFFFFFFFFFFFFFFFFF MUL NOT AND SWAP1 DUP4 PUSH20 0xFFFFFFFFFFFFFFFFFFFFFFFFFFFFFFFFFFFFFFFF AND MUL OR SWAP1 SSTORE POP PUSH1 0x20 DUP3 ADD MLOAD DUP2 PUSH1 0x1 ADD SSTORE PUSH1 0x40 DUP3 ADD MLOAD DUP2 PUSH1 0x2 ADD SSTORE PUSH1 0x60 DUP3 ADD MLOAD DUP2 PUSH1 0x3 ADD SSTORE PUSH1 0x80 DUP3 ADD MLOAD DUP2 PUSH1 0x4 ADD PUSH0 PUSH2 0x100 EXP DUP2 SLOAD DUP2 PUSH1 0xFF MUL NOT AND SWAP1 DUP4 ISZERO ISZERO MUL OR SWAP1 SSTORE POP PUSH1 0xA0 DUP3 ADD MLOAD DUP2 PUSH1 0x4 ADD PUSH1 0x1 PUSH2 0x100 EXP DUP2 SLOAD DUP2 PUSH20 0xFFFFFFFFFFFFFFFFFFFFFFFFFFFFFFFFFFFFFFFF MUL NOT AND SWAP1 DUP4 PUSH20 0xFFFFFFFFFFFFFFFFFFFFFFFFFFFFFFFFFFFFFFFF AND MUL OR SWAP1 SSTORE POP PUSH1 0xC0 DUP3 ADD MLOAD DUP2 PUSH1 0x5 ADD SSTORE PUSH1 0xE0 DUP3 ADD MLOAD DUP2 PUSH1 0x6 ADD PUSH0 PUSH2 0x100 EXP DUP2 SLOAD DUP2 PUSH20 0xFFFFFFFFFFFFFFFFFFFFFFFFFFFFFFFFFFFFFFFF MUL NOT AND SWAP1 DUP4 PUSH20 0xFFFFFFFFFFFFFFFFFFFFFFFFFFFFFFFFFFFFFFFF AND MUL OR SWAP1 SSTORE POP PUSH2 0x100 DUP3 ADD MLOAD DUP2 PUSH1 0x7 ADD SSTORE SWAP1 POP POP PUSH1 0x1 PUSH0 DUP2 SLOAD DUP1 SWAP3 SWAP2 SWAP1 PUSH2 0x89F SWAP1 PUSH2 0xE74 JUMP JUMPDEST SWAP2 SWAP1 POP SSTORE POP POP POP POP POP JUMP JUMPDEST PUSH1 0x2 PUSH0 SWAP1 SLOAD SWAP1 PUSH2 0x100 EXP SWAP1 DIV PUSH20 0xFFFFFFFFFFFFFFFFFFFFFFFFFFFFFFFFFFFFFFFF AND DUP2 JUMP JUMPDEST PUSH1 0x1 SLOAD DUP2 JUMP JUMPDEST PUSH0 PUSH0 PUSH2 0x8DF PUSH2 0x8E8 JUMP JUMPDEST SWAP1 POP DUP1 SWAP2 POP POP SWAP1 JUMP JUMPDEST PUSH0 PUSH32 0xF0C57E16840DF040F15088DC2F81FE391C3923BEC73E23A9662EFC9C229C6A00 PUSH0 SHL SWAP1 POP SWAP1 JUMP JUMPDEST PUSH0 PUSH0 REVERT JUMPDEST PUSH0 DUP2 SWAP1 POP SWAP2 SWAP1 POP JUMP JUMPDEST PUSH2 0x927 DUP2 PUSH2 0x915 JUMP JUMPDEST DUP2 EQ PUSH2 0x931 JUMPI PUSH0 PUSH0 REVERT JUMPDEST POP JUMP JUMPDEST PUSH0 DUP2 CALLDATALOAD SWAP1 POP PUSH2 0x942 DUP2 PUSH2 0x91E JUMP JUMPDEST SWAP3 SWAP2 POP POP JUMP JUMPDEST PUSH0 PUSH1 0x20 DUP3 DUP5 SUB SLT ISZERO PUSH2 0x95D JUMPI PUSH2 0x95C PUSH2 0x911 JUMP JUMPDEST JUMPDEST PUSH0 PUSH2 0x96A DUP5 DUP3 DUP6 ADD PUSH2 0x934 JUMP JUMPDEST SWAP2 POP POP SWAP3 SWAP2 POP POP JUMP JUMPDEST PUSH0 PUSH20 0xFFFFFFFFFFFFFFFFFFFFFFFFFFFFFFFFFFFFFFFF DUP3 AND SWAP1 POP SWAP2 SWAP1 POP JUMP JUMPDEST PUSH0 PUSH2 0x99C DUP3 PUSH2 0x973 JUMP JUMPDEST SWAP1 POP SWAP2 SWAP1 POP JUMP JUMPDEST PUSH2 0x9AC DUP2 PUSH2 0x992 JUMP JUMPDEST DUP3 MSTORE POP POP JUMP JUMPDEST PUSH2 0x9BB DUP2 PUSH2 0x915 JUMP JUMPDEST DUP3 MSTORE POP POP JUMP JUMPDEST PUSH0 DUP2 ISZERO ISZERO SWAP1 POP SWAP2 SWAP1 POP JUMP JUMPDEST PUSH2 0x9D5 DUP2 PUSH2 0x9C1 JUMP JUMPDEST DUP3 MSTORE POP POP JUMP JUMPDEST PUSH0 PUSH2 0x120 DUP3 ADD SWAP1 POP PUSH2 0x9EF PUSH0 DUP4 ADD DUP13 PUSH2 0x9A3 JUMP JUMPDEST PUSH2 0x9FC PUSH1 0x20 DUP4 ADD DUP12 PUSH2 0x9B2 JUMP JUMPDEST PUSH2 0xA09 PUSH1 0x40 DUP4 ADD DUP11 PUSH2 0x9B2 JUMP JUMPDEST PUSH2 0xA16 PUSH1 0x60 DUP4 ADD DUP10 PUSH2 0x9B2 JUMP JUMPDEST PUSH2 0xA23 PUSH1 0x80 DUP4 ADD DUP9 PUSH2 0x9CC JUMP JUMPDEST PUSH2 0xA30 PUSH1 0xA0 DUP4 ADD DUP8 PUSH2 0x9A3 JUMP JUMPDEST PUSH2 0xA3D PUSH1 0xC0 DUP4 ADD DUP7 PUSH2 0x9B2 JUMP JUMPDEST PUSH2 0xA4A PUSH1 0xE0 DUP4 ADD DUP6 PUSH2 0x9A3 JUMP JUMPDEST PUSH2 0xA58 PUSH2 0x100 DUP4 ADD DUP5 PUSH2 0x9B2 JUMP JUMPDEST SWAP11 SWAP10 POP POP POP POP POP POP POP POP POP POP JUMP JUMPDEST PUSH2 0xA6F DUP2 PUSH2 0x992 JUMP JUMPDEST DUP2 EQ PUSH2 0xA79 JUMPI PUSH0 PUSH0 REVERT JUMPDEST POP JUMP JUMPDEST PUSH0 DUP2 CALLDATALOAD SWAP1 POP PUSH2 0xA8A DUP2 PUSH2 0xA66 JUMP JUMPDEST SWAP3 SWAP2 POP POP JUMP JUMPDEST PUSH0 PUSH0 PUSH0 PUSH0 PUSH1 0x80 DUP6 DUP8 SUB SLT ISZERO PUSH2 0xAA8 JUMPI PUSH2 0xAA7 PUSH2 0x911 JUMP JUMPDEST JUMPDEST PUSH0 PUSH2 0xAB5 DUP8 DUP3 DUP9 ADD PUSH2 0x934 JUMP JUMPDEST SWAP5 POP POP PUSH1 0x20 PUSH2 0xAC6 DUP8 DUP3 DUP9 ADD PUSH2 0x934 JUMP JUMPDEST SWAP4 POP POP PUSH1 0x40 PUSH2 0xAD7 DUP8 DUP3 DUP9 ADD PUSH2 0xA7C JUMP JUMPDEST SWAP3 POP POP PUSH1 0x60 PUSH2 0xAE8 DUP8 DUP3 DUP9 ADD PUSH2 0x934 JUMP JUMPDEST SWAP2 POP POP SWAP3 SWAP6 SWAP2 SWAP5 POP SWAP3 POP JUMP JUMPDEST PUSH0 PUSH1 0x20 DUP3 ADD SWAP1 POP PUSH2 0xB07 PUSH0 DUP4 ADD DUP5 PUSH2 0x9A3 JUMP JUMPDEST SWAP3 SWAP2 POP POP JUMP JUMPDEST PUSH0 PUSH1 0x20 DUP3 ADD SWAP1 POP PUSH2 0xB20 PUSH0 DUP4 ADD DUP5 PUSH2 0x9B2 JUMP JUMPDEST SWAP3 SWAP2 POP POP JUMP JUMPDEST PUSH0 DUP2 SWAP1 POP SWAP2 SWAP1 POP JUMP JUMPDEST PUSH0 PUSH8 0xFFFFFFFFFFFFFFFF DUP3 AND SWAP1 POP SWAP2 SWAP1 POP JUMP JUMPDEST PUSH0 DUP2 SWAP1 POP SWAP2 SWAP1 POP JUMP JUMPDEST PUSH0 PUSH2 0xB65 PUSH2 0xB60 PUSH2 0xB5B DUP5 PUSH2 0xB26 JUMP JUMPDEST PUSH2 0xB42 JUMP JUMPDEST PUSH2 0xB2F JUMP JUMPDEST SWAP1 POP SWAP2 SWAP1 POP JUMP JUMPDEST PUSH2 0xB75 DUP2 PUSH2 0xB4B JUMP JUMPDEST DUP3 MSTORE POP POP JUMP JUMPDEST PUSH0 PUSH1 0x20 DUP3 ADD SWAP1 POP PUSH2 0xB8E PUSH0 DUP4 ADD DUP5 PUSH2 0xB6C JUMP JUMPDEST SWAP3 SWAP2 POP POP JUMP JUMPDEST PUSH32 0x4E487B7100000000000000000000000000000000000000000000000000000000 PUSH0 MSTORE PUSH1 0x11 PUSH1 0x4 MSTORE PUSH1 0x24 PUSH0 REVERT JUMPDEST PUSH0 PUSH2 0xBCB DUP3 PUSH2 0x915 JUMP JUMPDEST SWAP2 POP PUSH2 0xBD6 DUP4 PUSH2 0x915 JUMP JUMPDEST SWAP3 POP DUP3 DUP3 ADD SWAP1 POP DUP1 DUP3 GT ISZERO PUSH2 0xBEE JUMPI PUSH2 0xBED PUSH2 0xB94 JUMP JUMPDEST JUMPDEST SWAP3 SWAP2 POP POP JUMP JUMPDEST PUSH0 DUP3 DUP3 MSTORE PUSH1 0x20 DUP3 ADD SWAP1 POP SWAP3 SWAP2 POP POP JUMP JUMPDEST PUSH32 0x61756374696F6E20697320656E64656400000000000000000000000000000000 PUSH0 DUP3 ADD MSTORE POP JUMP JUMPDEST PUSH0 PUSH2 0xC38 PUSH1 0x10 DUP4 PUSH2 0xBF4 JUMP JUMPDEST SWAP2 POP PUSH2 0xC43 DUP3 PUSH2 0xC04 JUMP JUMPDEST PUSH1 0x20 DUP3 ADD SWAP1 POP SWAP2 SWAP1 POP JUMP JUMPDEST PUSH0 PUSH1 0x20 DUP3 ADD SWAP1 POP DUP2 DUP2 SUB PUSH0 DUP4 ADD MSTORE PUSH2 0xC65 DUP2 PUSH2 0xC2C JUMP JUMPDEST SWAP1 POP SWAP2 SWAP1 POP JUMP JUMPDEST PUSH32 0x7072696365206D757374206265203E2073746172745072696365000000000000 PUSH0 DUP3 ADD MSTORE POP JUMP JUMPDEST PUSH0 PUSH2 0xCA0 PUSH1 0x1A DUP4 PUSH2 0xBF4 JUMP JUMPDEST SWAP2 POP PUSH2 0xCAB DUP3 PUSH2 0xC6C JUMP JUMPDEST PUSH1 0x20 DUP3 ADD SWAP1 POP SWAP2 SWAP1 POP JUMP JUMPDEST PUSH0 PUSH1 0x20 DUP3 ADD SWAP1 POP DUP2 DUP2 SUB PUSH0 DUP4 ADD MSTORE PUSH2 0xCCD DUP2 PUSH2 0xC94 JUMP JUMPDEST SWAP1 POP SWAP2 SWAP1 POP JUMP JUMPDEST PUSH32 0x7072696365206D757374206265203E2068696768657374426964000000000000 PUSH0 DUP3 ADD MSTORE POP JUMP JUMPDEST PUSH0 PUSH2 0xD08 PUSH1 0x1A DUP4 PUSH2 0xBF4 JUMP JUMPDEST SWAP2 POP PUSH2 0xD13 DUP3 PUSH2 0xCD4 JUMP JUMPDEST PUSH1 0x20 DUP3 ADD SWAP1 POP SWAP2 SWAP1 POP JUMP JUMPDEST PUSH0 PUSH1 0x20 DUP3 ADD SWAP1 POP DUP2 DUP2 SUB PUSH0 DUP4 ADD MSTORE PUSH2 0xD35 DUP2 PUSH2 0xCFC JUMP JUMPDEST SWAP1 POP SWAP2 SWAP1 POP JUMP JUMPDEST PUSH32 0x6F6E6C792061646D696E2063616E206372656174652061756374696F6E730000 PUSH0 DUP3 ADD MSTORE POP JUMP JUMPDEST PUSH0 PUSH2 0xD70 PUSH1 0x1E DUP4 PUSH2 0xBF4 JUMP JUMPDEST SWAP2 POP PUSH2 0xD7B DUP3 PUSH2 0xD3C JUMP JUMPDEST PUSH1 0x20 DUP3 ADD SWAP1 POP SWAP2 SWAP1 POP JUMP JUMPDEST PUSH0 PUSH1 0x20 DUP3 ADD SWAP1 POP DUP2 DUP2 SUB PUSH0 DUP4 ADD MSTORE PUSH2 0xD9D DUP2 PUSH2 0xD64 JUMP JUMPDEST SWAP1 POP SWAP2 SWAP1 POP JUMP JUMPDEST PUSH32 0x6475726174696F6E206D757374206265203E2036300000000000000000000000 PUSH0 DUP3 ADD MSTORE POP JUMP JUMPDEST PUSH0 PUSH2 0xDD8 PUSH1 0x15 DUP4 PUSH2 0xBF4 JUMP JUMPDEST SWAP2 POP PUSH2 0xDE3 DUP3 PUSH2 0xDA4 JUMP JUMPDEST PUSH1 0x20 DUP3 ADD SWAP1 POP SWAP2 SWAP1 POP JUMP JUMPDEST PUSH0 PUSH1 0x20 DUP3 ADD SWAP1 POP DUP2 DUP2 SUB PUSH0 DUP4 ADD MSTORE PUSH2 0xE05 DUP2 PUSH2 0xDCC JUMP JUMPDEST SWAP1 POP SWAP2 SWAP1 POP JUMP JUMPDEST PUSH32 0x73746172745072696365206D757374206265203E203000000000000000000000 PUSH0 DUP3 ADD MSTORE POP JUMP JUMPDEST PUSH0 PUSH2 0xE40 PUSH1 0x16 DUP4 PUSH2 0xBF4 JUMP JUMPDEST SWAP2 POP PUSH2 0xE4B DUP3 PUSH2 0xE0C JUMP JUMPDEST PUSH1 0x20 DUP3 ADD SWAP1 POP SWAP2 SWAP1 POP JUMP JUMPDEST PUSH0 PUSH1 0x20 DUP3 ADD SWAP1 POP DUP2 DUP2 SUB PUSH0 DUP4 ADD MSTORE PUSH2 0xE6D DUP2 PUSH2 0xE34 JUMP JUMPDEST SWAP1 POP SWAP2 SWAP1 POP JUMP JUMPDEST PUSH0 PUSH2 0xE7E DUP3 PUSH2 0x915 JUMP JUMPDEST SWAP2 POP PUSH32 0xFFFFFFFFFFFFFFFFFFFFFFFFFFFFFFFFFFFFFFFFFFFFFFFFFFFFFFFFFFFFFFFF DUP3 SUB PUSH2 0xEB0 JUMPI PUSH2 0xEAF PUSH2 0xB94 JUMP JUMPDEST JUMPDEST PUSH1 0x1 DUP3 ADD SWAP1 POP SWAP2 SWAP1 POP JUMP INVALID LOG2 PUSH5 0x6970667358 0x22 SLT KECCAK256 0xC4 PUSH20 0x9BE058B374B49FDA1A097C3847DFDB66D89BD256 SWAP15 SGT LOG4 MSIZE CREATE JUMPDEST PUSH13 0x2F46B964736F6C634300081E00 CALLER "
				},
				"gasEstimates": {
					"creation": {
						"codeDepositCost": "765000",
						"executionCost": "797",
						"totalCost": "765797"
					},
					"external": {
						"admin()": "2574",
						"auctions(uint256)": "infinite",
						"createAuction(uint256,uint256,address,uint256)": "infinite",
						"initialize()": "105895",
						"nextAuctionId()": "2513",
						"placeBid(uint256)": "infinite"
					}
				},
				"methodIdentifiers": {
					"admin()": "f851a440",
					"auctions(uint256)": "571a26a0",
					"createAuction(uint256,uint256,address,uint256)": "b1cb48ef",
					"initialize()": "8129fc1c",
					"nextAuctionId()": "fc528482",
					"placeBid(uint256)": "9979ef45"
				}
			},
			"storageLayout": {
				"storage": [
					{
						"astId": 296,
						"contract": "task/contracts/task3/NftAuction.sol:NftAuction",
						"label": "auctions",
						"offset": 0,
						"slot": "0",
						"type": "t_mapping(t_uint256,t_struct(Auction)291_storage)"
					},
					{
						"astId": 298,
						"contract": "task/contracts/task3/NftAuction.sol:NftAuction",
						"label": "nextAuctionId",
						"offset": 0,
						"slot": "1",
						"type": "t_uint256"
					},
					{
						"astId": 300,
						"contract": "task/contracts/task3/NftAuction.sol:NftAuction",
						"label": "admin",
						"offset": 0,
						"slot": "2",
						"type": "t_address"
					}
				],
				"types": {
					"t_address": {
						"encoding": "inplace",
						"label": "address",
						"numberOfBytes": "20"
					},
					"t_bool": {
						"encoding": "inplace",
						"label": "bool",
						"numberOfBytes": "1"
					},
					"t_mapping(t_uint256,t_struct(Auction)291_storage)": {
						"encoding": "mapping",
						"key": "t_uint256",
						"label": "mapping(uint256 => struct NftAuction.Auction)",
						"numberOfBytes": "32",
						"value": "t_struct(Auction)291_storage"
					},
					"t_struct(Auction)291_storage": {
						"encoding": "inplace",
						"label": "struct NftAuction.Auction",
						"members": [
							{
								"astId": 274,
								"contract": "task/contracts/task3/NftAuction.sol:NftAuction",
								"label": "seller",
								"offset": 0,
								"slot": "0",
								"type": "t_address"
							},
							{
								"astId": 276,
								"contract": "task/contracts/task3/NftAuction.sol:NftAuction",
								"label": "startTime",
								"offset": 0,
								"slot": "1",
								"type": "t_uint256"
							},
							{
								"astId": 278,
								"contract": "task/contracts/task3/NftAuction.sol:NftAuction",
								"label": "duration",
								"offset": 0,
								"slot": "2",
								"type": "t_uint256"
							},
							{
								"astId": 280,
								"contract": "task/contracts/task3/NftAuction.sol:NftAuction",
								"label": "startPrice",
								"offset": 0,
								"slot": "3",
								"type": "t_uint256"
							},
							{
								"astId": 282,
								"contract": "task/contracts/task3/NftAuction.sol:NftAuction",
								"label": "ended",
								"offset": 0,
								"slot": "4",
								"type": "t_bool"
							},
							{
								"astId": 284,
								"contract": "task/contracts/task3/NftAuction.sol:NftAuction",
								"label": "highestBidder",
								"offset": 1,
								"slot": "4",
								"type": "t_address"
							},
							{
								"astId": 286,
								"contract": "task/contracts/task3/NftAuction.sol:NftAuction",
								"label": "highestBid",
								"offset": 0,
								"slot": "5",
								"type": "t_uint256"
							},
							{
								"astId": 288,
								"contract": "task/contracts/task3/NftAuction.sol:NftAuction",
								"label": "nftContract",
								"offset": 0,
								"slot": "6",
								"type": "t_address"
							},
							{
								"astId": 290,
								"contract": "task/contracts/task3/NftAuction.sol:NftAuction",
								"label": "nftId",
								"offset": 0,
								"slot": "7",
								"type": "t_uint256"
							}
						],
						"numberOfBytes": "256"
					},
					"t_uint256": {
						"encoding": "inplace",
						"label": "uint256",
						"numberOfBytes": "32"
					}
				}
			},
			"userdoc": {
				"kind": "user",
				"methods": {},
				"version": 1
			}
		}
	}
}