{
	"task/contracts/task3/NftAuctionV2.sol": {
		"NftAuctionV2": {
			"abi": [
				{
					"inputs": [],
					"name": "InvalidInitialization",
					"type": "error"
				},
				{
					"inputs": [],
					"name": "NotInitializing",
					"type": "error"
				},
				{
					"anonymous": false,
					"inputs": [
						{
							"indexed": false,
							"internalType": "uint64",
							"name": "version",
							"type": "uint64"
						}
					],
					"name": "Initialized",
					"type": "event"
				},
				{
					"inputs": [],
					"name": "admin",
					"outputs": [
						{
							"internalType": "address",
							"name": "",
							"type": "address"
						}
					],
					"stateMutability": "view",
					"type": "function"
				},
				{
					"inputs": [
						{
							"internalType": "uint256",
							"name": "",
							"type": "uint256"
						}
					],
					"name": "auctions",
					"outputs": [
						{
							"internalType": "address",
							"name": "seller",
							"type": "address"
						},
						{
							"internalType": "uint256",
							"name": "startTime",
							"type": "uint256"
						},
						{
							"internalType": "uint256",
							"name": "duration",
							"type": "uint256"
						},
						{
							"internalType": "uint256",
							"name": "startPrice",
							"type": "uint256"
						},
						{
							"internalType": "bool",
							"name": "ended",
							"type": "bool"
						},
						{
							"internalType": "address",
							"name": "highestBidder",
							"type": "address"
						},
						{
							"internalType": "uint256",
							"name": "highestBid",
							"type": "uint256"
						},
						{
							"internalType": "address",
							"name": "nftContract",
							"type": "address"
						},
						{
							"internalType": "uint256",
							"name": "nftId",
							"type": "uint256"
						}
					],
					"stateMutability": "view",
					"type": "function"
				},
				{
					"inputs": [
						{
							"internalType": "uint256",
							"name": "_duration",
							"type": "uint256"
						},
						{
							"internalType": "uint256",
							"name": "_startPrice",
							"type": "uint256"
						},
						{
							"internalType": "address",
							"name": "_nftAddress",
							"type": "address"
						},
						{
							"internalType": "uint256",
							"name": "nftId",
							"type": "uint256"
						}
					],
					"name": "createAuction",
					"outputs": [],
					"stateMutability": "nonpayable",
					"type": "function"
				},
				{
					"inputs": [],
					"name": "initialize",
					"outputs": [],
					"stateMutability": "nonpayable",
					"type": "function"
				},
				{
					"inputs": [],
					"name": "nextAuctionId",
					"outputs": [
						{
							"internalType": "uint256",
							"name": "",
							"type": "uint256"
						}
					],
					"stateMutability": "view",
					"type": "function"
				},
				{
					"inputs": [
						{
							"internalType": "uint256",
							"name": "_auctionId",
							"type": "uint256"
						}
					],
					"name": "placeBid",
					"outputs": [],
					"stateMutability": "payable",
					"type": "function"
				},
				{
					"inputs": [],
					"name": "testHello",
					"outputs": [
						{
							"internalType": "string",
							"name": "",
							"type": "string"
						}
					],
					"stateMutability": "pure",
					"type": "function"
				}
			],
			"devdoc": {
				"errors": {
					"InvalidInitialization()": [
						{
							"details": "The contract is already initialized."
						}
					],
					"NotInitializing()": [
						{
							"details": "The contract is not initializing."
						}
					]
				},
				"events": {
					"Initialized(uint64)": {
						"details": "Triggered when the contract has been initialized or reinitialized."
					}
				},
				"kind": "dev",
				"methods": {},
				"version": 1
			},
			"evm": {
				"assembly": "    /* \"task/contracts/task3/NftAuctionV2.sol\":109:248  contract NftAuctionV2 is NftAuction {... */\n  mstore(0x40, 0x80)\n  callvalue\n  dup1\n  iszero\n  tag_1\n  jumpi\n  revert(0x00, 0x00)\ntag_1:\n  pop\n  dataSize(sub_0)\n  dup1\n  dataOffset(sub_0)\n  0x00\n  codecopy\n  0x00\n  return\nstop\n\nsub_0: assembly {\n        /* \"task/contracts/task3/NftAuctionV2.sol\":109:248  contract NftAuctionV2 is NftAuction {... */\n      mstore(0x40, 0x80)\n      jumpi(tag_1, lt(calldatasize, 0x04))\n      shr(0xe0, calldataload(0x00))\n      dup1\n      0xb1cb48ef\n      gt\n      tag_9\n      jumpi\n      dup1\n      0xb1cb48ef\n      eq\n      tag_5\n      jumpi\n      dup1\n      0xc97c6353\n      eq\n      tag_6\n      jumpi\n      dup1\n      0xf851a440\n      eq\n      tag_7\n      jumpi\n      dup1\n      0xfc528482\n      eq\n      tag_8\n      jumpi\n      jump(tag_1)\n    tag_9:\n      dup1\n      0x571a26a0\n      eq\n      tag_2\n      jumpi\n      dup1\n      0x8129fc1c\n      eq\n      tag_3\n      jumpi\n      dup1\n      0x9979ef45\n      eq\n      tag_4\n      jumpi\n    tag_1:\n      revert(0x00, 0x00)\n        /* \"task/contracts/task3/NftAuction.sol\":710:753  mapping(uint256 => Auction) public auctions */\n    tag_2:\n      callvalue\n      dup1\n      iszero\n      tag_10\n      jumpi\n      revert(0x00, 0x00)\n    tag_10:\n      pop\n      tag_11\n      0x04\n      dup1\n      calldatasize\n      sub\n      dup2\n      add\n      swap1\n      tag_12\n      swap2\n      swap1\n      tag_13\n      jump\t// in\n    tag_12:\n      tag_14\n      jump\t// in\n    tag_11:\n      mload(0x40)\n      tag_15\n      swap10\n      swap9\n      swap8\n      swap7\n      swap6\n      swap5\n      swap4\n      swap3\n      swap2\n      swap1\n      tag_16\n      jump\t// in\n    tag_15:\n      mload(0x40)\n      dup1\n      swap2\n      sub\n      swap1\n      return\n        /* \"task/contracts/task3/NftAuction.sol\":877:955  function initialize() public initializer {... */\n    tag_3:\n      callvalue\n      dup1\n      iszero\n      tag_17\n      jumpi\n      revert(0x00, 0x00)\n    tag_17:\n      pop\n      tag_18\n      tag_19\n      jump\t// in\n    tag_18:\n      stop\n        /* \"task/contracts/task3/NftAuction.sol\":1856:2708  function placeBid(uint256 _auctionId) external payable {... */\n    tag_4:\n      tag_20\n      0x04\n      dup1\n      calldatasize\n      sub\n      dup2\n      add\n      swap1\n      tag_21\n      swap2\n      swap1\n      tag_13\n      jump\t// in\n    tag_21:\n      tag_22\n      jump\t// in\n    tag_20:\n      stop\n        /* \"task/contracts/task3/NftAuction.sol\":984:1821  function createAuction(... */\n    tag_5:\n      callvalue\n      dup1\n      iszero\n      tag_23\n      jumpi\n      revert(0x00, 0x00)\n    tag_23:\n      pop\n      tag_24\n      0x04\n      dup1\n      calldatasize\n      sub\n      dup2\n      add\n      swap1\n      tag_25\n      swap2\n      swap1\n      tag_26\n      jump\t// in\n    tag_25:\n      tag_27\n      jump\t// in\n    tag_24:\n      stop\n        /* \"task/contracts/task3/NftAuctionV2.sol\":152:245  function testHello() public pure returns (string memory) {... */\n    tag_6:\n      callvalue\n      dup1\n      iszero\n      tag_28\n      jumpi\n      revert(0x00, 0x00)\n    tag_28:\n      pop\n      tag_29\n      tag_30\n      jump\t// in\n    tag_29:\n      mload(0x40)\n      tag_31\n      swap2\n      swap1\n      tag_32\n      jump\t// in\n    tag_31:\n      mload(0x40)\n      dup1\n      swap2\n      sub\n      swap1\n      return\n        /* \"task/contracts/task3/NftAuction.sol\":848:868  address public admin */\n    tag_7:\n      callvalue\n      dup1\n      iszero\n      tag_33\n      jumpi\n      revert(0x00, 0x00)\n    tag_33:\n      pop\n      tag_34\n      tag_35\n      jump\t// in\n    tag_34:\n      mload(0x40)\n      tag_36\n      swap2\n      swap1\n      tag_37\n      jump\t// in\n    tag_36:\n      mload(0x40)\n      dup1\n      swap2\n      sub\n      swap1\n      return\n        /* \"task/contracts/task3/NftAuction.sol\":789:817  uint256 public nextAuctionId */\n    tag_8:\n      callvalue\n      dup1\n      iszero\n      tag_38\n      jumpi\n      revert(0x00, 0x00)\n    tag_38:\n      pop\n      tag_39\n      tag_40\n      jump\t// in\n    tag_39:\n      mload(0x40)\n      tag_41\n      swap2\n      swap1\n      tag_42\n      jump\t// in\n    tag_41:\n      mload(0x40)\n      dup1\n      swap2\n      sub\n      swap1\n      return\n        /* \"task/contracts/task3/NftAuction.sol\":710:753  mapping(uint256 => Auction) public auctions */\n    tag_14:\n      mstore(0x20, 0x00)\n      dup1\n      0x00\n      mstore\n      keccak256(0x00, 0x40)\n      0x00\n      swap2\n      pop\n      swap1\n      pop\n      dup1\n      0x00\n      add\n      0x00\n      swap1\n      sload\n      swap1\n      0x0100\n      exp\n      swap1\n      div\n      0xffffffffffffffffffffffffffffffffffffffff\n      and\n      swap1\n      dup1\n      0x01\n      add\n      sload\n      swap1\n      dup1\n      0x02\n      add\n      sload\n      swap1\n      dup1\n      0x03\n      add\n      sload\n      swap1\n      dup1\n      0x04\n      add\n      0x00\n      swap1\n      sload\n      swap1\n      0x0100\n      exp\n      swap1\n      div\n      0xff\n      and\n      swap1\n      dup1\n      0x04\n      add\n      0x01\n      swap1\n      sload\n      swap1\n      0x0100\n      exp\n      swap1\n      div\n      0xffffffffffffffffffffffffffffffffffffffff\n      and\n      swap1\n      dup1\n      0x05\n      add\n      sload\n      swap1\n      dup1\n      0x06\n      add\n      0x00\n      swap1\n      sload\n      swap1\n      0x0100\n      exp\n      swap1\n      div\n      0xffffffffffffffffffffffffffffffffffffffff\n      and\n      swap1\n      dup1\n      0x07\n      add\n      sload\n      swap1\n      pop\n      dup10\n      jump\t// out\n        /* \"task/contracts/task3/NftAuction.sol\":877:955  function initialize() public initializer {... */\n    tag_19:\n        /* \"@openzeppelin/contracts-upgradeable/proxy/utils/Initializable.sol\":4158:4188  InitializableStorage storage $ */\n      0x00\n        /* \"@openzeppelin/contracts-upgradeable/proxy/utils/Initializable.sol\":4191:4217  _getInitializableStorage() */\n      tag_44\n        /* \"@openzeppelin/contracts-upgradeable/proxy/utils/Initializable.sol\":4191:4215  _getInitializableStorage */\n      tag_45\n        /* \"@openzeppelin/contracts-upgradeable/proxy/utils/Initializable.sol\":4191:4217  _getInitializableStorage() */\n      jump\t// in\n    tag_44:\n        /* \"@openzeppelin/contracts-upgradeable/proxy/utils/Initializable.sol\":4158:4217  InitializableStorage storage $ = _getInitializableStorage() */\n      swap1\n      pop\n        /* \"@openzeppelin/contracts-upgradeable/proxy/utils/Initializable.sol\":4279:4298  bool isTopLevelCall */\n      0x00\n        /* \"@openzeppelin/contracts-upgradeable/proxy/utils/Initializable.sol\":4302:4303  $ */\n      dup2\n        /* \"@openzeppelin/contracts-upgradeable/proxy/utils/Initializable.sol\":4302:4317  $._initializing */\n      0x00\n      add\n      0x08\n      swap1\n      sload\n      swap1\n      0x0100\n      exp\n      swap1\n      div\n      0xff\n      and\n        /* \"@openzeppelin/contracts-upgradeable/proxy/utils/Initializable.sol\":4301:4317  !$._initializing */\n      iszero\n        /* \"@openzeppelin/contracts-upgradeable/proxy/utils/Initializable.sol\":4279:4317  bool isTopLevelCall = !$._initializing */\n      swap1\n      pop\n        /* \"@openzeppelin/contracts-upgradeable/proxy/utils/Initializable.sol\":4327:4345  uint64 initialized */\n      0x00\n        /* \"@openzeppelin/contracts-upgradeable/proxy/utils/Initializable.sol\":4348:4349  $ */\n      dup3\n        /* \"@openzeppelin/contracts-upgradeable/proxy/utils/Initializable.sol\":4348:4362  $._initialized */\n      0x00\n      add\n      0x00\n      swap1\n      sload\n      swap1\n      0x0100\n      exp\n      swap1\n      div\n      0xffffffffffffffff\n      and\n        /* \"@openzeppelin/contracts-upgradeable/proxy/utils/Initializable.sol\":4327:4362  uint64 initialized = $._initialized */\n      swap1\n      pop\n        /* \"@openzeppelin/contracts-upgradeable/proxy/utils/Initializable.sol\":4704:4721  bool initialSetup */\n      0x00\n        /* \"@openzeppelin/contracts-upgradeable/proxy/utils/Initializable.sol\":4739:4740  0 */\n      0x00\n        /* \"@openzeppelin/contracts-upgradeable/proxy/utils/Initializable.sol\":4724:4735  initialized */\n      dup3\n        /* \"@openzeppelin/contracts-upgradeable/proxy/utils/Initializable.sol\":4724:4740  initialized == 0 */\n      0xffffffffffffffff\n      and\n      eq\n        /* \"@openzeppelin/contracts-upgradeable/proxy/utils/Initializable.sol\":4724:4758  initialized == 0 && isTopLevelCall */\n      dup1\n      iszero\n      tag_46\n      jumpi\n      pop\n        /* \"@openzeppelin/contracts-upgradeable/proxy/utils/Initializable.sol\":4744:4758  isTopLevelCall */\n      dup3\n        /* \"@openzeppelin/contracts-upgradeable/proxy/utils/Initializable.sol\":4724:4758  initialized == 0 && isTopLevelCall */\n    tag_46:\n        /* \"@openzeppelin/contracts-upgradeable/proxy/utils/Initializable.sol\":4704:4758  bool initialSetup = initialized == 0 && isTopLevelCall */\n      swap1\n      pop\n        /* \"@openzeppelin/contracts-upgradeable/proxy/utils/Initializable.sol\":4768:4785  bool construction */\n      0x00\n        /* \"@openzeppelin/contracts-upgradeable/proxy/utils/Initializable.sol\":4803:4804  1 */\n      0x01\n        /* \"@openzeppelin/contracts-upgradeable/proxy/utils/Initializable.sol\":4788:4799  initialized */\n      dup4\n        /* \"@openzeppelin/contracts-upgradeable/proxy/utils/Initializable.sol\":4788:4804  initialized == 1 */\n      0xffffffffffffffff\n      and\n      eq\n        /* \"@openzeppelin/contracts-upgradeable/proxy/utils/Initializable.sol\":4788:4838  initialized == 1 && address(this).code.length == 0 */\n      dup1\n      iszero\n      tag_47\n      jumpi\n      pop\n        /* \"@openzeppelin/contracts-upgradeable/proxy/utils/Initializable.sol\":4837:4838  0 */\n      0x00\n        /* \"@openzeppelin/contracts-upgradeable/proxy/utils/Initializable.sol\":4816:4820  this */\n      address\n        /* \"@openzeppelin/contracts-upgradeable/proxy/utils/Initializable.sol\":4808:4833  address(this).code.length */\n      0xffffffffffffffffffffffffffffffffffffffff\n      and\n      extcodesize\n        /* \"@openzeppelin/contracts-upgradeable/proxy/utils/Initializable.sol\":4808:4838  address(this).code.length == 0 */\n      eq\n        /* \"@openzeppelin/contracts-upgradeable/proxy/utils/Initializable.sol\":4788:4838  initialized == 1 && address(this).code.length == 0 */\n    tag_47:\n        /* \"@openzeppelin/contracts-upgradeable/proxy/utils/Initializable.sol\":4768:4838  bool construction = initialized == 1 && address(this).code.length == 0 */\n      swap1\n      pop\n        /* \"@openzeppelin/contracts-upgradeable/proxy/utils/Initializable.sol\":4854:4866  initialSetup */\n      dup2\n        /* \"@openzeppelin/contracts-upgradeable/proxy/utils/Initializable.sol\":4853:4866  !initialSetup */\n      iszero\n        /* \"@openzeppelin/contracts-upgradeable/proxy/utils/Initializable.sol\":4853:4883  !initialSetup && !construction */\n      dup1\n      iszero\n      tag_48\n      jumpi\n      pop\n        /* \"@openzeppelin/contracts-upgradeable/proxy/utils/Initializable.sol\":4871:4883  construction */\n      dup1\n        /* \"@openzeppelin/contracts-upgradeable/proxy/utils/Initializable.sol\":4870:4883  !construction */\n      iszero\n        /* \"@openzeppelin/contracts-upgradeable/proxy/utils/Initializable.sol\":4853:4883  !initialSetup && !construction */\n    tag_48:\n        /* \"@openzeppelin/contracts-upgradeable/proxy/utils/Initializable.sol\":4849:4940  if (!initialSetup && !construction) {... */\n      iszero\n      tag_49\n      jumpi\n        /* \"@openzeppelin/contracts-upgradeable/proxy/utils/Initializable.sol\":4906:4929  InvalidInitialization() */\n      mload(0x40)\n      0xf92ee8a900000000000000000000000000000000000000000000000000000000\n      dup2\n      mstore\n      0x04\n      add\n      mload(0x40)\n      dup1\n      swap2\n      sub\n      swap1\n      revert\n        /* \"@openzeppelin/contracts-upgradeable/proxy/utils/Initializable.sol\":4849:4940  if (!initialSetup && !construction) {... */\n    tag_49:\n        /* \"@openzeppelin/contracts-upgradeable/proxy/utils/Initializable.sol\":4966:4967  1 */\n      0x01\n        /* \"@openzeppelin/contracts-upgradeable/proxy/utils/Initializable.sol\":4949:4950  $ */\n      dup6\n        /* \"@openzeppelin/contracts-upgradeable/proxy/utils/Initializable.sol\":4949:4963  $._initialized */\n      0x00\n      add\n      0x00\n        /* \"@openzeppelin/contracts-upgradeable/proxy/utils/Initializable.sol\":4949:4967  $._initialized = 1 */\n      0x0100\n      exp\n      dup2\n      sload\n      dup2\n      0xffffffffffffffff\n      mul\n      not\n      and\n      swap1\n      dup4\n      0xffffffffffffffff\n      and\n      mul\n      or\n      swap1\n      sstore\n      pop\n        /* \"@openzeppelin/contracts-upgradeable/proxy/utils/Initializable.sol\":4981:4995  isTopLevelCall */\n      dup4\n        /* \"@openzeppelin/contracts-upgradeable/proxy/utils/Initializable.sol\":4977:5044  if (isTopLevelCall) {... */\n      iszero\n      tag_50\n      jumpi\n        /* \"@openzeppelin/contracts-upgradeable/proxy/utils/Initializable.sol\":5029:5033  true */\n      0x01\n        /* \"@openzeppelin/contracts-upgradeable/proxy/utils/Initializable.sol\":5011:5012  $ */\n      dup6\n        /* \"@openzeppelin/contracts-upgradeable/proxy/utils/Initializable.sol\":5011:5026  $._initializing */\n      0x00\n      add\n      0x08\n        /* \"@openzeppelin/contracts-upgradeable/proxy/utils/Initializable.sol\":5011:5033  $._initializing = true */\n      0x0100\n      exp\n      dup2\n      sload\n      dup2\n      0xff\n      mul\n      not\n      and\n      swap1\n      dup4\n      iszero\n      iszero\n      mul\n      or\n      swap1\n      sstore\n      pop\n        /* \"@openzeppelin/contracts-upgradeable/proxy/utils/Initializable.sol\":4977:5044  if (isTopLevelCall) {... */\n    tag_50:\n        /* \"task/contracts/task3/NftAuction.sol\":937:947  msg.sender */\n      caller\n        /* \"task/contracts/task3/NftAuction.sol\":929:934  admin */\n      0x02\n      0x00\n        /* \"task/contracts/task3/NftAuction.sol\":929:947  admin = msg.sender */\n      0x0100\n      exp\n      dup2\n      sload\n      dup2\n      0xffffffffffffffffffffffffffffffffffffffff\n      mul\n      not\n      and\n      swap1\n      dup4\n      0xffffffffffffffffffffffffffffffffffffffff\n      and\n      mul\n      or\n      swap1\n      sstore\n      pop\n        /* \"@openzeppelin/contracts-upgradeable/proxy/utils/Initializable.sol\":5068:5082  isTopLevelCall */\n      dup4\n        /* \"@openzeppelin/contracts-upgradeable/proxy/utils/Initializable.sol\":5064:5165  if (isTopLevelCall) {... */\n      iszero\n      tag_52\n      jumpi\n        /* \"@openzeppelin/contracts-upgradeable/proxy/utils/Initializable.sol\":5116:5121  false */\n      0x00\n        /* \"@openzeppelin/contracts-upgradeable/proxy/utils/Initializable.sol\":5098:5099  $ */\n      dup6\n        /* \"@openzeppelin/contracts-upgradeable/proxy/utils/Initializable.sol\":5098:5113  $._initializing */\n      0x00\n      add\n      0x08\n        /* \"@openzeppelin/contracts-upgradeable/proxy/utils/Initializable.sol\":5098:5121  $._initializing = false */\n      0x0100\n      exp\n      dup2\n      sload\n      dup2\n      0xff\n      mul\n      not\n      and\n      swap1\n      dup4\n      iszero\n      iszero\n      mul\n      or\n      swap1\n      sstore\n      pop\n        /* \"@openzeppelin/contracts-upgradeable/proxy/utils/Initializable.sol\":5140:5154  Initialized(1) */\n      0xc7f505b2f371ae2175ee4913f4499e1f2633a7b5936321eed1cdaeb6115181d2\n        /* \"@openzeppelin/contracts-upgradeable/proxy/utils/Initializable.sol\":5152:5153  1 */\n      0x01\n        /* \"@openzeppelin/contracts-upgradeable/proxy/utils/Initializable.sol\":5140:5154  Initialized(1) */\n      mload(0x40)\n      tag_53\n      swap2\n      swap1\n      tag_54\n      jump\t// in\n    tag_53:\n      mload(0x40)\n      dup1\n      swap2\n      sub\n      swap1\n      log1\n        /* \"@openzeppelin/contracts-upgradeable/proxy/utils/Initializable.sol\":5064:5165  if (isTopLevelCall) {... */\n    tag_52:\n        /* \"@openzeppelin/contracts-upgradeable/proxy/utils/Initializable.sol\":4092:5171  {... */\n      pop\n      pop\n      pop\n      pop\n      pop\n        /* \"task/contracts/task3/NftAuction.sol\":877:955  function initialize() public initializer {... */\n      jump\t// out\n        /* \"task/contracts/task3/NftAuction.sol\":1856:2708  function placeBid(uint256 _auctionId) external payable {... */\n    tag_22:\n        /* \"task/contracts/task3/NftAuction.sol\":1922:1945  Auction storage auction */\n      0x00\n        /* \"task/contracts/task3/NftAuction.sol\":1948:1956  auctions */\n      0x00\n        /* \"task/contracts/task3/NftAuction.sol\":1948:1968  auctions[_auctionId] */\n      0x00\n        /* \"task/contracts/task3/NftAuction.sol\":1957:1967  _auctionId */\n      dup4\n        /* \"task/contracts/task3/NftAuction.sol\":1948:1968  auctions[_auctionId] */\n      dup2\n      mstore\n      0x20\n      add\n      swap1\n      dup2\n      mstore\n      0x20\n      add\n      0x00\n      keccak256\n        /* \"task/contracts/task3/NftAuction.sol\":1922:1968  Auction storage auction = auctions[_auctionId] */\n      swap1\n      pop\n        /* \"task/contracts/task3/NftAuction.sol\":2077:2092  block.timestamp */\n      timestamp\n        /* \"task/contracts/task3/NftAuction.sol\":2058:2065  auction */\n      dup2\n        /* \"task/contracts/task3/NftAuction.sol\":2058:2074  auction.duration */\n      0x02\n      add\n      sload\n        /* \"task/contracts/task3/NftAuction.sol\":2038:2045  auction */\n      dup3\n        /* \"task/contracts/task3/NftAuction.sol\":2038:2055  auction.startTime */\n      0x01\n      add\n      sload\n        /* \"task/contracts/task3/NftAuction.sol\":2038:2074  auction.startTime + auction.duration */\n      tag_56\n      swap2\n      swap1\n      tag_57\n      jump\t// in\n    tag_56:\n        /* \"task/contracts/task3/NftAuction.sol\":2038:2092  auction.startTime + auction.duration > block.timestamp */\n      gt\n        /* \"task/contracts/task3/NftAuction.sol\":2016:2136  require(... */\n      tag_58\n      jumpi\n      mload(0x40)\n      0x08c379a000000000000000000000000000000000000000000000000000000000\n      dup2\n      mstore\n      0x04\n      add\n      tag_59\n      swap1\n      tag_60\n      jump\t// in\n    tag_59:\n      mload(0x40)\n      dup1\n      swap2\n      sub\n      swap1\n      revert\n    tag_58:\n        /* \"task/contracts/task3/NftAuction.sol\":2213:2220  auction */\n      dup1\n        /* \"task/contracts/task3/NftAuction.sol\":2213:2231  auction.startPrice */\n      0x03\n      add\n      sload\n        /* \"task/contracts/task3/NftAuction.sol\":2201:2210  msg.value */\n      callvalue\n        /* \"task/contracts/task3/NftAuction.sol\":2201:2231  msg.value > auction.startPrice */\n      gt\n        /* \"task/contracts/task3/NftAuction.sol\":2193:2262  require(msg.value > auction.startPrice, \"price must be > startPrice\") */\n      tag_61\n      jumpi\n      mload(0x40)\n      0x08c379a000000000000000000000000000000000000000000000000000000000\n      dup2\n      mstore\n      0x04\n      add\n      tag_62\n      swap1\n      tag_63\n      jump\t// in\n    tag_62:\n      mload(0x40)\n      dup1\n      swap2\n      sub\n      swap1\n      revert\n    tag_61:\n        /* \"task/contracts/task3/NftAuction.sol\":2339:2346  auction */\n      dup1\n        /* \"task/contracts/task3/NftAuction.sol\":2339:2357  auction.highestBid */\n      0x05\n      add\n      sload\n        /* \"task/contracts/task3/NftAuction.sol\":2327:2336  msg.value */\n      callvalue\n        /* \"task/contracts/task3/NftAuction.sol\":2327:2357  msg.value > auction.highestBid */\n      gt\n        /* \"task/contracts/task3/NftAuction.sol\":2319:2388  require(msg.value > auction.highestBid, \"price must be > highestBid\") */\n      tag_64\n      jumpi\n      mload(0x40)\n      0x08c379a000000000000000000000000000000000000000000000000000000000\n      dup2\n      mstore\n      0x04\n      add\n      tag_65\n      swap1\n      tag_66\n      jump\t// in\n    tag_65:\n      mload(0x40)\n      dup1\n      swap2\n      sub\n      swap1\n      revert\n    tag_64:\n        /* \"task/contracts/task3/NftAuction.sol\":2491:2492  0 */\n      0x00\n        /* \"task/contracts/task3/NftAuction.sol\":2458:2493  auction.highestBidder != address(0) */\n      0xffffffffffffffffffffffffffffffffffffffff\n      and\n        /* \"task/contracts/task3/NftAuction.sol\":2458:2465  auction */\n      dup2\n        /* \"task/contracts/task3/NftAuction.sol\":2458:2479  auction.highestBidder */\n      0x04\n      add\n      0x01\n      swap1\n      sload\n      swap1\n      0x0100\n      exp\n      swap1\n      div\n      0xffffffffffffffffffffffffffffffffffffffff\n      and\n        /* \"task/contracts/task3/NftAuction.sol\":2458:2493  auction.highestBidder != address(0) */\n      0xffffffffffffffffffffffffffffffffffffffff\n      and\n      eq\n        /* \"task/contracts/task3/NftAuction.sol\":2454:2581  if (auction.highestBidder != address(0)) {... */\n      tag_67\n      jumpi\n        /* \"task/contracts/task3/NftAuction.sol\":2518:2525  auction */\n      dup1\n        /* \"task/contracts/task3/NftAuction.sol\":2518:2539  auction.highestBidder */\n      0x04\n      add\n      0x01\n      swap1\n      sload\n      swap1\n      0x0100\n      exp\n      swap1\n      div\n      0xffffffffffffffffffffffffffffffffffffffff\n      and\n        /* \"task/contracts/task3/NftAuction.sol\":2510:2549  payable(auction.highestBidder).transfer */\n      0xffffffffffffffffffffffffffffffffffffffff\n      and\n        /* \"task/contracts/task3/NftAuction.sol\":2510:2569  payable(auction.highestBidder).transfer(auction.highestBid) */\n      0x08fc\n        /* \"task/contracts/task3/NftAuction.sol\":2550:2557  auction */\n      dup3\n        /* \"task/contracts/task3/NftAuction.sol\":2550:2568  auction.highestBid */\n      0x05\n      add\n      sload\n        /* \"task/contracts/task3/NftAuction.sol\":2510:2569  payable(auction.highestBidder).transfer(auction.highestBid) */\n      swap1\n      dup2\n      iszero\n      mul\n      swap1\n      mload(0x40)\n      0x00\n      mload(0x40)\n      dup1\n      dup4\n      sub\n      dup2\n      dup6\n      dup9\n      dup9\n      call\n      swap4\n      pop\n      pop\n      pop\n      pop\n      iszero\n      dup1\n      iszero\n      tag_69\n      jumpi\n      returndatacopy(0x00, 0x00, returndatasize)\n      revert(0x00, returndatasize)\n    tag_69:\n      pop\n        /* \"task/contracts/task3/NftAuction.sol\":2454:2581  if (auction.highestBidder != address(0)) {... */\n    tag_67:\n        /* \"task/contracts/task3/NftAuction.sol\":2649:2659  msg.sender */\n      caller\n        /* \"task/contracts/task3/NftAuction.sol\":2625:2632  auction */\n      dup2\n        /* \"task/contracts/task3/NftAuction.sol\":2625:2646  auction.highestBidder */\n      0x04\n      add\n      0x01\n        /* \"task/contracts/task3/NftAuction.sol\":2625:2659  auction.highestBidder = msg.sender */\n      0x0100\n      exp\n      dup2\n      sload\n      dup2\n      0xffffffffffffffffffffffffffffffffffffffff\n      mul\n      not\n      and\n      swap1\n      dup4\n      0xffffffffffffffffffffffffffffffffffffffff\n      and\n      mul\n      or\n      swap1\n      sstore\n      pop\n        /* \"task/contracts/task3/NftAuction.sol\":2691:2700  msg.value */\n      callvalue\n        /* \"task/contracts/task3/NftAuction.sol\":2670:2677  auction */\n      dup2\n        /* \"task/contracts/task3/NftAuction.sol\":2670:2688  auction.highestBid */\n      0x05\n      add\n        /* \"task/contracts/task3/NftAuction.sol\":2670:2700  auction.highestBid = msg.value */\n      dup2\n      swap1\n      sstore\n      pop\n        /* \"task/contracts/task3/NftAuction.sol\":1911:2708  {... */\n      pop\n        /* \"task/contracts/task3/NftAuction.sol\":1856:2708  function placeBid(uint256 _auctionId) external payable {... */\n      pop\n      jump\t// out\n        /* \"task/contracts/task3/NftAuction.sol\":984:1821  function createAuction(... */\n    tag_27:\n        /* \"task/contracts/task3/NftAuction.sol\":1206:1211  admin */\n      0x02\n      0x00\n      swap1\n      sload\n      swap1\n      0x0100\n      exp\n      swap1\n      div\n      0xffffffffffffffffffffffffffffffffffffffff\n      and\n        /* \"task/contracts/task3/NftAuction.sol\":1192:1211  msg.sender == admin */\n      0xffffffffffffffffffffffffffffffffffffffff\n      and\n        /* \"task/contracts/task3/NftAuction.sol\":1192:1202  msg.sender */\n      caller\n        /* \"task/contracts/task3/NftAuction.sol\":1192:1211  msg.sender == admin */\n      0xffffffffffffffffffffffffffffffffffffffff\n      and\n      eq\n        /* \"task/contracts/task3/NftAuction.sol\":1184:1246  require(msg.sender == admin, \"only admin can create auctions\") */\n      tag_71\n      jumpi\n      mload(0x40)\n      0x08c379a000000000000000000000000000000000000000000000000000000000\n      dup2\n      mstore\n      0x04\n      add\n      tag_72\n      swap1\n      tag_73\n      jump\t// in\n    tag_72:\n      mload(0x40)\n      dup1\n      swap2\n      sub\n      swap1\n      revert\n    tag_71:\n        /* \"task/contracts/task3/NftAuction.sol\":1302:1311  60 * 1000 */\n      0xea60\n        /* \"task/contracts/task3/NftAuction.sol\":1290:1299  _duration */\n      dup5\n        /* \"task/contracts/task3/NftAuction.sol\":1290:1311  _duration > 60 * 1000 */\n      gt\n        /* \"task/contracts/task3/NftAuction.sol\":1282:1337  require(_duration > 60 * 1000, \"duration must be > 60\") */\n      tag_74\n      jumpi\n      mload(0x40)\n      0x08c379a000000000000000000000000000000000000000000000000000000000\n      dup2\n      mstore\n      0x04\n      add\n      tag_75\n      swap1\n      tag_76\n      jump\t// in\n    tag_75:\n      mload(0x40)\n      dup1\n      swap2\n      sub\n      swap1\n      revert\n    tag_74:\n        /* \"task/contracts/task3/NftAuction.sol\":1370:1371  0 */\n      0x00\n        /* \"task/contracts/task3/NftAuction.sol\":1356:1367  _startPrice */\n      dup4\n        /* \"task/contracts/task3/NftAuction.sol\":1356:1371  _startPrice > 0 */\n      gt\n        /* \"task/contracts/task3/NftAuction.sol\":1348:1398  require(_startPrice > 0, \"startPrice must be > 0\") */\n      tag_77\n      jumpi\n      mload(0x40)\n      0x08c379a000000000000000000000000000000000000000000000000000000000\n      dup2\n      mstore\n      0x04\n      add\n      tag_78\n      swap1\n      tag_79\n      jump\t// in\n    tag_78:\n      mload(0x40)\n      dup1\n      swap2\n      sub\n      swap1\n      revert\n    tag_77:\n        /* \"task/contracts/task3/NftAuction.sol\":1460:1787  Auction({... */\n      mload(0x40)\n      dup1\n      0x0120\n      add\n      0x40\n      mstore\n      dup1\n        /* \"task/contracts/task3/NftAuction.sol\":1491:1501  msg.sender */\n      caller\n        /* \"task/contracts/task3/NftAuction.sol\":1460:1787  Auction({... */\n      0xffffffffffffffffffffffffffffffffffffffff\n      and\n      dup2\n      mstore\n      0x20\n      add\n        /* \"task/contracts/task3/NftAuction.sol\":1527:1542  block.timestamp */\n      timestamp\n        /* \"task/contracts/task3/NftAuction.sol\":1460:1787  Auction({... */\n      dup2\n      mstore\n      0x20\n      add\n        /* \"task/contracts/task3/NftAuction.sol\":1567:1576  _duration */\n      dup6\n        /* \"task/contracts/task3/NftAuction.sol\":1460:1787  Auction({... */\n      dup2\n      mstore\n      0x20\n      add\n        /* \"task/contracts/task3/NftAuction.sol\":1603:1614  _startPrice */\n      dup5\n        /* \"task/contracts/task3/NftAuction.sol\":1460:1787  Auction({... */\n      dup2\n      mstore\n      0x20\n      add\n        /* \"task/contracts/task3/NftAuction.sol\":1636:1641  false */\n      0x00\n        /* \"task/contracts/task3/NftAuction.sol\":1460:1787  Auction({... */\n      iszero\n      iszero\n      dup2\n      mstore\n      0x20\n      add\n        /* \"task/contracts/task3/NftAuction.sol\":1679:1680  0 */\n      0x00\n        /* \"task/contracts/task3/NftAuction.sol\":1460:1787  Auction({... */\n      0xffffffffffffffffffffffffffffffffffffffff\n      and\n      dup2\n      mstore\n      0x20\n      add\n        /* \"task/contracts/task3/NftAuction.sol\":1708:1709  0 */\n      0x00\n        /* \"task/contracts/task3/NftAuction.sol\":1460:1787  Auction({... */\n      dup2\n      mstore\n      0x20\n      add\n        /* \"task/contracts/task3/NftAuction.sol\":1737:1748  _nftAddress */\n      dup4\n        /* \"task/contracts/task3/NftAuction.sol\":1460:1787  Auction({... */\n      0xffffffffffffffffffffffffffffffffffffffff\n      and\n      dup2\n      mstore\n      0x20\n      add\n        /* \"task/contracts/task3/NftAuction.sol\":1770:1775  nftId */\n      dup3\n        /* \"task/contracts/task3/NftAuction.sol\":1460:1787  Auction({... */\n      dup2\n      mstore\n      pop\n        /* \"task/contracts/task3/NftAuction.sol\":1434:1442  auctions */\n      0x00\n        /* \"task/contracts/task3/NftAuction.sol\":1434:1457  auctions[nextAuctionId] */\n      0x00\n        /* \"task/contracts/task3/NftAuction.sol\":1443:1456  nextAuctionId */\n      sload(0x01)\n        /* \"task/contracts/task3/NftAuction.sol\":1434:1457  auctions[nextAuctionId] */\n      dup2\n      mstore\n      0x20\n      add\n      swap1\n      dup2\n      mstore\n      0x20\n      add\n      0x00\n      keccak256\n        /* \"task/contracts/task3/NftAuction.sol\":1434:1787  auctions[nextAuctionId] = Auction({... */\n      0x00\n      dup3\n      add\n      mload\n      dup2\n      0x00\n      add\n      exp(0x0100, 0x00)\n      dup2\n      sload\n      dup2\n      0xffffffffffffffffffffffffffffffffffffffff\n      mul\n      not\n      and\n      swap1\n      dup4\n      0xffffffffffffffffffffffffffffffffffffffff\n      and\n      mul\n      or\n      swap1\n      sstore\n      pop\n      0x20\n      dup3\n      add\n      mload\n      dup2\n      0x01\n      add\n      sstore\n      0x40\n      dup3\n      add\n      mload\n      dup2\n      0x02\n      add\n      sstore\n      0x60\n      dup3\n      add\n      mload\n      dup2\n      0x03\n      add\n      sstore\n      0x80\n      dup3\n      add\n      mload\n      dup2\n      0x04\n      add\n      exp(0x0100, 0x00)\n      dup2\n      sload\n      dup2\n      0xff\n      mul\n      not\n      and\n      swap1\n      dup4\n      iszero\n      iszero\n      mul\n      or\n      swap1\n      sstore\n      pop\n      0xa0\n      dup3\n      add\n      mload\n      dup2\n      0x04\n      add\n      exp(0x0100, 0x01)\n      dup2\n      sload\n      dup2\n      0xffffffffffffffffffffffffffffffffffffffff\n      mul\n      not\n      and\n      swap1\n      dup4\n      0xffffffffffffffffffffffffffffffffffffffff\n      and\n      mul\n      or\n      swap1\n      sstore\n      pop\n      0xc0\n      dup3\n      add\n      mload\n      dup2\n      0x05\n      add\n      sstore\n      0xe0\n      dup3\n      add\n      mload\n      dup2\n      0x06\n      add\n      exp(0x0100, 0x00)\n      dup2\n      sload\n      dup2\n      0xffffffffffffffffffffffffffffffffffffffff\n      mul\n      not\n      and\n      swap1\n      dup4\n      0xffffffffffffffffffffffffffffffffffffffff\n      and\n      mul\n      or\n      swap1\n      sstore\n      pop\n      0x0100\n      dup3\n      add\n      mload\n      dup2\n      0x07\n      add\n      sstore\n      swap1\n      pop\n      pop\n        /* \"task/contracts/task3/NftAuction.sol\":1798:1811  nextAuctionId */\n      0x01\n      0x00\n        /* \"task/contracts/task3/NftAuction.sol\":1798:1813  nextAuctionId++ */\n      dup2\n      sload\n      dup1\n      swap3\n      swap2\n      swap1\n      tag_80\n      swap1\n      tag_81\n      jump\t// in\n    tag_80:\n      swap2\n      swap1\n      pop\n      sstore\n      pop\n        /* \"task/contracts/task3/NftAuction.sol\":984:1821  function createAuction(... */\n      pop\n      pop\n      pop\n      pop\n      jump\t// out\n        /* \"task/contracts/task3/NftAuctionV2.sol\":152:245  function testHello() public pure returns (string memory) {... */\n    tag_30:\n        /* \"task/contracts/task3/NftAuctionV2.sol\":194:207  string memory */\n      0x60\n        /* \"task/contracts/task3/NftAuctionV2.sol\":220:237  return \"hello v2\" */\n      mload(0x40)\n      dup1\n      0x40\n      add\n      0x40\n      mstore\n      dup1\n      0x08\n      dup2\n      mstore\n      0x20\n      add\n      0x68656c6c6f207632000000000000000000000000000000000000000000000000\n      dup2\n      mstore\n      pop\n      swap1\n      pop\n        /* \"task/contracts/task3/NftAuctionV2.sol\":152:245  function testHello() public pure returns (string memory) {... */\n      swap1\n      jump\t// out\n        /* \"task/contracts/task3/NftAuction.sol\":848:868  address public admin */\n    tag_35:\n      0x02\n      0x00\n      swap1\n      sload\n      swap1\n      0x0100\n      exp\n      swap1\n      div\n      0xffffffffffffffffffffffffffffffffffffffff\n      and\n      dup2\n      jump\t// out\n        /* \"task/contracts/task3/NftAuction.sol\":789:817  uint256 public nextAuctionId */\n    tag_40:\n      sload(0x01)\n      dup2\n      jump\t// out\n        /* \"@openzeppelin/contracts-upgradeable/proxy/utils/Initializable.sol\":9071:9276  function _getInitializableStorage() private pure returns (InitializableStorage storage $) {... */\n    tag_45:\n        /* \"@openzeppelin/contracts-upgradeable/proxy/utils/Initializable.sol\":9129:9159  InitializableStorage storage $ */\n      0x00\n        /* \"@openzeppelin/contracts-upgradeable/proxy/utils/Initializable.sol\":9171:9183  bytes32 slot */\n      0x00\n        /* \"@openzeppelin/contracts-upgradeable/proxy/utils/Initializable.sol\":9186:9213  _initializableStorageSlot() */\n      tag_84\n        /* \"@openzeppelin/contracts-upgradeable/proxy/utils/Initializable.sol\":9186:9211  _initializableStorageSlot */\n      tag_85\n        /* \"@openzeppelin/contracts-upgradeable/proxy/utils/Initializable.sol\":9186:9213  _initializableStorageSlot() */\n      jump\t// in\n    tag_84:\n        /* \"@openzeppelin/contracts-upgradeable/proxy/utils/Initializable.sol\":9171:9213  bytes32 slot = _initializableStorageSlot() */\n      swap1\n      pop\n        /* \"@openzeppelin/contracts-upgradeable/proxy/utils/Initializable.sol\":9256:9260  slot */\n      dup1\n        /* \"@openzeppelin/contracts-upgradeable/proxy/utils/Initializable.sol\":9246:9260  $.slot := slot */\n      swap2\n      pop\n        /* \"@openzeppelin/contracts-upgradeable/proxy/utils/Initializable.sol\":9232:9270  {... */\n      pop\n        /* \"@openzeppelin/contracts-upgradeable/proxy/utils/Initializable.sol\":9071:9276  function _getInitializableStorage() private pure returns (InitializableStorage storage $) {... */\n      swap1\n      jump\t// out\n        /* \"@openzeppelin/contracts-upgradeable/proxy/utils/Initializable.sol\":8819:8941  function _initializableStorageSlot() internal pure virtual returns (bytes32) {... */\n    tag_85:\n        /* \"@openzeppelin/contracts-upgradeable/proxy/utils/Initializable.sol\":8887:8894  bytes32 */\n      0x00\n        /* \"@openzeppelin/contracts-upgradeable/proxy/utils/Initializable.sol\":3147:3213  0xf0c57e16840df040f15088dc2f81fe391c3923bec73e23a9662efc9c229c6a00 */\n      0xf0c57e16840df040f15088dc2f81fe391c3923bec73e23a9662efc9c229c6a00\n        /* \"@openzeppelin/contracts-upgradeable/proxy/utils/Initializable.sol\":8913:8934  INITIALIZABLE_STORAGE */\n      0x00\n      shl\n        /* \"@openzeppelin/contracts-upgradeable/proxy/utils/Initializable.sol\":8906:8934  return INITIALIZABLE_STORAGE */\n      swap1\n      pop\n        /* \"@openzeppelin/contracts-upgradeable/proxy/utils/Initializable.sol\":8819:8941  function _initializableStorageSlot() internal pure virtual returns (bytes32) {... */\n      swap1\n      jump\t// out\n        /* \"#utility.yul\":88:205   */\n    tag_88:\n        /* \"#utility.yul\":197:198   */\n      0x00\n        /* \"#utility.yul\":194:195   */\n      0x00\n        /* \"#utility.yul\":187:199   */\n      revert\n        /* \"#utility.yul\":334:411   */\n    tag_90:\n        /* \"#utility.yul\":371:378   */\n      0x00\n        /* \"#utility.yul\":400:405   */\n      dup2\n        /* \"#utility.yul\":389:405   */\n      swap1\n      pop\n        /* \"#utility.yul\":334:411   */\n      swap2\n      swap1\n      pop\n      jump\t// out\n        /* \"#utility.yul\":417:539   */\n    tag_91:\n        /* \"#utility.yul\":490:514   */\n      tag_130\n        /* \"#utility.yul\":508:513   */\n      dup2\n        /* \"#utility.yul\":490:514   */\n      tag_90\n      jump\t// in\n    tag_130:\n        /* \"#utility.yul\":483:488   */\n      dup2\n        /* \"#utility.yul\":480:515   */\n      eq\n        /* \"#utility.yul\":470:533   */\n      tag_131\n      jumpi\n        /* \"#utility.yul\":529:530   */\n      0x00\n        /* \"#utility.yul\":526:527   */\n      0x00\n        /* \"#utility.yul\":519:531   */\n      revert\n        /* \"#utility.yul\":470:533   */\n    tag_131:\n        /* \"#utility.yul\":417:539   */\n      pop\n      jump\t// out\n        /* \"#utility.yul\":545:684   */\n    tag_92:\n        /* \"#utility.yul\":591:596   */\n      0x00\n        /* \"#utility.yul\":629:635   */\n      dup2\n        /* \"#utility.yul\":616:636   */\n      calldataload\n        /* \"#utility.yul\":607:636   */\n      swap1\n      pop\n        /* \"#utility.yul\":645:678   */\n      tag_133\n        /* \"#utility.yul\":672:677   */\n      dup2\n        /* \"#utility.yul\":645:678   */\n      tag_91\n      jump\t// in\n    tag_133:\n        /* \"#utility.yul\":545:684   */\n      swap3\n      swap2\n      pop\n      pop\n      jump\t// out\n        /* \"#utility.yul\":690:1019   */\n    tag_13:\n        /* \"#utility.yul\":749:755   */\n      0x00\n        /* \"#utility.yul\":798:800   */\n      0x20\n        /* \"#utility.yul\":786:795   */\n      dup3\n        /* \"#utility.yul\":777:784   */\n      dup5\n        /* \"#utility.yul\":773:796   */\n      sub\n        /* \"#utility.yul\":769:801   */\n      slt\n        /* \"#utility.yul\":766:885   */\n      iszero\n      tag_135\n      jumpi\n        /* \"#utility.yul\":804:883   */\n      tag_136\n      tag_88\n      jump\t// in\n    tag_136:\n        /* \"#utility.yul\":766:885   */\n    tag_135:\n        /* \"#utility.yul\":924:925   */\n      0x00\n        /* \"#utility.yul\":949:1002   */\n      tag_137\n        /* \"#utility.yul\":994:1001   */\n      dup5\n        /* \"#utility.yul\":985:991   */\n      dup3\n        /* \"#utility.yul\":974:983   */\n      dup6\n        /* \"#utility.yul\":970:992   */\n      add\n        /* \"#utility.yul\":949:1002   */\n      tag_92\n      jump\t// in\n    tag_137:\n        /* \"#utility.yul\":939:1002   */\n      swap2\n      pop\n        /* \"#utility.yul\":895:1012   */\n      pop\n        /* \"#utility.yul\":690:1019   */\n      swap3\n      swap2\n      pop\n      pop\n      jump\t// out\n        /* \"#utility.yul\":1025:1151   */\n    tag_93:\n        /* \"#utility.yul\":1062:1069   */\n      0x00\n        /* \"#utility.yul\":1102:1144   */\n      0xffffffffffffffffffffffffffffffffffffffff\n        /* \"#utility.yul\":1095:1100   */\n      dup3\n        /* \"#utility.yul\":1091:1145   */\n      and\n        /* \"#utility.yul\":1080:1145   */\n      swap1\n      pop\n        /* \"#utility.yul\":1025:1151   */\n      swap2\n      swap1\n      pop\n      jump\t// out\n        /* \"#utility.yul\":1157:1253   */\n    tag_94:\n        /* \"#utility.yul\":1194:1201   */\n      0x00\n        /* \"#utility.yul\":1223:1247   */\n      tag_140\n        /* \"#utility.yul\":1241:1246   */\n      dup3\n        /* \"#utility.yul\":1223:1247   */\n      tag_93\n      jump\t// in\n    tag_140:\n        /* \"#utility.yul\":1212:1247   */\n      swap1\n      pop\n        /* \"#utility.yul\":1157:1253   */\n      swap2\n      swap1\n      pop\n      jump\t// out\n        /* \"#utility.yul\":1259:1377   */\n    tag_95:\n        /* \"#utility.yul\":1346:1370   */\n      tag_142\n        /* \"#utility.yul\":1364:1369   */\n      dup2\n        /* \"#utility.yul\":1346:1370   */\n      tag_94\n      jump\t// in\n    tag_142:\n        /* \"#utility.yul\":1341:1344   */\n      dup3\n        /* \"#utility.yul\":1334:1371   */\n      mstore\n        /* \"#utility.yul\":1259:1377   */\n      pop\n      pop\n      jump\t// out\n        /* \"#utility.yul\":1383:1501   */\n    tag_96:\n        /* \"#utility.yul\":1470:1494   */\n      tag_144\n        /* \"#utility.yul\":1488:1493   */\n      dup2\n        /* \"#utility.yul\":1470:1494   */\n      tag_90\n      jump\t// in\n    tag_144:\n        /* \"#utility.yul\":1465:1468   */\n      dup3\n        /* \"#utility.yul\":1458:1495   */\n      mstore\n        /* \"#utility.yul\":1383:1501   */\n      pop\n      pop\n      jump\t// out\n        /* \"#utility.yul\":1507:1597   */\n    tag_97:\n        /* \"#utility.yul\":1541:1548   */\n      0x00\n        /* \"#utility.yul\":1584:1589   */\n      dup2\n        /* \"#utility.yul\":1577:1590   */\n      iszero\n        /* \"#utility.yul\":1570:1591   */\n      iszero\n        /* \"#utility.yul\":1559:1591   */\n      swap1\n      pop\n        /* \"#utility.yul\":1507:1597   */\n      swap2\n      swap1\n      pop\n      jump\t// out\n        /* \"#utility.yul\":1603:1712   */\n    tag_98:\n        /* \"#utility.yul\":1684:1705   */\n      tag_147\n        /* \"#utility.yul\":1699:1704   */\n      dup2\n        /* \"#utility.yul\":1684:1705   */\n      tag_97\n      jump\t// in\n    tag_147:\n        /* \"#utility.yul\":1679:1682   */\n      dup3\n        /* \"#utility.yul\":1672:1706   */\n      mstore\n        /* \"#utility.yul\":1603:1712   */\n      pop\n      pop\n      jump\t// out\n        /* \"#utility.yul\":1718:2814   */\n    tag_16:\n        /* \"#utility.yul\":2029:2033   */\n      0x00\n        /* \"#utility.yul\":2067:2070   */\n      0x0120\n        /* \"#utility.yul\":2056:2065   */\n      dup3\n        /* \"#utility.yul\":2052:2071   */\n      add\n        /* \"#utility.yul\":2044:2071   */\n      swap1\n      pop\n        /* \"#utility.yul\":2081:2152   */\n      tag_149\n        /* \"#utility.yul\":2149:2150   */\n      0x00\n        /* \"#utility.yul\":2138:2147   */\n      dup4\n        /* \"#utility.yul\":2134:2151   */\n      add\n        /* \"#utility.yul\":2125:2131   */\n      dup13\n        /* \"#utility.yul\":2081:2152   */\n      tag_95\n      jump\t// in\n    tag_149:\n        /* \"#utility.yul\":2162:2234   */\n      tag_150\n        /* \"#utility.yul\":2230:2232   */\n      0x20\n        /* \"#utility.yul\":2219:2228   */\n      dup4\n        /* \"#utility.yul\":2215:2233   */\n      add\n        /* \"#utility.yul\":2206:2212   */\n      dup12\n        /* \"#utility.yul\":2162:2234   */\n      tag_96\n      jump\t// in\n    tag_150:\n        /* \"#utility.yul\":2244:2316   */\n      tag_151\n        /* \"#utility.yul\":2312:2314   */\n      0x40\n        /* \"#utility.yul\":2301:2310   */\n      dup4\n        /* \"#utility.yul\":2297:2315   */\n      add\n        /* \"#utility.yul\":2288:2294   */\n      dup11\n        /* \"#utility.yul\":2244:2316   */\n      tag_96\n      jump\t// in\n    tag_151:\n        /* \"#utility.yul\":2326:2398   */\n      tag_152\n        /* \"#utility.yul\":2394:2396   */\n      0x60\n        /* \"#utility.yul\":2383:2392   */\n      dup4\n        /* \"#utility.yul\":2379:2397   */\n      add\n        /* \"#utility.yul\":2370:2376   */\n      dup10\n        /* \"#utility.yul\":2326:2398   */\n      tag_96\n      jump\t// in\n    tag_152:\n        /* \"#utility.yul\":2408:2475   */\n      tag_153\n        /* \"#utility.yul\":2470:2473   */\n      0x80\n        /* \"#utility.yul\":2459:2468   */\n      dup4\n        /* \"#utility.yul\":2455:2474   */\n      add\n        /* \"#utility.yul\":2446:2452   */\n      dup9\n        /* \"#utility.yul\":2408:2475   */\n      tag_98\n      jump\t// in\n    tag_153:\n        /* \"#utility.yul\":2485:2558   */\n      tag_154\n        /* \"#utility.yul\":2553:2556   */\n      0xa0\n        /* \"#utility.yul\":2542:2551   */\n      dup4\n        /* \"#utility.yul\":2538:2557   */\n      add\n        /* \"#utility.yul\":2529:2535   */\n      dup8\n        /* \"#utility.yul\":2485:2558   */\n      tag_95\n      jump\t// in\n    tag_154:\n        /* \"#utility.yul\":2568:2641   */\n      tag_155\n        /* \"#utility.yul\":2636:2639   */\n      0xc0\n        /* \"#utility.yul\":2625:2634   */\n      dup4\n        /* \"#utility.yul\":2621:2640   */\n      add\n        /* \"#utility.yul\":2612:2618   */\n      dup7\n        /* \"#utility.yul\":2568:2641   */\n      tag_96\n      jump\t// in\n    tag_155:\n        /* \"#utility.yul\":2651:2724   */\n      tag_156\n        /* \"#utility.yul\":2719:2722   */\n      0xe0\n        /* \"#utility.yul\":2708:2717   */\n      dup4\n        /* \"#utility.yul\":2704:2723   */\n      add\n        /* \"#utility.yul\":2695:2701   */\n      dup6\n        /* \"#utility.yul\":2651:2724   */\n      tag_95\n      jump\t// in\n    tag_156:\n        /* \"#utility.yul\":2734:2807   */\n      tag_157\n        /* \"#utility.yul\":2802:2805   */\n      0x0100\n        /* \"#utility.yul\":2791:2800   */\n      dup4\n        /* \"#utility.yul\":2787:2806   */\n      add\n        /* \"#utility.yul\":2778:2784   */\n      dup5\n        /* \"#utility.yul\":2734:2807   */\n      tag_96\n      jump\t// in\n    tag_157:\n        /* \"#utility.yul\":1718:2814   */\n      swap11\n      swap10\n      pop\n      pop\n      pop\n      pop\n      pop\n      pop\n      pop\n      pop\n      pop\n      pop\n      jump\t// out\n        /* \"#utility.yul\":2820:2942   */\n    tag_99:\n        /* \"#utility.yul\":2893:2917   */\n      tag_159\n        /* \"#utility.yul\":2911:2916   */\n      dup2\n        /* \"#utility.yul\":2893:2917   */\n      tag_94\n      jump\t// in\n    tag_159:\n        /* \"#utility.yul\":2886:2891   */\n      dup2\n        /* \"#utility.yul\":2883:2918   */\n      eq\n        /* \"#utility.yul\":2873:2936   */\n      tag_160\n      jumpi\n        /* \"#utility.yul\":2932:2933   */\n      0x00\n        /* \"#utility.yul\":2929:2930   */\n      0x00\n        /* \"#utility.yul\":2922:2934   */\n      revert\n        /* \"#utility.yul\":2873:2936   */\n    tag_160:\n        /* \"#utility.yul\":2820:2942   */\n      pop\n      jump\t// out\n        /* \"#utility.yul\":2948:3087   */\n    tag_100:\n        /* \"#utility.yul\":2994:2999   */\n      0x00\n        /* \"#utility.yul\":3032:3038   */\n      dup2\n        /* \"#utility.yul\":3019:3039   */\n      calldataload\n        /* \"#utility.yul\":3010:3039   */\n      swap1\n      pop\n        /* \"#utility.yul\":3048:3081   */\n      tag_162\n        /* \"#utility.yul\":3075:3080   */\n      dup2\n        /* \"#utility.yul\":3048:3081   */\n      tag_99\n      jump\t// in\n    tag_162:\n        /* \"#utility.yul\":2948:3087   */\n      swap3\n      swap2\n      pop\n      pop\n      jump\t// out\n        /* \"#utility.yul\":3093:3858   */\n    tag_26:\n        /* \"#utility.yul\":3179:3185   */\n      0x00\n        /* \"#utility.yul\":3187:3193   */\n      0x00\n        /* \"#utility.yul\":3195:3201   */\n      0x00\n        /* \"#utility.yul\":3203:3209   */\n      0x00\n        /* \"#utility.yul\":3252:3255   */\n      0x80\n        /* \"#utility.yul\":3240:3249   */\n      dup6\n        /* \"#utility.yul\":3231:3238   */\n      dup8\n        /* \"#utility.yul\":3227:3250   */\n      sub\n        /* \"#utility.yul\":3223:3256   */\n      slt\n        /* \"#utility.yul\":3220:3340   */\n      iszero\n      tag_164\n      jumpi\n        /* \"#utility.yul\":3259:3338   */\n      tag_165\n      tag_88\n      jump\t// in\n    tag_165:\n        /* \"#utility.yul\":3220:3340   */\n    tag_164:\n        /* \"#utility.yul\":3379:3380   */\n      0x00\n        /* \"#utility.yul\":3404:3457   */\n      tag_166\n        /* \"#utility.yul\":3449:3456   */\n      dup8\n        /* \"#utility.yul\":3440:3446   */\n      dup3\n        /* \"#utility.yul\":3429:3438   */\n      dup9\n        /* \"#utility.yul\":3425:3447   */\n      add\n        /* \"#utility.yul\":3404:3457   */\n      tag_92\n      jump\t// in\n    tag_166:\n        /* \"#utility.yul\":3394:3457   */\n      swap5\n      pop\n        /* \"#utility.yul\":3350:3467   */\n      pop\n        /* \"#utility.yul\":3506:3508   */\n      0x20\n        /* \"#utility.yul\":3532:3585   */\n      tag_167\n        /* \"#utility.yul\":3577:3584   */\n      dup8\n        /* \"#utility.yul\":3568:3574   */\n      dup3\n        /* \"#utility.yul\":3557:3566   */\n      dup9\n        /* \"#utility.yul\":3553:3575   */\n      add\n        /* \"#utility.yul\":3532:3585   */\n      tag_92\n      jump\t// in\n    tag_167:\n        /* \"#utility.yul\":3522:3585   */\n      swap4\n      pop\n        /* \"#utility.yul\":3477:3595   */\n      pop\n        /* \"#utility.yul\":3634:3636   */\n      0x40\n        /* \"#utility.yul\":3660:3713   */\n      tag_168\n        /* \"#utility.yul\":3705:3712   */\n      dup8\n        /* \"#utility.yul\":3696:3702   */\n      dup3\n        /* \"#utility.yul\":3685:3694   */\n      dup9\n        /* \"#utility.yul\":3681:3703   */\n      add\n        /* \"#utility.yul\":3660:3713   */\n      tag_100\n      jump\t// in\n    tag_168:\n        /* \"#utility.yul\":3650:3713   */\n      swap3\n      pop\n        /* \"#utility.yul\":3605:3723   */\n      pop\n        /* \"#utility.yul\":3762:3764   */\n      0x60\n        /* \"#utility.yul\":3788:3841   */\n      tag_169\n        /* \"#utility.yul\":3833:3840   */\n      dup8\n        /* \"#utility.yul\":3824:3830   */\n      dup3\n        /* \"#utility.yul\":3813:3822   */\n      dup9\n        /* \"#utility.yul\":3809:3831   */\n      add\n        /* \"#utility.yul\":3788:3841   */\n      tag_92\n      jump\t// in\n    tag_169:\n        /* \"#utility.yul\":3778:3841   */\n      swap2\n      pop\n        /* \"#utility.yul\":3733:3851   */\n      pop\n        /* \"#utility.yul\":3093:3858   */\n      swap3\n      swap6\n      swap2\n      swap5\n      pop\n      swap3\n      pop\n      jump\t// out\n        /* \"#utility.yul\":3864:3963   */\n    tag_101:\n        /* \"#utility.yul\":3916:3922   */\n      0x00\n        /* \"#utility.yul\":3950:3955   */\n      dup2\n        /* \"#utility.yul\":3944:3956   */\n      mload\n        /* \"#utility.yul\":3934:3956   */\n      swap1\n      pop\n        /* \"#utility.yul\":3864:3963   */\n      swap2\n      swap1\n      pop\n      jump\t// out\n        /* \"#utility.yul\":3969:4138   */\n    tag_102:\n        /* \"#utility.yul\":4053:4064   */\n      0x00\n        /* \"#utility.yul\":4087:4093   */\n      dup3\n        /* \"#utility.yul\":4082:4085   */\n      dup3\n        /* \"#utility.yul\":4075:4094   */\n      mstore\n        /* \"#utility.yul\":4127:4131   */\n      0x20\n        /* \"#utility.yul\":4122:4125   */\n      dup3\n        /* \"#utility.yul\":4118:4132   */\n      add\n        /* \"#utility.yul\":4103:4132   */\n      swap1\n      pop\n        /* \"#utility.yul\":3969:4138   */\n      swap3\n      swap2\n      pop\n      pop\n      jump\t// out\n        /* \"#utility.yul\":4144:4283   */\n    tag_103:\n        /* \"#utility.yul\":4233:4239   */\n      dup3\n        /* \"#utility.yul\":4228:4231   */\n      dup2\n        /* \"#utility.yul\":4223:4226   */\n      dup4\n        /* \"#utility.yul\":4217:4240   */\n      mcopy\n        /* \"#utility.yul\":4274:4275   */\n      0x00\n        /* \"#utility.yul\":4265:4271   */\n      dup4\n        /* \"#utility.yul\":4260:4263   */\n      dup4\n        /* \"#utility.yul\":4256:4272   */\n      add\n        /* \"#utility.yul\":4249:4276   */\n      mstore\n        /* \"#utility.yul\":4144:4283   */\n      pop\n      pop\n      pop\n      jump\t// out\n        /* \"#utility.yul\":4289:4391   */\n    tag_104:\n        /* \"#utility.yul\":4330:4336   */\n      0x00\n        /* \"#utility.yul\":4381:4383   */\n      0x1f\n        /* \"#utility.yul\":4377:4384   */\n      not\n        /* \"#utility.yul\":4372:4374   */\n      0x1f\n        /* \"#utility.yul\":4365:4370   */\n      dup4\n        /* \"#utility.yul\":4361:4375   */\n      add\n        /* \"#utility.yul\":4357:4385   */\n      and\n        /* \"#utility.yul\":4347:4385   */\n      swap1\n      pop\n        /* \"#utility.yul\":4289:4391   */\n      swap2\n      swap1\n      pop\n      jump\t// out\n        /* \"#utility.yul\":4397:4774   */\n    tag_105:\n        /* \"#utility.yul\":4485:4488   */\n      0x00\n        /* \"#utility.yul\":4513:4552   */\n      tag_175\n        /* \"#utility.yul\":4546:4551   */\n      dup3\n        /* \"#utility.yul\":4513:4552   */\n      tag_101\n      jump\t// in\n    tag_175:\n        /* \"#utility.yul\":4568:4639   */\n      tag_176\n        /* \"#utility.yul\":4632:4638   */\n      dup2\n        /* \"#utility.yul\":4627:4630   */\n      dup6\n        /* \"#utility.yul\":4568:4639   */\n      tag_102\n      jump\t// in\n    tag_176:\n        /* \"#utility.yul\":4561:4639   */\n      swap4\n      pop\n        /* \"#utility.yul\":4648:4713   */\n      tag_177\n        /* \"#utility.yul\":4706:4712   */\n      dup2\n        /* \"#utility.yul\":4701:4704   */\n      dup6\n        /* \"#utility.yul\":4694:4698   */\n      0x20\n        /* \"#utility.yul\":4687:4692   */\n      dup7\n        /* \"#utility.yul\":4683:4699   */\n      add\n        /* \"#utility.yul\":4648:4713   */\n      tag_103\n      jump\t// in\n    tag_177:\n        /* \"#utility.yul\":4738:4767   */\n      tag_178\n        /* \"#utility.yul\":4760:4766   */\n      dup2\n        /* \"#utility.yul\":4738:4767   */\n      tag_104\n      jump\t// in\n    tag_178:\n        /* \"#utility.yul\":4733:4736   */\n      dup5\n        /* \"#utility.yul\":4729:4768   */\n      add\n        /* \"#utility.yul\":4722:4768   */\n      swap2\n      pop\n        /* \"#utility.yul\":4489:4774   */\n      pop\n        /* \"#utility.yul\":4397:4774   */\n      swap3\n      swap2\n      pop\n      pop\n      jump\t// out\n        /* \"#utility.yul\":4780:5093   */\n    tag_32:\n        /* \"#utility.yul\":4893:4897   */\n      0x00\n        /* \"#utility.yul\":4931:4933   */\n      0x20\n        /* \"#utility.yul\":4920:4929   */\n      dup3\n        /* \"#utility.yul\":4916:4934   */\n      add\n        /* \"#utility.yul\":4908:4934   */\n      swap1\n      pop\n        /* \"#utility.yul\":4980:4989   */\n      dup2\n        /* \"#utility.yul\":4974:4978   */\n      dup2\n        /* \"#utility.yul\":4970:4990   */\n      sub\n        /* \"#utility.yul\":4966:4967   */\n      0x00\n        /* \"#utility.yul\":4955:4964   */\n      dup4\n        /* \"#utility.yul\":4951:4968   */\n      add\n        /* \"#utility.yul\":4944:4991   */\n      mstore\n        /* \"#utility.yul\":5008:5086   */\n      tag_180\n        /* \"#utility.yul\":5081:5085   */\n      dup2\n        /* \"#utility.yul\":5072:5078   */\n      dup5\n        /* \"#utility.yul\":5008:5086   */\n      tag_105\n      jump\t// in\n    tag_180:\n        /* \"#utility.yul\":5000:5086   */\n      swap1\n      pop\n        /* \"#utility.yul\":4780:5093   */\n      swap3\n      swap2\n      pop\n      pop\n      jump\t// out\n        /* \"#utility.yul\":5099:5321   */\n    tag_37:\n        /* \"#utility.yul\":5192:5196   */\n      0x00\n        /* \"#utility.yul\":5230:5232   */\n      0x20\n        /* \"#utility.yul\":5219:5228   */\n      dup3\n        /* \"#utility.yul\":5215:5233   */\n      add\n        /* \"#utility.yul\":5207:5233   */\n      swap1\n      pop\n        /* \"#utility.yul\":5243:5314   */\n      tag_182\n        /* \"#utility.yul\":5311:5312   */\n      0x00\n        /* \"#utility.yul\":5300:5309   */\n      dup4\n        /* \"#utility.yul\":5296:5313   */\n      add\n        /* \"#utility.yul\":5287:5293   */\n      dup5\n        /* \"#utility.yul\":5243:5314   */\n      tag_95\n      jump\t// in\n    tag_182:\n        /* \"#utility.yul\":5099:5321   */\n      swap3\n      swap2\n      pop\n      pop\n      jump\t// out\n        /* \"#utility.yul\":5327:5549   */\n    tag_42:\n        /* \"#utility.yul\":5420:5424   */\n      0x00\n        /* \"#utility.yul\":5458:5460   */\n      0x20\n        /* \"#utility.yul\":5447:5456   */\n      dup3\n        /* \"#utility.yul\":5443:5461   */\n      add\n        /* \"#utility.yul\":5435:5461   */\n      swap1\n      pop\n        /* \"#utility.yul\":5471:5542   */\n      tag_184\n        /* \"#utility.yul\":5539:5540   */\n      0x00\n        /* \"#utility.yul\":5528:5537   */\n      dup4\n        /* \"#utility.yul\":5524:5541   */\n      add\n        /* \"#utility.yul\":5515:5521   */\n      dup5\n        /* \"#utility.yul\":5471:5542   */\n      tag_96\n      jump\t// in\n    tag_184:\n        /* \"#utility.yul\":5327:5549   */\n      swap3\n      swap2\n      pop\n      pop\n      jump\t// out\n        /* \"#utility.yul\":5555:5640   */\n    tag_106:\n        /* \"#utility.yul\":5600:5607   */\n      0x00\n        /* \"#utility.yul\":5629:5634   */\n      dup2\n        /* \"#utility.yul\":5618:5634   */\n      swap1\n      pop\n        /* \"#utility.yul\":5555:5640   */\n      swap2\n      swap1\n      pop\n      jump\t// out\n        /* \"#utility.yul\":5646:5747   */\n    tag_107:\n        /* \"#utility.yul\":5682:5689   */\n      0x00\n        /* \"#utility.yul\":5722:5740   */\n      0xffffffffffffffff\n        /* \"#utility.yul\":5715:5720   */\n      dup3\n        /* \"#utility.yul\":5711:5741   */\n      and\n        /* \"#utility.yul\":5700:5741   */\n      swap1\n      pop\n        /* \"#utility.yul\":5646:5747   */\n      swap2\n      swap1\n      pop\n      jump\t// out\n        /* \"#utility.yul\":5753:5813   */\n    tag_108:\n        /* \"#utility.yul\":5781:5784   */\n      0x00\n        /* \"#utility.yul\":5802:5807   */\n      dup2\n        /* \"#utility.yul\":5795:5807   */\n      swap1\n      pop\n        /* \"#utility.yul\":5753:5813   */\n      swap2\n      swap1\n      pop\n      jump\t// out\n        /* \"#utility.yul\":5819:5975   */\n    tag_109:\n        /* \"#utility.yul\":5876:5885   */\n      0x00\n        /* \"#utility.yul\":5909:5969   */\n      tag_189\n        /* \"#utility.yul\":5926:5968   */\n      tag_190\n        /* \"#utility.yul\":5935:5967   */\n      tag_191\n        /* \"#utility.yul\":5961:5966   */\n      dup5\n        /* \"#utility.yul\":5935:5967   */\n      tag_106\n      jump\t// in\n    tag_191:\n        /* \"#utility.yul\":5926:5968   */\n      tag_108\n      jump\t// in\n    tag_190:\n        /* \"#utility.yul\":5909:5969   */\n      tag_107\n      jump\t// in\n    tag_189:\n        /* \"#utility.yul\":5896:5969   */\n      swap1\n      pop\n        /* \"#utility.yul\":5819:5975   */\n      swap2\n      swap1\n      pop\n      jump\t// out\n        /* \"#utility.yul\":5981:6126   */\n    tag_110:\n        /* \"#utility.yul\":6075:6119   */\n      tag_193\n        /* \"#utility.yul\":6113:6118   */\n      dup2\n        /* \"#utility.yul\":6075:6119   */\n      tag_109\n      jump\t// in\n    tag_193:\n        /* \"#utility.yul\":6070:6073   */\n      dup3\n        /* \"#utility.yul\":6063:6120   */\n      mstore\n        /* \"#utility.yul\":5981:6126   */\n      pop\n      pop\n      jump\t// out\n        /* \"#utility.yul\":6132:6368   */\n    tag_54:\n        /* \"#utility.yul\":6232:6236   */\n      0x00\n        /* \"#utility.yul\":6270:6272   */\n      0x20\n        /* \"#utility.yul\":6259:6268   */\n      dup3\n        /* \"#utility.yul\":6255:6273   */\n      add\n        /* \"#utility.yul\":6247:6273   */\n      swap1\n      pop\n        /* \"#utility.yul\":6283:6361   */\n      tag_195\n        /* \"#utility.yul\":6358:6359   */\n      0x00\n        /* \"#utility.yul\":6347:6356   */\n      dup4\n        /* \"#utility.yul\":6343:6360   */\n      add\n        /* \"#utility.yul\":6334:6340   */\n      dup5\n        /* \"#utility.yul\":6283:6361   */\n      tag_110\n      jump\t// in\n    tag_195:\n        /* \"#utility.yul\":6132:6368   */\n      swap3\n      swap2\n      pop\n      pop\n      jump\t// out\n        /* \"#utility.yul\":6374:6554   */\n    tag_111:\n        /* \"#utility.yul\":6422:6499   */\n      0x4e487b7100000000000000000000000000000000000000000000000000000000\n        /* \"#utility.yul\":6419:6420   */\n      0x00\n        /* \"#utility.yul\":6412:6500   */\n      mstore\n        /* \"#utility.yul\":6519:6523   */\n      0x11\n        /* \"#utility.yul\":6516:6517   */\n      0x04\n        /* \"#utility.yul\":6509:6524   */\n      mstore\n        /* \"#utility.yul\":6543:6547   */\n      0x24\n        /* \"#utility.yul\":6540:6541   */\n      0x00\n        /* \"#utility.yul\":6533:6548   */\n      revert\n        /* \"#utility.yul\":6560:6751   */\n    tag_57:\n        /* \"#utility.yul\":6600:6603   */\n      0x00\n        /* \"#utility.yul\":6619:6639   */\n      tag_198\n        /* \"#utility.yul\":6637:6638   */\n      dup3\n        /* \"#utility.yul\":6619:6639   */\n      tag_90\n      jump\t// in\n    tag_198:\n        /* \"#utility.yul\":6614:6639   */\n      swap2\n      pop\n        /* \"#utility.yul\":6653:6673   */\n      tag_199\n        /* \"#utility.yul\":6671:6672   */\n      dup4\n        /* \"#utility.yul\":6653:6673   */\n      tag_90\n      jump\t// in\n    tag_199:\n        /* \"#utility.yul\":6648:6673   */\n      swap3\n      pop\n        /* \"#utility.yul\":6696:6697   */\n      dup3\n        /* \"#utility.yul\":6693:6694   */\n      dup3\n        /* \"#utility.yul\":6689:6698   */\n      add\n        /* \"#utility.yul\":6682:6698   */\n      swap1\n      pop\n        /* \"#utility.yul\":6717:6720   */\n      dup1\n        /* \"#utility.yul\":6714:6715   */\n      dup3\n        /* \"#utility.yul\":6711:6721   */\n      gt\n        /* \"#utility.yul\":6708:6744   */\n      iszero\n      tag_200\n      jumpi\n        /* \"#utility.yul\":6724:6742   */\n      tag_201\n      tag_111\n      jump\t// in\n    tag_201:\n        /* \"#utility.yul\":6708:6744   */\n    tag_200:\n        /* \"#utility.yul\":6560:6751   */\n      swap3\n      swap2\n      pop\n      pop\n      jump\t// out\n        /* \"#utility.yul\":6757:6923   */\n    tag_112:\n        /* \"#utility.yul\":6897:6915   */\n      0x61756374696f6e20697320656e64656400000000000000000000000000000000\n        /* \"#utility.yul\":6893:6894   */\n      0x00\n        /* \"#utility.yul\":6885:6891   */\n      dup3\n        /* \"#utility.yul\":6881:6895   */\n      add\n        /* \"#utility.yul\":6874:6916   */\n      mstore\n        /* \"#utility.yul\":6757:6923   */\n      pop\n      jump\t// out\n        /* \"#utility.yul\":6929:7295   */\n    tag_113:\n        /* \"#utility.yul\":7071:7074   */\n      0x00\n        /* \"#utility.yul\":7092:7159   */\n      tag_204\n        /* \"#utility.yul\":7156:7158   */\n      0x10\n        /* \"#utility.yul\":7151:7154   */\n      dup4\n        /* \"#utility.yul\":7092:7159   */\n      tag_102\n      jump\t// in\n    tag_204:\n        /* \"#utility.yul\":7085:7159   */\n      swap2\n      pop\n        /* \"#utility.yul\":7168:7261   */\n      tag_205\n        /* \"#utility.yul\":7257:7260   */\n      dup3\n        /* \"#utility.yul\":7168:7261   */\n      tag_112\n      jump\t// in\n    tag_205:\n        /* \"#utility.yul\":7286:7288   */\n      0x20\n        /* \"#utility.yul\":7281:7284   */\n      dup3\n        /* \"#utility.yul\":7277:7289   */\n      add\n        /* \"#utility.yul\":7270:7289   */\n      swap1\n      pop\n        /* \"#utility.yul\":6929:7295   */\n      swap2\n      swap1\n      pop\n      jump\t// out\n        /* \"#utility.yul\":7301:7720   */\n    tag_60:\n        /* \"#utility.yul\":7467:7471   */\n      0x00\n        /* \"#utility.yul\":7505:7507   */\n      0x20\n        /* \"#utility.yul\":7494:7503   */\n      dup3\n        /* \"#utility.yul\":7490:7508   */\n      add\n        /* \"#utility.yul\":7482:7508   */\n      swap1\n      pop\n        /* \"#utility.yul\":7554:7563   */\n      dup2\n        /* \"#utility.yul\":7548:7552   */\n      dup2\n        /* \"#utility.yul\":7544:7564   */\n      sub\n        /* \"#utility.yul\":7540:7541   */\n      0x00\n        /* \"#utility.yul\":7529:7538   */\n      dup4\n        /* \"#utility.yul\":7525:7542   */\n      add\n        /* \"#utility.yul\":7518:7565   */\n      mstore\n        /* \"#utility.yul\":7582:7713   */\n      tag_207\n        /* \"#utility.yul\":7708:7712   */\n      dup2\n        /* \"#utility.yul\":7582:7713   */\n      tag_113\n      jump\t// in\n    tag_207:\n        /* \"#utility.yul\":7574:7713   */\n      swap1\n      pop\n        /* \"#utility.yul\":7301:7720   */\n      swap2\n      swap1\n      pop\n      jump\t// out\n        /* \"#utility.yul\":7726:7902   */\n    tag_114:\n        /* \"#utility.yul\":7866:7894   */\n      0x7072696365206d757374206265203e2073746172745072696365000000000000\n        /* \"#utility.yul\":7862:7863   */\n      0x00\n        /* \"#utility.yul\":7854:7860   */\n      dup3\n        /* \"#utility.yul\":7850:7864   */\n      add\n        /* \"#utility.yul\":7843:7895   */\n      mstore\n        /* \"#utility.yul\":7726:7902   */\n      pop\n      jump\t// out\n        /* \"#utility.yul\":7908:8274   */\n    tag_115:\n        /* \"#utility.yul\":8050:8053   */\n      0x00\n        /* \"#utility.yul\":8071:8138   */\n      tag_210\n        /* \"#utility.yul\":8135:8137   */\n      0x1a\n        /* \"#utility.yul\":8130:8133   */\n      dup4\n        /* \"#utility.yul\":8071:8138   */\n      tag_102\n      jump\t// in\n    tag_210:\n        /* \"#utility.yul\":8064:8138   */\n      swap2\n      pop\n        /* \"#utility.yul\":8147:8240   */\n      tag_211\n        /* \"#utility.yul\":8236:8239   */\n      dup3\n        /* \"#utility.yul\":8147:8240   */\n      tag_114\n      jump\t// in\n    tag_211:\n        /* \"#utility.yul\":8265:8267   */\n      0x20\n        /* \"#utility.yul\":8260:8263   */\n      dup3\n        /* \"#utility.yul\":8256:8268   */\n      add\n        /* \"#utility.yul\":8249:8268   */\n      swap1\n      pop\n        /* \"#utility.yul\":7908:8274   */\n      swap2\n      swap1\n      pop\n      jump\t// out\n        /* \"#utility.yul\":8280:8699   */\n    tag_63:\n        /* \"#utility.yul\":8446:8450   */\n      0x00\n        /* \"#utility.yul\":8484:8486   */\n      0x20\n        /* \"#utility.yul\":8473:8482   */\n      dup3\n        /* \"#utility.yul\":8469:8487   */\n      add\n        /* \"#utility.yul\":8461:8487   */\n      swap1\n      pop\n        /* \"#utility.yul\":8533:8542   */\n      dup2\n        /* \"#utility.yul\":8527:8531   */\n      dup2\n        /* \"#utility.yul\":8523:8543   */\n      sub\n        /* \"#utility.yul\":8519:8520   */\n      0x00\n        /* \"#utility.yul\":8508:8517   */\n      dup4\n        /* \"#utility.yul\":8504:8521   */\n      add\n        /* \"#utility.yul\":8497:8544   */\n      mstore\n        /* \"#utility.yul\":8561:8692   */\n      tag_213\n        /* \"#utility.yul\":8687:8691   */\n      dup2\n        /* \"#utility.yul\":8561:8692   */\n      tag_115\n      jump\t// in\n    tag_213:\n        /* \"#utility.yul\":8553:8692   */\n      swap1\n      pop\n        /* \"#utility.yul\":8280:8699   */\n      swap2\n      swap1\n      pop\n      jump\t// out\n        /* \"#utility.yul\":8705:8881   */\n    tag_116:\n        /* \"#utility.yul\":8845:8873   */\n      0x7072696365206d757374206265203e2068696768657374426964000000000000\n        /* \"#utility.yul\":8841:8842   */\n      0x00\n        /* \"#utility.yul\":8833:8839   */\n      dup3\n        /* \"#utility.yul\":8829:8843   */\n      add\n        /* \"#utility.yul\":8822:8874   */\n      mstore\n        /* \"#utility.yul\":8705:8881   */\n      pop\n      jump\t// out\n        /* \"#utility.yul\":8887:9253   */\n    tag_117:\n        /* \"#utility.yul\":9029:9032   */\n      0x00\n        /* \"#utility.yul\":9050:9117   */\n      tag_216\n        /* \"#utility.yul\":9114:9116   */\n      0x1a\n        /* \"#utility.yul\":9109:9112   */\n      dup4\n        /* \"#utility.yul\":9050:9117   */\n      tag_102\n      jump\t// in\n    tag_216:\n        /* \"#utility.yul\":9043:9117   */\n      swap2\n      pop\n        /* \"#utility.yul\":9126:9219   */\n      tag_217\n        /* \"#utility.yul\":9215:9218   */\n      dup3\n        /* \"#utility.yul\":9126:9219   */\n      tag_116\n      jump\t// in\n    tag_217:\n        /* \"#utility.yul\":9244:9246   */\n      0x20\n        /* \"#utility.yul\":9239:9242   */\n      dup3\n        /* \"#utility.yul\":9235:9247   */\n      add\n        /* \"#utility.yul\":9228:9247   */\n      swap1\n      pop\n        /* \"#utility.yul\":8887:9253   */\n      swap2\n      swap1\n      pop\n      jump\t// out\n        /* \"#utility.yul\":9259:9678   */\n    tag_66:\n        /* \"#utility.yul\":9425:9429   */\n      0x00\n        /* \"#utility.yul\":9463:9465   */\n      0x20\n        /* \"#utility.yul\":9452:9461   */\n      dup3\n        /* \"#utility.yul\":9448:9466   */\n      add\n        /* \"#utility.yul\":9440:9466   */\n      swap1\n      pop\n        /* \"#utility.yul\":9512:9521   */\n      dup2\n        /* \"#utility.yul\":9506:9510   */\n      dup2\n        /* \"#utility.yul\":9502:9522   */\n      sub\n        /* \"#utility.yul\":9498:9499   */\n      0x00\n        /* \"#utility.yul\":9487:9496   */\n      dup4\n        /* \"#utility.yul\":9483:9500   */\n      add\n        /* \"#utility.yul\":9476:9523   */\n      mstore\n        /* \"#utility.yul\":9540:9671   */\n      tag_219\n        /* \"#utility.yul\":9666:9670   */\n      dup2\n        /* \"#utility.yul\":9540:9671   */\n      tag_117\n      jump\t// in\n    tag_219:\n        /* \"#utility.yul\":9532:9671   */\n      swap1\n      pop\n        /* \"#utility.yul\":9259:9678   */\n      swap2\n      swap1\n      pop\n      jump\t// out\n        /* \"#utility.yul\":9684:9864   */\n    tag_118:\n        /* \"#utility.yul\":9824:9856   */\n      0x6f6e6c792061646d696e2063616e206372656174652061756374696f6e730000\n        /* \"#utility.yul\":9820:9821   */\n      0x00\n        /* \"#utility.yul\":9812:9818   */\n      dup3\n        /* \"#utility.yul\":9808:9822   */\n      add\n        /* \"#utility.yul\":9801:9857   */\n      mstore\n        /* \"#utility.yul\":9684:9864   */\n      pop\n      jump\t// out\n        /* \"#utility.yul\":9870:10236   */\n    tag_119:\n        /* \"#utility.yul\":10012:10015   */\n      0x00\n        /* \"#utility.yul\":10033:10100   */\n      tag_222\n        /* \"#utility.yul\":10097:10099   */\n      0x1e\n        /* \"#utility.yul\":10092:10095   */\n      dup4\n        /* \"#utility.yul\":10033:10100   */\n      tag_102\n      jump\t// in\n    tag_222:\n        /* \"#utility.yul\":10026:10100   */\n      swap2\n      pop\n        /* \"#utility.yul\":10109:10202   */\n      tag_223\n        /* \"#utility.yul\":10198:10201   */\n      dup3\n        /* \"#utility.yul\":10109:10202   */\n      tag_118\n      jump\t// in\n    tag_223:\n        /* \"#utility.yul\":10227:10229   */\n      0x20\n        /* \"#utility.yul\":10222:10225   */\n      dup3\n        /* \"#utility.yul\":10218:10230   */\n      add\n        /* \"#utility.yul\":10211:10230   */\n      swap1\n      pop\n        /* \"#utility.yul\":9870:10236   */\n      swap2\n      swap1\n      pop\n      jump\t// out\n        /* \"#utility.yul\":10242:10661   */\n    tag_73:\n        /* \"#utility.yul\":10408:10412   */\n      0x00\n        /* \"#utility.yul\":10446:10448   */\n      0x20\n        /* \"#utility.yul\":10435:10444   */\n      dup3\n        /* \"#utility.yul\":10431:10449   */\n      add\n        /* \"#utility.yul\":10423:10449   */\n      swap1\n      pop\n        /* \"#utility.yul\":10495:10504   */\n      dup2\n        /* \"#utility.yul\":10489:10493   */\n      dup2\n        /* \"#utility.yul\":10485:10505   */\n      sub\n        /* \"#utility.yul\":10481:10482   */\n      0x00\n        /* \"#utility.yul\":10470:10479   */\n      dup4\n        /* \"#utility.yul\":10466:10483   */\n      add\n        /* \"#utility.yul\":10459:10506   */\n      mstore\n        /* \"#utility.yul\":10523:10654   */\n      tag_225\n        /* \"#utility.yul\":10649:10653   */\n      dup2\n        /* \"#utility.yul\":10523:10654   */\n      tag_119\n      jump\t// in\n    tag_225:\n        /* \"#utility.yul\":10515:10654   */\n      swap1\n      pop\n        /* \"#utility.yul\":10242:10661   */\n      swap2\n      swap1\n      pop\n      jump\t// out\n        /* \"#utility.yul\":10667:10838   */\n    tag_120:\n        /* \"#utility.yul\":10807:10830   */\n      0x6475726174696f6e206d757374206265203e2036300000000000000000000000\n        /* \"#utility.yul\":10803:10804   */\n      0x00\n        /* \"#utility.yul\":10795:10801   */\n      dup3\n        /* \"#utility.yul\":10791:10805   */\n      add\n        /* \"#utility.yul\":10784:10831   */\n      mstore\n        /* \"#utility.yul\":10667:10838   */\n      pop\n      jump\t// out\n        /* \"#utility.yul\":10844:11210   */\n    tag_121:\n        /* \"#utility.yul\":10986:10989   */\n      0x00\n        /* \"#utility.yul\":11007:11074   */\n      tag_228\n        /* \"#utility.yul\":11071:11073   */\n      0x15\n        /* \"#utility.yul\":11066:11069   */\n      dup4\n        /* \"#utility.yul\":11007:11074   */\n      tag_102\n      jump\t// in\n    tag_228:\n        /* \"#utility.yul\":11000:11074   */\n      swap2\n      pop\n        /* \"#utility.yul\":11083:11176   */\n      tag_229\n        /* \"#utility.yul\":11172:11175   */\n      dup3\n        /* \"#utility.yul\":11083:11176   */\n      tag_120\n      jump\t// in\n    tag_229:\n        /* \"#utility.yul\":11201:11203   */\n      0x20\n        /* \"#utility.yul\":11196:11199   */\n      dup3\n        /* \"#utility.yul\":11192:11204   */\n      add\n        /* \"#utility.yul\":11185:11204   */\n      swap1\n      pop\n        /* \"#utility.yul\":10844:11210   */\n      swap2\n      swap1\n      pop\n      jump\t// out\n        /* \"#utility.yul\":11216:11635   */\n    tag_76:\n        /* \"#utility.yul\":11382:11386   */\n      0x00\n        /* \"#utility.yul\":11420:11422   */\n      0x20\n        /* \"#utility.yul\":11409:11418   */\n      dup3\n        /* \"#utility.yul\":11405:11423   */\n      add\n        /* \"#utility.yul\":11397:11423   */\n      swap1\n      pop\n        /* \"#utility.yul\":11469:11478   */\n      dup2\n        /* \"#utility.yul\":11463:11467   */\n      dup2\n        /* \"#utility.yul\":11459:11479   */\n      sub\n        /* \"#utility.yul\":11455:11456   */\n      0x00\n        /* \"#utility.yul\":11444:11453   */\n      dup4\n        /* \"#utility.yul\":11440:11457   */\n      add\n        /* \"#utility.yul\":11433:11480   */\n      mstore\n        /* \"#utility.yul\":11497:11628   */\n      tag_231\n        /* \"#utility.yul\":11623:11627   */\n      dup2\n        /* \"#utility.yul\":11497:11628   */\n      tag_121\n      jump\t// in\n    tag_231:\n        /* \"#utility.yul\":11489:11628   */\n      swap1\n      pop\n        /* \"#utility.yul\":11216:11635   */\n      swap2\n      swap1\n      pop\n      jump\t// out\n        /* \"#utility.yul\":11641:11813   */\n    tag_122:\n        /* \"#utility.yul\":11781:11805   */\n      0x73746172745072696365206d757374206265203e203000000000000000000000\n        /* \"#utility.yul\":11777:11778   */\n      0x00\n        /* \"#utility.yul\":11769:11775   */\n      dup3\n        /* \"#utility.yul\":11765:11779   */\n      add\n        /* \"#utility.yul\":11758:11806   */\n      mstore\n        /* \"#utility.yul\":11641:11813   */\n      pop\n      jump\t// out\n        /* \"#utility.yul\":11819:12185   */\n    tag_123:\n        /* \"#utility.yul\":11961:11964   */\n      0x00\n        /* \"#utility.yul\":11982:12049   */\n      tag_234\n        /* \"#utility.yul\":12046:12048   */\n      0x16\n        /* \"#utility.yul\":12041:12044   */\n      dup4\n        /* \"#utility.yul\":11982:12049   */\n      tag_102\n      jump\t// in\n    tag_234:\n        /* \"#utility.yul\":11975:12049   */\n      swap2\n      pop\n        /* \"#utility.yul\":12058:12151   */\n      tag_235\n        /* \"#utility.yul\":12147:12150   */\n      dup3\n        /* \"#utility.yul\":12058:12151   */\n      tag_122\n      jump\t// in\n    tag_235:\n        /* \"#utility.yul\":12176:12178   */\n      0x20\n        /* \"#utility.yul\":12171:12174   */\n      dup3\n        /* \"#utility.yul\":12167:12179   */\n      add\n        /* \"#utility.yul\":12160:12179   */\n      swap1\n      pop\n        /* \"#utility.yul\":11819:12185   */\n      swap2\n      swap1\n      pop\n      jump\t// out\n        /* \"#utility.yul\":12191:12610   */\n    tag_79:\n        /* \"#utility.yul\":12357:12361   */\n      0x00\n        /* \"#utility.yul\":12395:12397   */\n      0x20\n        /* \"#utility.yul\":12384:12393   */\n      dup3\n        /* \"#utility.yul\":12380:12398   */\n      add\n        /* \"#utility.yul\":12372:12398   */\n      swap1\n      pop\n        /* \"#utility.yul\":12444:12453   */\n      dup2\n        /* \"#utility.yul\":12438:12442   */\n      dup2\n        /* \"#utility.yul\":12434:12454   */\n      sub\n        /* \"#utility.yul\":12430:12431   */\n      0x00\n        /* \"#utility.yul\":12419:12428   */\n      dup4\n        /* \"#utility.yul\":12415:12432   */\n      add\n        /* \"#utility.yul\":12408:12455   */\n      mstore\n        /* \"#utility.yul\":12472:12603   */\n      tag_237\n        /* \"#utility.yul\":12598:12602   */\n      dup2\n        /* \"#utility.yul\":12472:12603   */\n      tag_123\n      jump\t// in\n    tag_237:\n        /* \"#utility.yul\":12464:12603   */\n      swap1\n      pop\n        /* \"#utility.yul\":12191:12610   */\n      swap2\n      swap1\n      pop\n      jump\t// out\n        /* \"#utility.yul\":12616:12849   */\n    tag_81:\n        /* \"#utility.yul\":12655:12658   */\n      0x00\n        /* \"#utility.yul\":12678:12702   */\n      tag_239\n        /* \"#utility.yul\":12696:12701   */\n      dup3\n        /* \"#utility.yul\":12678:12702   */\n      tag_90\n      jump\t// in\n    tag_239:\n        /* \"#utility.yul\":12669:12702   */\n      swap2\n      pop\n        /* \"#utility.yul\":12724:12790   */\n      0xffffffffffffffffffffffffffffffffffffffffffffffffffffffffffffffff\n        /* \"#utility.yul\":12717:12722   */\n      dup3\n        /* \"#utility.yul\":12714:12791   */\n      sub\n        /* \"#utility.yul\":12711:12814   */\n      tag_240\n      jumpi\n        /* \"#utility.yul\":12794:12812   */\n      tag_241\n      tag_111\n      jump\t// in\n    tag_241:\n        /* \"#utility.yul\":12711:12814   */\n    tag_240:\n        /* \"#utility.yul\":12841:12842   */\n      0x01\n        /* \"#utility.yul\":12834:12839   */\n      dup3\n        /* \"#utility.yul\":12830:12843   */\n      add\n        /* \"#utility.yul\":12823:12843   */\n      swap1\n      pop\n        /* \"#utility.yul\":12616:12849   */\n      swap2\n      swap1\n      pop\n      jump\t// out\n\n    auxdata: 0xa264697066735822122077453e73c8646b6127207d58ec8ada326544304c04bdca67305bfce920741ee964736f6c634300081e0033\n}\n",
				"bytecode": {
					"linkReferences": {},
					"object": "6080604052348015600e575f5ffd5b50610ff38061001c5f395ff3fe60806040526004361061006f575f3560e01c8063b1cb48ef1161004d578063b1cb48ef146100e9578063c97c635314610111578063f851a4401461013b578063fc528482146101655761006f565b8063571a26a0146100735780638129fc1c146100b75780639979ef45146100cd575b5f5ffd5b34801561007e575f5ffd5b50610099600480360381019061009491906109ca565b61018f565b6040516100ae99989796959493929190610a5d565b60405180910390f35b3480156100c2575f5ffd5b506100cb610242565b005b6100e760048036038101906100e291906109ca565b6103f9565b005b3480156100f4575f5ffd5b5061010f600480360381019061010a9190610b12565b610601565b005b34801561011c575f5ffd5b506101256108ef565b6040516101329190610be6565b60405180910390f35b348015610146575f5ffd5b5061014f61092c565b60405161015c9190610c06565b60405180910390f35b348015610170575f5ffd5b50610179610951565b6040516101869190610c1f565b60405180910390f35b5f602052805f5260405f205f91509050805f015f9054906101000a900473ffffffffffffffffffffffffffffffffffffffff1690806001015490806002015490806003015490806004015f9054906101000a900460ff16908060040160019054906101000a900473ffffffffffffffffffffffffffffffffffffffff1690806005015490806006015f9054906101000a900473ffffffffffffffffffffffffffffffffffffffff16908060070154905089565b5f61024b610957565b90505f815f0160089054906101000a900460ff161590505f825f015f9054906101000a900467ffffffffffffffff1690505f5f8267ffffffffffffffff161480156102935750825b90505f60018367ffffffffffffffff161480156102c657505f3073ffffffffffffffffffffffffffffffffffffffff163b145b9050811580156102d4575080155b1561030b576040517ff92ee8a900000000000000000000000000000000000000000000000000000000815260040160405180910390fd5b6001855f015f6101000a81548167ffffffffffffffff021916908367ffffffffffffffff1602179055508315610358576001855f0160086101000a81548160ff0219169083151502179055505b3360025f6101000a81548173ffffffffffffffffffffffffffffffffffffffff021916908373ffffffffffffffffffffffffffffffffffffffff16021790555083156103f2575f855f0160086101000a81548160ff0219169083151502179055507fc7f505b2f371ae2175ee4913f4499e1f2633a7b5936321eed1cdaeb6115181d260016040516103e99190610c8d565b60405180910390a15b5050505050565b5f5f5f8381526020019081526020015f20905042816002015482600101546104219190610cd3565b11610461576040517f08c379a000000000000000000000000000000000000000000000000000000000815260040161045890610d50565b60405180910390fd5b806003015434116104a7576040517f08c379a000000000000000000000000000000000000000000000000000000000815260040161049e90610db8565b60405180910390fd5b806005015434116104ed576040517f08c379a00000000000000000000000000000000000000000000000000000000081526004016104e490610e20565b60405180910390fd5b5f73ffffffffffffffffffffffffffffffffffffffff168160040160019054906101000a900473ffffffffffffffffffffffffffffffffffffffff1673ffffffffffffffffffffffffffffffffffffffff16146105b1578060040160019054906101000a900473ffffffffffffffffffffffffffffffffffffffff1673ffffffffffffffffffffffffffffffffffffffff166108fc826005015490811502906040515f60405180830381858888f193505050501580156105af573d5f5f3e3d5ffd5b505b338160040160016101000a81548173ffffffffffffffffffffffffffffffffffffffff021916908373ffffffffffffffffffffffffffffffffffffffff1602179055503481600501819055505050565b60025f9054906101000a900473ffffffffffffffffffffffffffffffffffffffff1673ffffffffffffffffffffffffffffffffffffffff163373ffffffffffffffffffffffffffffffffffffffff1614610690576040517f08c379a000000000000000000000000000000000000000000000000000000000815260040161068790610e88565b60405180910390fd5b61ea6084116106d4576040517f08c379a00000000000000000000000000000000000000000000000000000000081526004016106cb90610ef0565b60405180910390fd5b5f8311610716576040517f08c379a000000000000000000000000000000000000000000000000000000000815260040161070d90610f58565b60405180910390fd5b6040518061012001604052803373ffffffffffffffffffffffffffffffffffffffff1681526020014281526020018581526020018481526020015f151581526020015f73ffffffffffffffffffffffffffffffffffffffff1681526020015f81526020018373ffffffffffffffffffffffffffffffffffffffff168152602001828152505f5f60015481526020019081526020015f205f820151815f015f6101000a81548173ffffffffffffffffffffffffffffffffffffffff021916908373ffffffffffffffffffffffffffffffffffffffff1602179055506020820151816001015560408201518160020155606082015181600301556080820151816004015f6101000a81548160ff02191690831515021790555060a08201518160040160016101000a81548173ffffffffffffffffffffffffffffffffffffffff021916908373ffffffffffffffffffffffffffffffffffffffff16021790555060c0820151816005015560e0820151816006015f6101000a81548173ffffffffffffffffffffffffffffffffffffffff021916908373ffffffffffffffffffffffffffffffffffffffff160217905550610100820151816007015590505060015f8154809291906108e490610f76565b919050555050505050565b60606040518060400160405280600881526020017f68656c6c6f207632000000000000000000000000000000000000000000000000815250905090565b60025f9054906101000a900473ffffffffffffffffffffffffffffffffffffffff1681565b60015481565b5f5f61096161096a565b90508091505090565b5f7ff0c57e16840df040f15088dc2f81fe391c3923bec73e23a9662efc9c229c6a005f1b905090565b5f5ffd5b5f819050919050565b6109a981610997565b81146109b3575f5ffd5b50565b5f813590506109c4816109a0565b92915050565b5f602082840312156109df576109de610993565b5b5f6109ec848285016109b6565b91505092915050565b5f73ffffffffffffffffffffffffffffffffffffffff82169050919050565b5f610a1e826109f5565b9050919050565b610a2e81610a14565b82525050565b610a3d81610997565b82525050565b5f8115159050919050565b610a5781610a43565b82525050565b5f61012082019050610a715f83018c610a25565b610a7e602083018b610a34565b610a8b604083018a610a34565b610a986060830189610a34565b610aa56080830188610a4e565b610ab260a0830187610a25565b610abf60c0830186610a34565b610acc60e0830185610a25565b610ada610100830184610a34565b9a9950505050505050505050565b610af181610a14565b8114610afb575f5ffd5b50565b5f81359050610b0c81610ae8565b92915050565b5f5f5f5f60808587031215610b2a57610b29610993565b5b5f610b37878288016109b6565b9450506020610b48878288016109b6565b9350506040610b5987828801610afe565b9250506060610b6a878288016109b6565b91505092959194509250565b5f81519050919050565b5f82825260208201905092915050565b8281835e5f83830152505050565b5f601f19601f8301169050919050565b5f610bb882610b76565b610bc28185610b80565b9350610bd2818560208601610b90565b610bdb81610b9e565b840191505092915050565b5f6020820190508181035f830152610bfe8184610bae565b905092915050565b5f602082019050610c195f830184610a25565b92915050565b5f602082019050610c325f830184610a34565b92915050565b5f819050919050565b5f67ffffffffffffffff82169050919050565b5f819050919050565b5f610c77610c72610c6d84610c38565b610c54565b610c41565b9050919050565b610c8781610c5d565b82525050565b5f602082019050610ca05f830184610c7e565b92915050565b7f4e487b71000000000000000000000000000000000000000000000000000000005f52601160045260245ffd5b5f610cdd82610997565b9150610ce883610997565b9250828201905080821115610d0057610cff610ca6565b5b92915050565b7f61756374696f6e20697320656e646564000000000000000000000000000000005f82015250565b5f610d3a601083610b80565b9150610d4582610d06565b602082019050919050565b5f6020820190508181035f830152610d6781610d2e565b9050919050565b7f7072696365206d757374206265203e20737461727450726963650000000000005f82015250565b5f610da2601a83610b80565b9150610dad82610d6e565b602082019050919050565b5f6020820190508181035f830152610dcf81610d96565b9050919050565b7f7072696365206d757374206265203e20686967686573744269640000000000005f82015250565b5f610e0a601a83610b80565b9150610e1582610dd6565b602082019050919050565b5f6020820190508181035f830152610e3781610dfe565b9050919050565b7f6f6e6c792061646d696e2063616e206372656174652061756374696f6e7300005f82015250565b5f610e72601e83610b80565b9150610e7d82610e3e565b602082019050919050565b5f6020820190508181035f830152610e9f81610e66565b9050919050565b7f6475726174696f6e206d757374206265203e20363000000000000000000000005f82015250565b5f610eda601583610b80565b9150610ee582610ea6565b602082019050919050565b5f6020820190508181035f830152610f0781610ece565b9050919050565b7f73746172745072696365206d757374206265203e2030000000000000000000005f82015250565b5f610f42601683610b80565b9150610f4d82610f0e565b602082019050919050565b5f6020820190508181035f830152610f6f81610f36565b9050919050565b5f610f8082610997565b91507fffffffffffffffffffffffffffffffffffffffffffffffffffffffffffffffff8203610fb257610fb1610ca6565b5b60018201905091905056fea264697066735822122077453e73c8646b6127207d58ec8ada326544304c04bdca67305bfce920741ee964736f6c634300081e0033",
					"opcodes": "PUSH1 0x80 PUSH1 0x40 MSTORE CALLVALUE DUP1 ISZERO PUSH1 0xE JUMPI PUSH0 PUSH0 REVERT JUMPDEST POP PUSH2 0xFF3 DUP1 PUSH2 0x1C PUSH0 CODECOPY PUSH0 RETURN INVALID PUSH1 0x80 PUSH1 0x40 MSTORE PUSH1 0x4 CALLDATASIZE LT PUSH2 0x6F JUMPI PUSH0 CALLDATALOAD PUSH1 0xE0 SHR DUP1 PUSH4 0xB1CB48EF GT PUSH2 0x4D JUMPI DUP1 PUSH4 0xB1CB48EF EQ PUSH2 0xE9 JUMPI DUP1 PUSH4 0xC97C6353 EQ PUSH2 0x111 JUMPI DUP1 PUSH4 0xF851A440 EQ PUSH2 0x13B JUMPI DUP1 PUSH4 0xFC528482 EQ PUSH2 0x165 JUMPI PUSH2 0x6F JUMP JUMPDEST DUP1 PUSH4 0x571A26A0 EQ PUSH2 0x73 JUMPI DUP1 PUSH4 0x8129FC1C EQ PUSH2 0xB7 JUMPI DUP1 PUSH4 0x9979EF45 EQ PUSH2 0xCD JUMPI JUMPDEST PUSH0 PUSH0 REVERT JUMPDEST CALLVALUE DUP1 ISZERO PUSH2 0x7E JUMPI PUSH0 PUSH0 REVERT JUMPDEST POP PUSH2 0x99 PUSH1 0x4 DUP1 CALLDATASIZE SUB DUP2 ADD SWAP1 PUSH2 0x94 SWAP2 SWAP1 PUSH2 0x9CA JUMP JUMPDEST PUSH2 0x18F JUMP JUMPDEST PUSH1 0x40 MLOAD PUSH2 0xAE SWAP10 SWAP9 SWAP8 SWAP7 SWAP6 SWAP5 SWAP4 SWAP3 SWAP2 SWAP1 PUSH2 0xA5D JUMP JUMPDEST PUSH1 0x40 MLOAD DUP1 SWAP2 SUB SWAP1 RETURN JUMPDEST CALLVALUE DUP1 ISZERO PUSH2 0xC2 JUMPI PUSH0 PUSH0 REVERT JUMPDEST POP PUSH2 0xCB PUSH2 0x242 JUMP JUMPDEST STOP JUMPDEST PUSH2 0xE7 PUSH1 0x4 DUP1 CALLDATASIZE SUB DUP2 ADD SWAP1 PUSH2 0xE2 SWAP2 SWAP1 PUSH2 0x9CA JUMP JUMPDEST PUSH2 0x3F9 JUMP JUMPDEST STOP JUMPDEST CALLVALUE DUP1 ISZERO PUSH2 0xF4 JUMPI PUSH0 PUSH0 REVERT JUMPDEST POP PUSH2 0x10F PUSH1 0x4 DUP1 CALLDATASIZE SUB DUP2 ADD SWAP1 PUSH2 0x10A SWAP2 SWAP1 PUSH2 0xB12 JUMP JUMPDEST PUSH2 0x601 JUMP JUMPDEST STOP JUMPDEST CALLVALUE DUP1 ISZERO PUSH2 0x11C JUMPI PUSH0 PUSH0 REVERT JUMPDEST POP PUSH2 0x125 PUSH2 0x8EF JUMP JUMPDEST PUSH1 0x40 MLOAD PUSH2 0x132 SWAP2 SWAP1 PUSH2 0xBE6 JUMP JUMPDEST PUSH1 0x40 MLOAD DUP1 SWAP2 SUB SWAP1 RETURN JUMPDEST CALLVALUE DUP1 ISZERO PUSH2 0x146 JUMPI PUSH0 PUSH0 REVERT JUMPDEST POP PUSH2 0x14F PUSH2 0x92C JUMP JUMPDEST PUSH1 0x40 MLOAD PUSH2 0x15C SWAP2 SWAP1 PUSH2 0xC06 JUMP JUMPDEST PUSH1 0x40 MLOAD DUP1 SWAP2 SUB SWAP1 RETURN JUMPDEST CALLVALUE DUP1 ISZERO PUSH2 0x170 JUMPI PUSH0 PUSH0 REVERT JUMPDEST POP PUSH2 0x179 PUSH2 0x951 JUMP JUMPDEST PUSH1 0x40 MLOAD PUSH2 0x186 SWAP2 SWAP1 PUSH2 0xC1F JUMP JUMPDEST PUSH1 0x40 MLOAD DUP1 SWAP2 SUB SWAP1 RETURN JUMPDEST PUSH0 PUSH1 0x20 MSTORE DUP1 PUSH0 MSTORE PUSH1 0x40 PUSH0 KECCAK256 PUSH0 SWAP2 POP SWAP1 POP DUP1 PUSH0 ADD PUSH0 SWAP1 SLOAD SWAP1 PUSH2 0x100 EXP SWAP1 DIV PUSH20 0xFFFFFFFFFFFFFFFFFFFFFFFFFFFFFFFFFFFFFFFF AND SWAP1 DUP1 PUSH1 0x1 ADD SLOAD SWAP1 DUP1 PUSH1 0x2 ADD SLOAD SWAP1 DUP1 PUSH1 0x3 ADD SLOAD SWAP1 DUP1 PUSH1 0x4 ADD PUSH0 SWAP1 SLOAD SWAP1 PUSH2 0x100 EXP SWAP1 DIV PUSH1 0xFF AND SWAP1 DUP1 PUSH1 0x4 ADD PUSH1 0x1 SWAP1 SLOAD SWAP1 PUSH2 0x100 EXP SWAP1 DIV PUSH20 0xFFFFFFFFFFFFFFFFFFFFFFFFFFFFFFFFFFFFFFFF AND SWAP1 DUP1 PUSH1 0x5 ADD SLOAD SWAP1 DUP1 PUSH1 0x6 ADD PUSH0 SWAP1 SLOAD SWAP1 PUSH2 0x100 EXP SWAP1 DIV PUSH20 0xFFFFFFFFFFFFFFFFFFFFFFFFFFFFFFFFFFFFFFFF AND SWAP1 DUP1 PUSH1 0x7 ADD SLOAD SWAP1 POP DUP10 JUMP JUMPDEST PUSH0 PUSH2 0x24B PUSH2 0x957 JUMP JUMPDEST SWAP1 POP PUSH0 DUP2 PUSH0 ADD PUSH1 0x8 SWAP1 SLOAD SWAP1 PUSH2 0x100 EXP SWAP1 DIV PUSH1 0xFF AND ISZERO SWAP1 POP PUSH0 DUP3 PUSH0 ADD PUSH0 SWAP1 SLOAD SWAP1 PUSH2 0x100 EXP SWAP1 DIV PUSH8 0xFFFFFFFFFFFFFFFF AND SWAP1 POP PUSH0 PUSH0 DUP3 PUSH8 0xFFFFFFFFFFFFFFFF AND EQ DUP1 ISZERO PUSH2 0x293 JUMPI POP DUP3 JUMPDEST SWAP1 POP PUSH0 PUSH1 0x1 DUP4 PUSH8 0xFFFFFFFFFFFFFFFF AND EQ DUP1 ISZERO PUSH2 0x2C6 JUMPI POP PUSH0 ADDRESS PUSH20 0xFFFFFFFFFFFFFFFFFFFFFFFFFFFFFFFFFFFFFFFF AND EXTCODESIZE EQ JUMPDEST SWAP1 POP DUP2 ISZERO DUP1 ISZERO PUSH2 0x2D4 JUMPI POP DUP1 ISZERO JUMPDEST ISZERO PUSH2 0x30B JUMPI PUSH1 0x40 MLOAD PUSH32 0xF92EE8A900000000000000000000000000000000000000000000000000000000 DUP2 MSTORE PUSH1 0x4 ADD PUSH1 0x40 MLOAD DUP1 SWAP2 SUB SWAP1 REVERT JUMPDEST PUSH1 0x1 DUP6 PUSH0 ADD PUSH0 PUSH2 0x100 EXP DUP2 SLOAD DUP2 PUSH8 0xFFFFFFFFFFFFFFFF MUL NOT AND SWAP1 DUP4 PUSH8 0xFFFFFFFFFFFFFFFF AND MUL OR SWAP1 SSTORE POP DUP4 ISZERO PUSH2 0x358 JUMPI PUSH1 0x1 DUP6 PUSH0 ADD PUSH1 0x8 PUSH2 0x100 EXP DUP2 SLOAD DUP2 PUSH1 0xFF MUL NOT AND SWAP1 DUP4 ISZERO ISZERO MUL OR SWAP1 SSTORE POP JUMPDEST CALLER PUSH1 0x2 PUSH0 PUSH2 0x100 EXP DUP2 SLOAD DUP2 PUSH20 0xFFFFFFFFFFFFFFFFFFFFFFFFFFFFFFFFFFFFFFFF MUL NOT AND SWAP1 DUP4 PUSH20 0xFFFFFFFFFFFFFFFFFFFFFFFFFFFFFFFFFFFFFFFF AND MUL OR SWAP1 SSTORE POP DUP4 ISZERO PUSH2 0x3F2 JUMPI PUSH0 DUP6 PUSH0 ADD PUSH1 0x8 PUSH2 0x100 EXP DUP2 SLOAD DUP2 PUSH1 0xFF MUL NOT AND SWAP1 DUP4 ISZERO ISZERO MUL OR SWAP1 SSTORE POP PUSH32 0xC7F505B2F371AE2175EE4913F4499E1F2633A7B5936321EED1CDAEB6115181D2 PUSH1 0x1 PUSH1 0x40 MLOAD PUSH2 0x3E9 SWAP2 SWAP1 PUSH2 0xC8D JUMP JUMPDEST PUSH1 0x40 MLOAD DUP1 SWAP2 SUB SWAP1 LOG1 JUMPDEST POP POP POP POP POP JUMP JUMPDEST PUSH0 PUSH0 PUSH0 DUP4 DUP2 MSTORE PUSH1 0x20 ADD SWAP1 DUP2 MSTORE PUSH1 0x20 ADD PUSH0 KECCAK256 SWAP1 POP TIMESTAMP DUP2 PUSH1 0x2 ADD SLOAD DUP3 PUSH1 0x1 ADD SLOAD PUSH2 0x421 SWAP2 SWAP1 PUSH2 0xCD3 JUMP JUMPDEST GT PUSH2 0x461 JUMPI PUSH1 0x40 MLOAD PUSH32 0x8C379A000000000000000000000000000000000000000000000000000000000 DUP2 MSTORE PUSH1 0x4 ADD PUSH2 0x458 SWAP1 PUSH2 0xD50 JUMP JUMPDEST PUSH1 0x40 MLOAD DUP1 SWAP2 SUB SWAP1 REVERT JUMPDEST DUP1 PUSH1 0x3 ADD SLOAD CALLVALUE GT PUSH2 0x4A7 JUMPI PUSH1 0x40 MLOAD PUSH32 0x8C379A000000000000000000000000000000000000000000000000000000000 DUP2 MSTORE PUSH1 0x4 ADD PUSH2 0x49E SWAP1 PUSH2 0xDB8 JUMP JUMPDEST PUSH1 0x40 MLOAD DUP1 SWAP2 SUB SWAP1 REVERT JUMPDEST DUP1 PUSH1 0x5 ADD SLOAD CALLVALUE GT PUSH2 0x4ED JUMPI PUSH1 0x40 MLOAD PUSH32 0x8C379A000000000000000000000000000000000000000000000000000000000 DUP2 MSTORE PUSH1 0x4 ADD PUSH2 0x4E4 SWAP1 PUSH2 0xE20 JUMP JUMPDEST PUSH1 0x40 MLOAD DUP1 SWAP2 SUB SWAP1 REVERT JUMPDEST PUSH0 PUSH20 0xFFFFFFFFFFFFFFFFFFFFFFFFFFFFFFFFFFFFFFFF AND DUP2 PUSH1 0x4 ADD PUSH1 0x1 SWAP1 SLOAD SWAP1 PUSH2 0x100 EXP SWAP1 DIV PUSH20 0xFFFFFFFFFFFFFFFFFFFFFFFFFFFFFFFFFFFFFFFF AND PUSH20 0xFFFFFFFFFFFFFFFFFFFFFFFFFFFFFFFFFFFFFFFF AND EQ PUSH2 0x5B1 JUMPI DUP1 PUSH1 0x4 ADD PUSH1 0x1 SWAP1 SLOAD SWAP1 PUSH2 0x100 EXP SWAP1 DIV PUSH20 0xFFFFFFFFFFFFFFFFFFFFFFFFFFFFFFFFFFFFFFFF AND PUSH20 0xFFFFFFFFFFFFFFFFFFFFFFFFFFFFFFFFFFFFFFFF AND PUSH2 0x8FC DUP3 PUSH1 0x5 ADD SLOAD SWAP1 DUP2 ISZERO MUL SWAP1 PUSH1 0x40 MLOAD PUSH0 PUSH1 0x40 MLOAD DUP1 DUP4 SUB DUP2 DUP6 DUP9 DUP9 CALL SWAP4 POP POP POP POP ISZERO DUP1 ISZERO PUSH2 0x5AF JUMPI RETURNDATASIZE PUSH0 PUSH0 RETURNDATACOPY RETURNDATASIZE PUSH0 REVERT JUMPDEST POP JUMPDEST CALLER DUP2 PUSH1 0x4 ADD PUSH1 0x1 PUSH2 0x100 EXP DUP2 SLOAD DUP2 PUSH20 0xFFFFFFFFFFFFFFFFFFFFFFFFFFFFFFFFFFFFFFFF MUL NOT AND SWAP1 DUP4 PUSH20 0xFFFFFFFFFFFFFFFFFFFFFFFFFFFFFFFFFFFFFFFF AND MUL OR SWAP1 SSTORE POP CALLVALUE DUP2 PUSH1 0x5 ADD DUP2 SWAP1 SSTORE POP POP POP JUMP JUMPDEST PUSH1 0x2 PUSH0 SWAP1 SLOAD SWAP1 PUSH2 0x100 EXP SWAP1 DIV PUSH20 0xFFFFFFFFFFFFFFFFFFFFFFFFFFFFFFFFFFFFFFFF AND PUSH20 0xFFFFFFFFFFFFFFFFFFFFFFFFFFFFFFFFFFFFFFFF AND CALLER PUSH20 0xFFFFFFFFFFFFFFFFFFFFFFFFFFFFFFFFFFFFFFFF AND EQ PUSH2 0x690 JUMPI PUSH1 0x40 MLOAD PUSH32 0x8C379A000000000000000000000000000000000000000000000000000000000 DUP2 MSTORE PUSH1 0x4 ADD PUSH2 0x687 SWAP1 PUSH2 0xE88 JUMP JUMPDEST PUSH1 0x40 MLOAD DUP1 SWAP2 SUB SWAP1 REVERT JUMPDEST PUSH2 0xEA60 DUP5 GT PUSH2 0x6D4 JUMPI PUSH1 0x40 MLOAD PUSH32 0x8C379A000000000000000000000000000000000000000000000000000000000 DUP2 MSTORE PUSH1 0x4 ADD PUSH2 0x6CB SWAP1 PUSH2 0xEF0 JUMP JUMPDEST PUSH1 0x40 MLOAD DUP1 SWAP2 SUB SWAP1 REVERT JUMPDEST PUSH0 DUP4 GT PUSH2 0x716 JUMPI PUSH1 0x40 MLOAD PUSH32 0x8C379A000000000000000000000000000000000000000000000000000000000 DUP2 MSTORE PUSH1 0x4 ADD PUSH2 0x70D SWAP1 PUSH2 0xF58 JUMP JUMPDEST PUSH1 0x40 MLOAD DUP1 SWAP2 SUB SWAP1 REVERT JUMPDEST PUSH1 0x40 MLOAD DUP1 PUSH2 0x120 ADD PUSH1 0x40 MSTORE DUP1 CALLER PUSH20 0xFFFFFFFFFFFFFFFFFFFFFFFFFFFFFFFFFFFFFFFF AND DUP2 MSTORE PUSH1 0x20 ADD TIMESTAMP DUP2 MSTORE PUSH1 0x20 ADD DUP6 DUP2 MSTORE PUSH1 0x20 ADD DUP5 DUP2 MSTORE PUSH1 0x20 ADD PUSH0 ISZERO ISZERO DUP2 MSTORE PUSH1 0x20 ADD PUSH0 PUSH20 0xFFFFFFFFFFFFFFFFFFFFFFFFFFFFFFFFFFFFFFFF AND DUP2 MSTORE PUSH1 0x20 ADD PUSH0 DUP2 MSTORE PUSH1 0x20 ADD DUP4 PUSH20 0xFFFFFFFFFFFFFFFFFFFFFFFFFFFFFFFFFFFFFFFF AND DUP2 MSTORE PUSH1 0x20 ADD DUP3 DUP2 MSTORE POP PUSH0 PUSH0 PUSH1 0x1 SLOAD DUP2 MSTORE PUSH1 0x20 ADD SWAP1 DUP2 MSTORE PUSH1 0x20 ADD PUSH0 KECCAK256 PUSH0 DUP3 ADD MLOAD DUP2 PUSH0 ADD PUSH0 PUSH2 0x100 EXP DUP2 SLOAD DUP2 PUSH20 0xFFFFFFFFFFFFFFFFFFFFFFFFFFFFFFFFFFFFFFFF MUL NOT AND SWAP1 DUP4 PUSH20 0xFFFFFFFFFFFFFFFFFFFFFFFFFFFFFFFFFFFFFFFF AND MUL OR SWAP1 SSTORE POP PUSH1 0x20 DUP3 ADD MLOAD DUP2 PUSH1 0x1 ADD SSTORE PUSH1 0x40 DUP3 ADD MLOAD DUP2 PUSH1 0x2 ADD SSTORE PUSH1 0x60 DUP3 ADD MLOAD DUP2 PUSH1 0x3 ADD SSTORE PUSH1 0x80 DUP3 ADD MLOAD DUP2 PUSH1 0x4 ADD PUSH0 PUSH2 0x100 EXP DUP2 SLOAD DUP2 PUSH1 0xFF MUL NOT AND SWAP1 DUP4 ISZERO ISZERO MUL OR SWAP1 SSTORE POP PUSH1 0xA0 DUP3 ADD MLOAD DUP2 PUSH1 0x4 ADD PUSH1 0x1 PUSH2 0x100 EXP DUP2 SLOAD DUP2 PUSH20 0xFFFFFFFFFFFFFFFFFFFFFFFFFFFFFFFFFFFFFFFF MUL NOT AND SWAP1 DUP4 PUSH20 0xFFFFFFFFFFFFFFFFFFFFFFFFFFFFFFFFFFFFFFFF AND MUL OR SWAP1 SSTORE POP PUSH1 0xC0 DUP3 ADD MLOAD DUP2 PUSH1 0x5 ADD SSTORE PUSH1 0xE0 DUP3 ADD MLOAD DUP2 PUSH1 0x6 ADD PUSH0 PUSH2 0x100 EXP DUP2 SLOAD DUP2 PUSH20 0xFFFFFFFFFFFFFFFFFFFFFFFFFFFFFFFFFFFFFFFF MUL NOT AND SWAP1 DUP4 PUSH20 0xFFFFFFFFFFFFFFFFFFFFFFFFFFFFFFFFFFFFFFFF AND MUL OR SWAP1 SSTORE POP PUSH2 0x100 DUP3 ADD MLOAD DUP2 PUSH1 0x7 ADD SSTORE SWAP1 POP POP PUSH1 0x1 PUSH0 DUP2 SLOAD DUP1 SWAP3 SWAP2 SWAP1 PUSH2 0x8E4 SWAP1 PUSH2 0xF76 JUMP JUMPDEST SWAP2 SWAP1 POP SSTORE POP POP POP POP POP JUMP JUMPDEST PUSH1 0x60 PUSH1 0x40 MLOAD DUP1 PUSH1 0x40 ADD PUSH1 0x40 MSTORE DUP1 PUSH1 0x8 DUP2 MSTORE PUSH1 0x20 ADD PUSH32 0x68656C6C6F207632000000000000000000000000000000000000000000000000 DUP2 MSTORE POP SWAP1 POP SWAP1 JUMP JUMPDEST PUSH1 0x2 PUSH0 SWAP1 SLOAD SWAP1 PUSH2 0x100 EXP SWAP1 DIV PUSH20 0xFFFFFFFFFFFFFFFFFFFFFFFFFFFFFFFFFFFFFFFF AND DUP2 JUMP JUMPDEST PUSH1 0x1 SLOAD DUP2 JUMP JUMPDEST PUSH0 PUSH0 PUSH2 0x961 PUSH2 0x96A JUMP JUMPDEST SWAP1 POP DUP1 SWAP2 POP POP SWAP1 JUMP JUMPDEST PUSH0 PUSH32 0xF0C57E16840DF040F15088DC2F81FE391C3923BEC73E23A9662EFC9C229C6A00 PUSH0 SHL SWAP1 POP SWAP1 JUMP JUMPDEST PUSH0 PUSH0 REVERT JUMPDEST PUSH0 DUP2 SWAP1 POP SWAP2 SWAP1 POP JUMP JUMPDEST PUSH2 0x9A9 DUP2 PUSH2 0x997 JUMP JUMPDEST DUP2 EQ PUSH2 0x9B3 JUMPI PUSH0 PUSH0 REVERT JUMPDEST POP JUMP JUMPDEST PUSH0 DUP2 CALLDATALOAD SWAP1 POP PUSH2 0x9C4 DUP2 PUSH2 0x9A0 JUMP JUMPDEST SWAP3 SWAP2 POP POP JUMP JUMPDEST PUSH0 PUSH1 0x20 DUP3 DUP5 SUB SLT ISZERO PUSH2 0x9DF JUMPI PUSH2 0x9DE PUSH2 0x993 JUMP JUMPDEST JUMPDEST PUSH0 PUSH2 0x9EC DUP5 DUP3 DUP6 ADD PUSH2 0x9B6 JUMP JUMPDEST SWAP2 POP POP SWAP3 SWAP2 POP POP JUMP JUMPDEST PUSH0 PUSH20 0xFFFFFFFFFFFFFFFFFFFFFFFFFFFFFFFFFFFFFFFF DUP3 AND SWAP1 POP SWAP2 SWAP1 POP JUMP JUMPDEST PUSH0 PUSH2 0xA1E DUP3 PUSH2 0x9F5 JUMP JUMPDEST SWAP1 POP SWAP2 SWAP1 POP JUMP JUMPDEST PUSH2 0xA2E DUP2 PUSH2 0xA14 JUMP JUMPDEST DUP3 MSTORE POP POP JUMP JUMPDEST PUSH2 0xA3D DUP2 PUSH2 0x997 JUMP JUMPDEST DUP3 MSTORE POP POP JUMP JUMPDEST PUSH0 DUP2 ISZERO ISZERO SWAP1 POP SWAP2 SWAP1 POP JUMP JUMPDEST PUSH2 0xA57 DUP2 PUSH2 0xA43 JUMP JUMPDEST DUP3 MSTORE POP POP JUMP JUMPDEST PUSH0 PUSH2 0x120 DUP3 ADD SWAP1 POP PUSH2 0xA71 PUSH0 DUP4 ADD DUP13 PUSH2 0xA25 JUMP JUMPDEST PUSH2 0xA7E PUSH1 0x20 DUP4 ADD DUP12 PUSH2 0xA34 JUMP JUMPDEST PUSH2 0xA8B PUSH1 0x40 DUP4 ADD DUP11 PUSH2 0xA34 JUMP JUMPDEST PUSH2 0xA98 PUSH1 0x60 DUP4 ADD DUP10 PUSH2 0xA34 JUMP JUMPDEST PUSH2 0xAA5 PUSH1 0x80 DUP4 ADD DUP9 PUSH2 0xA4E JUMP JUMPDEST PUSH2 0xAB2 PUSH1 0xA0 DUP4 ADD DUP8 PUSH2 0xA25 JUMP JUMPDEST PUSH2 0xABF PUSH1 0xC0 DUP4 ADD DUP7 PUSH2 0xA34 JUMP JUMPDEST PUSH2 0xACC PUSH1 0xE0 DUP4 ADD DUP6 PUSH2 0xA25 JUMP JUMPDEST PUSH2 0xADA PUSH2 0x100 DUP4 ADD DUP5 PUSH2 0xA34 JUMP JUMPDEST SWAP11 SWAP10 POP POP POP POP POP POP POP POP POP POP JUMP JUMPDEST PUSH2 0xAF1 DUP2 PUSH2 0xA14 JUMP JUMPDEST DUP2 EQ PUSH2 0xAFB JUMPI PUSH0 PUSH0 REVERT JUMPDEST POP JUMP JUMPDEST PUSH0 DUP2 CALLDATALOAD SWAP1 POP PUSH2 0xB0C DUP2 PUSH2 0xAE8 JUMP JUMPDEST SWAP3 SWAP2 POP POP JUMP JUMPDEST PUSH0 PUSH0 PUSH0 PUSH0 PUSH1 0x80 DUP6 DUP8 SUB SLT ISZERO PUSH2 0xB2A JUMPI PUSH2 0xB29 PUSH2 0x993 JUMP JUMPDEST JUMPDEST PUSH0 PUSH2 0xB37 DUP8 DUP3 DUP9 ADD PUSH2 0x9B6 JUMP JUMPDEST SWAP5 POP POP PUSH1 0x20 PUSH2 0xB48 DUP8 DUP3 DUP9 ADD PUSH2 0x9B6 JUMP JUMPDEST SWAP4 POP POP PUSH1 0x40 PUSH2 0xB59 DUP8 DUP3 DUP9 ADD PUSH2 0xAFE JUMP JUMPDEST SWAP3 POP POP PUSH1 0x60 PUSH2 0xB6A DUP8 DUP3 DUP9 ADD PUSH2 0x9B6 JUMP JUMPDEST SWAP2 POP POP SWAP3 SWAP6 SWAP2 SWAP5 POP SWAP3 POP JUMP JUMPDEST PUSH0 DUP2 MLOAD SWAP1 POP SWAP2 SWAP1 POP JUMP JUMPDEST PUSH0 DUP3 DUP3 MSTORE PUSH1 0x20 DUP3 ADD SWAP1 POP SWAP3 SWAP2 POP POP JUMP JUMPDEST DUP3 DUP2 DUP4 MCOPY PUSH0 DUP4 DUP4 ADD MSTORE POP POP POP JUMP JUMPDEST PUSH0 PUSH1 0x1F NOT PUSH1 0x1F DUP4 ADD AND SWAP1 POP SWAP2 SWAP1 POP JUMP JUMPDEST PUSH0 PUSH2 0xBB8 DUP3 PUSH2 0xB76 JUMP JUMPDEST PUSH2 0xBC2 DUP2 DUP6 PUSH2 0xB80 JUMP JUMPDEST SWAP4 POP PUSH2 0xBD2 DUP2 DUP6 PUSH1 0x20 DUP7 ADD PUSH2 0xB90 JUMP JUMPDEST PUSH2 0xBDB DUP2 PUSH2 0xB9E JUMP JUMPDEST DUP5 ADD SWAP2 POP POP SWAP3 SWAP2 POP POP JUMP JUMPDEST PUSH0 PUSH1 0x20 DUP3 ADD SWAP1 POP DUP2 DUP2 SUB PUSH0 DUP4 ADD MSTORE PUSH2 0xBFE DUP2 DUP5 PUSH2 0xBAE JUMP JUMPDEST SWAP1 POP SWAP3 SWAP2 POP POP JUMP JUMPDEST PUSH0 PUSH1 0x20 DUP3 ADD SWAP1 POP PUSH2 0xC19 PUSH0 DUP4 ADD DUP5 PUSH2 0xA25 JUMP JUMPDEST SWAP3 SWAP2 POP POP JUMP JUMPDEST PUSH0 PUSH1 0x20 DUP3 ADD SWAP1 POP PUSH2 0xC32 PUSH0 DUP4 ADD DUP5 PUSH2 0xA34 JUMP JUMPDEST SWAP3 SWAP2 POP POP JUMP JUMPDEST PUSH0 DUP2 SWAP1 POP SWAP2 SWAP1 POP JUMP JUMPDEST PUSH0 PUSH8 0xFFFFFFFFFFFFFFFF DUP3 AND SWAP1 POP SWAP2 SWAP1 POP JUMP JUMPDEST PUSH0 DUP2 SWAP1 POP SWAP2 SWAP1 POP JUMP JUMPDEST PUSH0 PUSH2 0xC77 PUSH2 0xC72 PUSH2 0xC6D DUP5 PUSH2 0xC38 JUMP JUMPDEST PUSH2 0xC54 JUMP JUMPDEST PUSH2 0xC41 JUMP JUMPDEST SWAP1 POP SWAP2 SWAP1 POP JUMP JUMPDEST PUSH2 0xC87 DUP2 PUSH2 0xC5D JUMP JUMPDEST DUP3 MSTORE POP POP JUMP JUMPDEST PUSH0 PUSH1 0x20 DUP3 ADD SWAP1 POP PUSH2 0xCA0 PUSH0 DUP4 ADD DUP5 PUSH2 0xC7E JUMP JUMPDEST SWAP3 SWAP2 POP POP JUMP JUMPDEST PUSH32 0x4E487B7100000000000000000000000000000000000000000000000000000000 PUSH0 MSTORE PUSH1 0x11 PUSH1 0x4 MSTORE PUSH1 0x24 PUSH0 REVERT JUMPDEST PUSH0 PUSH2 0xCDD DUP3 PUSH2 0x997 JUMP JUMPDEST SWAP2 POP PUSH2 0xCE8 DUP4 PUSH2 0x997 JUMP JUMPDEST SWAP3 POP DUP3 DUP3 ADD SWAP1 POP DUP1 DUP3 GT ISZERO PUSH2 0xD00 JUMPI PUSH2 0xCFF PUSH2 0xCA6 JUMP JUMPDEST JUMPDEST SWAP3 SWAP2 POP POP JUMP JUMPDEST PUSH32 0x61756374696F6E20697320656E64656400000000000000000000000000000000 PUSH0 DUP3 ADD MSTORE POP JUMP JUMPDEST PUSH0 PUSH2 0xD3A PUSH1 0x10 DUP4 PUSH2 0xB80 JUMP JUMPDEST SWAP2 POP PUSH2 0xD45 DUP3 PUSH2 0xD06 JUMP JUMPDEST PUSH1 0x20 DUP3 ADD SWAP1 POP SWAP2 SWAP1 POP JUMP JUMPDEST PUSH0 PUSH1 0x20 DUP3 ADD SWAP1 POP DUP2 DUP2 SUB PUSH0 DUP4 ADD MSTORE PUSH2 0xD67 DUP2 PUSH2 0xD2E JUMP JUMPDEST SWAP1 POP SWAP2 SWAP1 POP JUMP JUMPDEST PUSH32 0x7072696365206D757374206265203E2073746172745072696365000000000000 PUSH0 DUP3 ADD MSTORE POP JUMP JUMPDEST PUSH0 PUSH2 0xDA2 PUSH1 0x1A DUP4 PUSH2 0xB80 JUMP JUMPDEST SWAP2 POP PUSH2 0xDAD DUP3 PUSH2 0xD6E JUMP JUMPDEST PUSH1 0x20 DUP3 ADD SWAP1 POP SWAP2 SWAP1 POP JUMP JUMPDEST PUSH0 PUSH1 0x20 DUP3 ADD SWAP1 POP DUP2 DUP2 SUB PUSH0 DUP4 ADD MSTORE PUSH2 0xDCF DUP2 PUSH2 0xD96 JUMP JUMPDEST SWAP1 POP SWAP2 SWAP1 POP JUMP JUMPDEST PUSH32 0x7072696365206D757374206265203E2068696768657374426964000000000000 PUSH0 DUP3 ADD MSTORE POP JUMP JUMPDEST PUSH0 PUSH2 0xE0A PUSH1 0x1A DUP4 PUSH2 0xB80 JUMP JUMPDEST SWAP2 POP PUSH2 0xE15 DUP3 PUSH2 0xDD6 JUMP JUMPDEST PUSH1 0x20 DUP3 ADD SWAP1 POP SWAP2 SWAP1 POP JUMP JUMPDEST PUSH0 PUSH1 0x20 DUP3 ADD SWAP1 POP DUP2 DUP2 SUB PUSH0 DUP4 ADD MSTORE PUSH2 0xE37 DUP2 PUSH2 0xDFE JUMP JUMPDEST SWAP1 POP SWAP2 SWAP1 POP JUMP JUMPDEST PUSH32 0x6F6E6C792061646D696E2063616E206372656174652061756374696F6E730000 PUSH0 DUP3 ADD MSTORE POP JUMP JUMPDEST PUSH0 PUSH2 0xE72 PUSH1 0x1E DUP4 PUSH2 0xB80 JUMP JUMPDEST SWAP2 POP PUSH2 0xE7D DUP3 PUSH2 0xE3E JUMP JUMPDEST PUSH1 0x20 DUP3 ADD SWAP1 POP SWAP2 SWAP1 POP JUMP JUMPDEST PUSH0 PUSH1 0x20 DUP3 ADD SWAP1 POP DUP2 DUP2 SUB PUSH0 DUP4 ADD MSTORE PUSH2 0xE9F DUP2 PUSH2 0xE66 JUMP JUMPDEST SWAP1 POP SWAP2 SWAP1 POP JUMP JUMPDEST PUSH32 0x6475726174696F6E206D757374206265203E2036300000000000000000000000 PUSH0 DUP3 ADD MSTORE POP JUMP JUMPDEST PUSH0 PUSH2 0xEDA PUSH1 0x15 DUP4 PUSH2 0xB80 JUMP JUMPDEST SWAP2 POP PUSH2 0xEE5 DUP3 PUSH2 0xEA6 JUMP JUMPDEST PUSH1 0x20 DUP3 ADD SWAP1 POP SWAP2 SWAP1 POP JUMP JUMPDEST PUSH0 PUSH1 0x20 DUP3 ADD SWAP1 POP DUP2 DUP2 SUB PUSH0 DUP4 ADD MSTORE PUSH2 0xF07 DUP2 PUSH2 0xECE JUMP JUMPDEST SWAP1 POP SWAP2 SWAP1 POP JUMP JUMPDEST PUSH32 0x73746172745072696365206D757374206265203E203000000000000000000000 PUSH0 DUP3 ADD MSTORE POP JUMP JUMPDEST PUSH0 PUSH2 0xF42 PUSH1 0x16 DUP4 PUSH2 0xB80 JUMP JUMPDEST SWAP2 POP PUSH2 0xF4D DUP3 PUSH2 0xF0E JUMP JUMPDEST PUSH1 0x20 DUP3 ADD SWAP1 POP SWAP2 SWAP1 POP JUMP JUMPDEST PUSH0 PUSH1 0x20 DUP3 ADD SWAP1 POP DUP2 DUP2 SUB PUSH0 DUP4 ADD MSTORE PUSH2 0xF6F DUP2 PUSH2 0xF36 JUMP JUMPDEST SWAP1 POP SWAP2 SWAP1 POP JUMP JUMPDEST PUSH0 PUSH2 0xF80 DUP3 PUSH2 0x997 JUMP JUMPDEST SWAP2 POP PUSH32 0xFFFFFFFFFFFFFFFFFFFFFFFFFFFFFFFFFFFFFFFFFFFFFFFFFFFFFFFFFFFFFFFF DUP3 SUB PUSH2 0xFB2 JUMPI PUSH2 0xFB1 PUSH2 0xCA6 JUMP JUMPDEST JUMPDEST PUSH1 0x1 DUP3 ADD SWAP1 POP SWAP2 SWAP1 POP JUMP INVALID LOG2 PUSH5 0x6970667358 0x22 SLT KECCAK256 PUSH24 0x453E73C8646B6127207D58EC8ADA326544304C04BDCA6730 JUMPDEST 0xFC 0xE9 KECCAK256 PUSH21 0x1EE964736F6C634300081E00330000000000000000 "
				},
				"gasEstimates": {
					"creation": {
						"codeDepositCost": "816600",
						"executionCost": "849",
						"totalCost": "817449"
					},
					"external": {
						"admin()": "2552",
						"auctions(uint256)": "infinite",
						"createAuction(uint256,uint256,address,uint256)": "infinite",
						"initialize()": "105918",
						"nextAuctionId()": "2491",
						"placeBid(uint256)": "infinite",
						"testHello()": "infinite"
					}
				},
				"methodIdentifiers": {
					"admin()": "f851a440",
					"auctions(uint256)": "571a26a0",
					"createAuction(uint256,uint256,address,uint256)": "b1cb48ef",
					"initialize()": "8129fc1c",
					"nextAuctionId()": "fc528482",
					"placeBid(uint256)": "9979ef45",
					"testHello()": "c97c6353"
				}
			},
			"storageLayout": {
				"storage": [
					{
						"astId": 296,
						"contract": "task/contracts/task3/NftAuctionV2.sol:NftAuctionV2",
						"label": "auctions",
						"offset": 0,
						"slot": "0",
						"type": "t_mapping(t_uint256,t_struct(Auction)291_storage)"
					},
					{
						"astId": 298,
						"contract": "task/contracts/task3/NftAuctionV2.sol:NftAuctionV2",
						"label": "nextAuctionId",
						"offset": 0,
						"slot": "1",
						"type": "t_uint256"
					},
					{
						"astId": 300,
						"contract": "task/contracts/task3/NftAuctionV2.sol:NftAuctionV2",
						"label": "admin",
						"offset": 0,
						"slot": "2",
						"type": "t_address"
					}
				],
				"types": {
					"t_address": {
						"encoding": "inplace",
						"label": "address",
						"numberOfBytes": "20"
					},
					"t_bool": {
						"encoding": "inplace",
						"label": "bool",
						"numberOfBytes": "1"
					},
					"t_mapping(t_uint256,t_struct(Auction)291_storage)": {
						"encoding": "mapping",
						"key": "t_uint256",
						"label": "mapping(uint256 => struct NftAuction.Auction)",
						"numberOfBytes": "32",
						"value": "t_struct(Auction)291_storage"
					},
					"t_struct(Auction)291_storage": {
						"encoding": "inplace",
						"label": "struct NftAuction.Auction",
						"members": [
							{
								"astId": 274,
								"contract": "task/contracts/task3/NftAuctionV2.sol:NftAuctionV2",
								"label": "seller",
								"offset": 0,
								"slot": "0",
								"type": "t_address"
							},
							{
								"astId": 276,
								"contract": "task/contracts/task3/NftAuctionV2.sol:NftAuctionV2",
								"label": "startTime",
								"offset": 0,
								"slot": "1",
								"type": "t_uint256"
							},
							{
								"astId": 278,
								"contract": "task/contracts/task3/NftAuctionV2.sol:NftAuctionV2",
								"label": "duration",
								"offset": 0,
								"slot": "2",
								"type": "t_uint256"
							},
							{
								"astId": 280,
								"contract": "task/contracts/task3/NftAuctionV2.sol:NftAuctionV2",
								"label": "startPrice",
								"offset": 0,
								"slot": "3",
								"type": "t_uint256"
							},
							{
								"astId": 282,
								"contract": "task/contracts/task3/NftAuctionV2.sol:NftAuctionV2",
								"label": "ended",
								"offset": 0,
								"slot": "4",
								"type": "t_bool"
							},
							{
								"astId": 284,
								"contract": "task/contracts/task3/NftAuctionV2.sol:NftAuctionV2",
								"label": "highestBidder",
								"offset": 1,
								"slot": "4",
								"type": "t_address"
							},
							{
								"astId": 286,
								"contract": "task/contracts/task3/NftAuctionV2.sol:NftAuctionV2",
								"label": "highestBid",
								"offset": 0,
								"slot": "5",
								"type": "t_uint256"
							},
							{
								"astId": 288,
								"contract": "task/contracts/task3/NftAuctionV2.sol:NftAuctionV2",
								"label": "nftContract",
								"offset": 0,
								"slot": "6",
								"type": "t_address"
							},
							{
								"astId": 290,
								"contract": "task/contracts/task3/NftAuctionV2.sol:NftAuctionV2",
								"label": "nftId",
								"offset": 0,
								"slot": "7",
								"type": "t_uint256"
							}
						],
						"numberOfBytes": "256"
					},
					"t_uint256": {
						"encoding": "inplace",
						"label": "uint256",
						"numberOfBytes": "32"
					}
				}
			},
			"userdoc": {
				"kind": "user",
				"methods": {},
				"version": 1
			}
		}
	}
}