{
  "address": "0x2279B7A0a67DB372996a5FaB50D91eAA73d2eBe6",
  "abi": [
    {
      "inputs": [],
      "stateMutability": "nonpayable",
      "type": "constructor"
    },
    {
      "anonymous": false,
      "inputs": [
        {
          "indexed": false,
          "internalType": "address",
          "name": "donor",
          "type": "address"
        },
        {
          "indexed": false,
          "internalType": "uint256",
          "name": "amount",
          "type": "uint256"
        }
      ],
      "name": "DonationReceived",
      "type": "event"
    },
    {
      "inputs": [],
      "name": "donate",
      "outputs": [],
      "stateMutability": "payable",
      "type": "function"
    },
    {
      "inputs": [
        {
          "internalType": "address",
          "name": "addr",
          "type": "address"
        }
      ],
      "name": "getDonation",
      "outputs": [
        {
          "internalType": "uint256",
          "name": "",
          "type": "uint256"
        }
      ],
      "stateMutability": "view",
      "type": "function"
    },
    {
      "inputs": [],
      "name": "getTopDonors",
      "outputs": [
        {
          "internalType": "address[]",
          "name": "",
          "type": "address[]"
        },
        {
          "internalType": "uint256[]",
          "name": "",
          "type": "uint256[]"
        }
      ],
      "stateMutability": "view",
      "type": "function"
    },
    {
      "inputs": [],
      "name": "withdraw",
      "outputs": [],
      "stateMutability": "nonpayable",
      "type": "function"
    }
  ],
  "transactionHash": "0xc3359b295545797a088dcdb5e5f9f8c8f20199c097ade7a2b49440a64d58356d",
  "args": [],
  "numDeployments": 1,
  "solcInputHash": "880f970cb0f97c450265bc6d85b7edff",
  "bytecode": "0x6080604052348015600f57600080fd5b5033600260006101000a81548173ffffffffffffffffffffffffffffffffffffffff021916908373ffffffffffffffffffffffffffffffffffffffff160217905550603c42605c9190609f565b60038190555060cc565b6000819050919050565b7f4e487b7100000000000000000000000000000000000000000000000000000000600052601160045260246000fd5b600060a8826066565b915060b1836066565b925082820190508082111560c65760c56070565b5b92915050565b610b95806100db6000396000f3fe60806040526004361061003f5760003560e01c80633ccfd60b14610044578063410a1d321461005b578063d6387ed814610098578063ed88c68e146100c4575b600080fd5b34801561005057600080fd5b506100596100ce565b005b34801561006757600080fd5b50610082600480360381019061007d91906106d7565b610257565b60405161008f919061071d565b60405180910390f35b3480156100a457600080fd5b506100ad61029f565b6040516100bb9291906108b4565b60405180910390f35b6100cc61053d565b005b600260009054906101000a900473ffffffffffffffffffffffffffffffffffffffff1673ffffffffffffffffffffffffffffffffffffffff163373ffffffffffffffffffffffffffffffffffffffff161461015e576040517f08c379a00000000000000000000000000000000000000000000000000000000081526004016101559061096e565b60405180910390fd5b6003544210156101a3576040517f08c379a000000000000000000000000000000000000000000000000000000000815260040161019a906109da565b60405180910390fd5b6000479050600081116101eb576040517f08c379a00000000000000000000000000000000000000000000000000000000081526004016101e290610a46565b60405180910390fd5b600260009054906101000a900473ffffffffffffffffffffffffffffffffffffffff1673ffffffffffffffffffffffffffffffffffffffff166108fc829081150290604051600060405180830381858888f19350505050158015610253573d6000803e3d6000fd5b5050565b60008060008373ffffffffffffffffffffffffffffffffffffffff1673ffffffffffffffffffffffffffffffffffffffff168152602001908152602001600020549050919050565b6060806000600367ffffffffffffffff8111156102bf576102be610a66565b5b6040519080825280602002602001820160405280156102ed5781602001602082028036833780820191505090505b5090506000600367ffffffffffffffff81111561030d5761030c610a66565b5b60405190808252806020026020018201604052801561033b5781602001602082028036833780820191505090505b50905060005b60038110156105305760008060005b60018054905081101561047d5760006001828154811061037357610372610a95565b5b9060005260206000200160009054906101000a900473ffffffffffffffffffffffffffffffffffffffff1690506000805b885181101561040c578273ffffffffffffffffffffffffffffffffffffffff168982815181106103d7576103d6610a95565b5b602002602001015173ffffffffffffffffffffffffffffffffffffffff16036103ff57600191505b80806001019150506103a4565b50801561041a575050610470565b60008060008473ffffffffffffffffffffffffffffffffffffffff1673ffffffffffffffffffffffffffffffffffffffff1681526020019081526020016000205490508481111561046c578295508094505b5050505b8080600101915050610350565b50600073ffffffffffffffffffffffffffffffffffffffff168273ffffffffffffffffffffffffffffffffffffffff161461052157818584815181106104c6576104c5610a95565b5b602002602001019073ffffffffffffffffffffffffffffffffffffffff16908173ffffffffffffffffffffffffffffffffffffffff16815250508084848151811061051457610513610a95565b5b6020026020010181815250505b50508080600101915050610341565b5081819350935050509091565b6003544210610581576040517f08c379a0000000000000000000000000000000000000000000000000000000008152600401610578906109da565b60405180910390fd5b346000803373ffffffffffffffffffffffffffffffffffffffff1673ffffffffffffffffffffffffffffffffffffffff16815260200190815260200160002060008282546105cf9190610af3565b925050819055506001339080600181540180825580915050600190039060005260206000200160009091909190916101000a81548173ffffffffffffffffffffffffffffffffffffffff021916908373ffffffffffffffffffffffffffffffffffffffff1602179055507f264f630d9efa0d07053a31163641d9fcc0adafc9d9e76f1c37c2ce3a558d2c52333460405161066a929190610b36565b60405180910390a1565b600080fd5b600073ffffffffffffffffffffffffffffffffffffffff82169050919050565b60006106a482610679565b9050919050565b6106b481610699565b81146106bf57600080fd5b50565b6000813590506106d1816106ab565b92915050565b6000602082840312156106ed576106ec610674565b5b60006106fb848285016106c2565b91505092915050565b6000819050919050565b61071781610704565b82525050565b6000602082019050610732600083018461070e565b92915050565b600081519050919050565b600082825260208201905092915050565b6000819050602082019050919050565b61076d81610699565b82525050565b600061077f8383610764565b60208301905092915050565b6000602082019050919050565b60006107a382610738565b6107ad8185610743565b93506107b883610754565b8060005b838110156107e95781516107d08882610773565b97506107db8361078b565b9250506001810190506107bc565b5085935050505092915050565b600081519050919050565b600082825260208201905092915050565b6000819050602082019050919050565b61082b81610704565b82525050565b600061083d8383610822565b60208301905092915050565b6000602082019050919050565b6000610861826107f6565b61086b8185610801565b935061087683610812565b8060005b838110156108a757815161088e8882610831565b975061089983610849565b92505060018101905061087a565b5085935050505092915050565b600060408201905081810360008301526108ce8185610798565b905081810360208301526108e28184610856565b90509392505050565b600082825260208201905092915050565b7f6f6e6c79206f776e65722063616e2063616c6c20746869732066756e6374696f60008201527f6e00000000000000000000000000000000000000000000000000000000000000602082015250565b60006109586021836108eb565b9150610963826108fc565b604082019050919050565b600060208201905081810360008301526109878161094b565b9050919050565b7f77696e646f777320697320636c6f736564000000000000000000000000000000600082015250565b60006109c46011836108eb565b91506109cf8261098e565b602082019050919050565b600060208201905081810360008301526109f3816109b7565b9050919050565b7f4e6f2066756e647320746f207769746864726177000000000000000000000000600082015250565b6000610a306014836108eb565b9150610a3b826109fa565b602082019050919050565b60006020820190508181036000830152610a5f81610a23565b9050919050565b7f4e487b7100000000000000000000000000000000000000000000000000000000600052604160045260246000fd5b7f4e487b7100000000000000000000000000000000000000000000000000000000600052603260045260246000fd5b7f4e487b7100000000000000000000000000000000000000000000000000000000600052601160045260246000fd5b6000610afe82610704565b9150610b0983610704565b9250828201905080821115610b2157610b20610ac4565b5b92915050565b610b3081610699565b82525050565b6000604082019050610b4b6000830185610b27565b610b58602083018461070e565b939250505056fea2646970667358221220c67da9bff0e0c4281f57892c8ce80a0ec0e01b96a6b65505392c02cbe750efc764736f6c634300081e0033",
  "devdoc": {
    "kind": "dev",
    "methods": {},
    "version": 1
  },
  "userdoc": {
    "kind": "user",
    "methods": {},
    "version": 1
  },
  "storageLayout": {
    "storage": [
      {
        "astId": 9821,
        "contract": "contracts/task2/BeggingContract.sol:BeggingContract",
        "label": "donorMap",
        "offset": 0,
        "slot": "0",
        "type": "t_mapping(t_address,t_uint256)"
      },
      {
        "astId": 9824,
        "contract": "contracts/task2/BeggingContract.sol:BeggingContract",
        "label": "donors",
        "offset": 0,
        "slot": "1",
        "type": "t_array(t_address)dyn_storage"
      },
      {
        "astId": 9826,
        "contract": "contracts/task2/BeggingContract.sol:BeggingContract",
        "label": "owner",
        "offset": 0,
        "slot": "2",
        "type": "t_address"
      },
      {
        "astId": 9828,
        "contract": "contracts/task2/BeggingContract.sol:BeggingContract",
        "label": "windowsCloseTime",
        "offset": 0,
        "slot": "3",
        "type": "t_uint256"
      }
    ],
    "types": {
      "t_address": {
        "encoding": "inplace",
        "label": "address",
        "numberOfBytes": "20"
      },
      "t_array(t_address)dyn_storage": {
        "base": "t_address",
        "encoding": "dynamic_array",
        "label": "address[]",
        "numberOfBytes": "32"
      },
      "t_mapping(t_address,t_uint256)": {
        "encoding": "mapping",
        "key": "t_address",
        "label": "mapping(address => uint256)",
        "numberOfBytes": "32",
        "value": "t_uint256"
      },
      "t_uint256": {
        "encoding": "inplace",
        "label": "uint256",
        "numberOfBytes": "32"
      }
    }
  }
}