{
  "address": "0x5FC8d32690cc91D4c39d9d3abcBD16989F875707",
  "abi": [
    {
      "inputs": [
        {
          "internalType": "uint256",
          "name": "num",
          "type": "uint256"
        },
        {
          "internalType": "uint256[]",
          "name": "nums",
          "type": "uint256[]"
        }
      ],
      "name": "search",
      "outputs": [
        {
          "internalType": "int256",
          "name": "",
          "type": "int256"
        }
      ],
      "stateMutability": "pure",
      "type": "function"
    }
  ],
  "transactionHash": "0xaa66cf62f13701229ec45d7660c51f0163f94fe60aafb683f730ef1773499730",
  "args": [],
  "numDeployments": 1,
  "solcInputHash": "880f970cb0f97c450265bc6d85b7edff",
  "bytecode": "0x6080604052348015600f57600080fd5b506104db8061001f6000396000f3fe608060405234801561001057600080fd5b506004361061002b5760003560e01c80632fcc7c9e14610030575b600080fd5b61004a600480360381019061004591906102ef565b610060565b6040516100579190610364565b60405180910390f35b6000806000905060006001845161007791906103ae565b90505b8082116101205760006002838361009191906103ae565b61009b9190610411565b836100a69190610442565b9050858582815181106100bc576100bb610476565b5b6020026020010151036100d457809350505050610146565b858582815181106100e8576100e7610476565b5b6020026020010151101561010a576001816101039190610442565b925061011a565b60018161011791906103ae565b91505b5061007a565b7fffffffffffffffffffffffffffffffffffffffffffffffffffffffffffffffff925050505b92915050565b6000604051905090565b600080fd5b600080fd5b6000819050919050565b61017381610160565b811461017e57600080fd5b50565b6000813590506101908161016a565b92915050565b600080fd5b6000601f19601f8301169050919050565b7f4e487b7100000000000000000000000000000000000000000000000000000000600052604160045260246000fd5b6101e48261019b565b810181811067ffffffffffffffff82111715610203576102026101ac565b5b80604052505050565b600061021661014c565b905061022282826101db565b919050565b600067ffffffffffffffff821115610242576102416101ac565b5b602082029050602081019050919050565b600080fd5b600061026b61026684610227565b61020c565b9050808382526020820190506020840283018581111561028e5761028d610253565b5b835b818110156102b757806102a38882610181565b845260208401935050602081019050610290565b5050509392505050565b600082601f8301126102d6576102d5610196565b5b81356102e6848260208601610258565b91505092915050565b6000806040838503121561030657610305610156565b5b600061031485828601610181565b925050602083013567ffffffffffffffff8111156103355761033461015b565b5b610341858286016102c1565b9150509250929050565b6000819050919050565b61035e8161034b565b82525050565b60006020820190506103796000830184610355565b92915050565b7f4e487b7100000000000000000000000000000000000000000000000000000000600052601160045260246000fd5b60006103b982610160565b91506103c483610160565b92508282039050818111156103dc576103db61037f565b5b92915050565b7f4e487b7100000000000000000000000000000000000000000000000000000000600052601260045260246000fd5b600061041c82610160565b915061042783610160565b925082610437576104366103e2565b5b828204905092915050565b600061044d82610160565b915061045883610160565b92508282019050808211156104705761046f61037f565b5b92915050565b7f4e487b7100000000000000000000000000000000000000000000000000000000600052603260045260246000fdfea26469706673582212206c1ab0e60e9e0f244bb3b8a491c373783966c6c26c5b6bf08d024ae7a311450064736f6c634300081e0033",
  "devdoc": {
    "kind": "dev",
    "methods": {},
    "version": 1
  },
  "userdoc": {
    "kind": "user",
    "methods": {},
    "version": 1
  },
  "storageLayout": {
    "storage": [],
    "types": null
  }
}