{
  "address": "0xDc64a140Aa3E981100a9becA4E685f962f0cF6C9",
  "abi": [
    {
      "inputs": [
        {
          "internalType": "uint256[]",
          "name": "arrayOne",
          "type": "uint256[]"
        },
        {
          "internalType": "uint256[]",
          "name": "arrayTwo",
          "type": "uint256[]"
        }
      ],
      "name": "merge",
      "outputs": [
        {
          "internalType": "uint256[]",
          "name": "",
          "type": "uint256[]"
        }
      ],
      "stateMutability": "pure",
      "type": "function"
    }
  ],
  "transactionHash": "0xf02a5e4f36831717c018cf399ab9ef2729bfdc1cffa8d4603f1bb24cef875cf7",
  "args": [],
  "numDeployments": 1,
  "solcInputHash": "880f970cb0f97c450265bc6d85b7edff",
  "bytecode": "0x6080604052348015600f57600080fd5b506106d18061001f6000396000f3fe608060405234801561001057600080fd5b506004361061002b5760003560e01c8063088b9bf614610030575b600080fd5b61004a60048036038101906100459190610435565b610060565b604051610057919061056b565b60405180910390f35b606060008251845161007291906105bc565b67ffffffffffffffff81111561008b5761008a6102bc565b5b6040519080825280602002602001820160405280156100b95781602001602082028036833780820191505090505b5090506000805b855181101561011e578581815181106100dc576100db6105f0565b5b60200260200101518383815181106100f7576100f66105f0565b5b602002602001018181525050818061010e9061061f565b92505080806001019150506100c0565b5060005b84518110156101805784818151811061013e5761013d6105f0565b5b6020026020010151838381518110610159576101586105f0565b5b60200260200101818152505081806101709061061f565b9250508080600101915050610122565b5060005b600183516101929190610667565b8110156102865760006001826101a891906105bc565b90505b8351811015610278578381815181106101c7576101c66105f0565b5b60200260200101518483815181106101e2576101e16105f0565b5b6020026020010151111561026b576000848381518110610205576102046105f0565b5b60200260200101519050848281518110610222576102216105f0565b5b602002602001015185848151811061023d5761023c6105f0565b5b6020026020010181815250508085838151811061025d5761025c6105f0565b5b602002602001018181525050505b80806001019150506101ab565b508080600101915050610184565b50819250505092915050565b6000604051905090565b600080fd5b600080fd5b600080fd5b6000601f19601f8301169050919050565b7f4e487b7100000000000000000000000000000000000000000000000000000000600052604160045260246000fd5b6102f4826102ab565b810181811067ffffffffffffffff82111715610313576103126102bc565b5b80604052505050565b6000610326610292565b905061033282826102eb565b919050565b600067ffffffffffffffff821115610352576103516102bc565b5b602082029050602081019050919050565b600080fd5b6000819050919050565b61037b81610368565b811461038657600080fd5b50565b60008135905061039881610372565b92915050565b60006103b16103ac84610337565b61031c565b905080838252602082019050602084028301858111156103d4576103d3610363565b5b835b818110156103fd57806103e98882610389565b8452602084019350506020810190506103d6565b5050509392505050565b600082601f83011261041c5761041b6102a6565b5b813561042c84826020860161039e565b91505092915050565b6000806040838503121561044c5761044b61029c565b5b600083013567ffffffffffffffff81111561046a576104696102a1565b5b61047685828601610407565b925050602083013567ffffffffffffffff811115610497576104966102a1565b5b6104a385828601610407565b9150509250929050565b600081519050919050565b600082825260208201905092915050565b6000819050602082019050919050565b6104e281610368565b82525050565b60006104f483836104d9565b60208301905092915050565b6000602082019050919050565b6000610518826104ad565b61052281856104b8565b935061052d836104c9565b8060005b8381101561055e57815161054588826104e8565b975061055083610500565b925050600181019050610531565b5085935050505092915050565b60006020820190508181036000830152610585818461050d565b905092915050565b7f4e487b7100000000000000000000000000000000000000000000000000000000600052601160045260246000fd5b60006105c782610368565b91506105d283610368565b92508282019050808211156105ea576105e961058d565b5b92915050565b7f4e487b7100000000000000000000000000000000000000000000000000000000600052603260045260246000fd5b600061062a82610368565b91507fffffffffffffffffffffffffffffffffffffffffffffffffffffffffffffffff820361065c5761065b61058d565b5b600182019050919050565b600061067282610368565b915061067d83610368565b92508282039050818111156106955761069461058d565b5b9291505056fea2646970667358221220dba41fbf53985d2a86eb08cdc38ed5f4185bc4efe5c317a90e681fec53f39f6764736f6c634300081e0033",
  "devdoc": {
    "kind": "dev",
    "methods": {},
    "version": 1
  },
  "userdoc": {
    "kind": "user",
    "methods": {},
    "version": 1
  },
  "storageLayout": {
    "storage": [],
    "types": null
  }
}