{
  "address": "0x959922bE3CAee4b8Cd9a407cc3ac1C251C2007B1",
  "abi": [
    {
      "inputs": [
        {
          "internalType": "uint256",
          "name": "",
          "type": "uint256"
        }
      ],
      "name": "auctions",
      "outputs": [
        {
          "internalType": "address",
          "name": "",
          "type": "address"
        }
      ],
      "stateMutability": "view",
      "type": "function"
    },
    {
      "inputs": [
        {
          "internalType": "uint256",
          "name": "_duration",
          "type": "uint256"
        },
        {
          "internalType": "uint256",
          "name": "_startPrice",
          "type": "uint256"
        },
        {
          "internalType": "address",
          "name": "_nftAddress",
          "type": "address"
        },
        {
          "internalType": "uint256",
          "name": "_nftId",
          "type": "uint256"
        }
      ],
      "name": "createAuction",
      "outputs": [
        {
          "internalType": "address",
          "name": "",
          "type": "address"
        }
      ],
      "stateMutability": "nonpayable",
      "type": "function"
    }
  ],
  "transactionHash": "0x952197b7f3e2c3ad34b580ecc797de60e4e4bcc636a0e35c420b2c0a3a9cc0ee",
  "args": [],
  "numDeployments": 1,
  "solcInputHash": "33838591f13eb993d339ea54acaa2225",
  "bytecode": "0x6080604052348015600f57600080fd5b5061259f8061001f6000396000f3fe608060405234801561001057600080fd5b50600436106100365760003560e01c8063571a26a01461003b578063b1cb48ef1461006b575b600080fd5b61005560048036038101906100509190610230565b61009b565b604051610062919061029e565b60405180910390f35b610085600480360381019061008091906102e5565b6100da565b604051610092919061029e565b60405180910390f35b600081815481106100ab57600080fd5b906000526020600020016000915054906101000a900473ffffffffffffffffffffffffffffffffffffffff1681565b6000806040516100e9906101e8565b604051809103906000f080158015610105573d6000803e3d6000fd5b5090508073ffffffffffffffffffffffffffffffffffffffff1663b1cb48ef878787876040518563ffffffff1660e01b8152600401610147949392919061035b565b600060405180830381600087803b15801561016157600080fd5b505af1158015610175573d6000803e3d6000fd5b505050506000819080600181540180825580915050600190039060005260206000200160009091909190916101000a81548173ffffffffffffffffffffffffffffffffffffffff021916908373ffffffffffffffffffffffffffffffffffffffff16021790555080915050949350505050565b6121c9806103a183390190565b600080fd5b6000819050919050565b61020d816101fa565b811461021857600080fd5b50565b60008135905061022a81610204565b92915050565b600060208284031215610246576102456101f5565b5b60006102548482850161021b565b91505092915050565b600073ffffffffffffffffffffffffffffffffffffffff82169050919050565b60006102888261025d565b9050919050565b6102988161027d565b82525050565b60006020820190506102b3600083018461028f565b92915050565b6102c28161027d565b81146102cd57600080fd5b50565b6000813590506102df816102b9565b92915050565b600080600080608085870312156102ff576102fe6101f5565b5b600061030d8782880161021b565b945050602061031e8782880161021b565b935050604061032f878288016102d0565b92505060606103408782880161021b565b91505092959194509250565b610355816101fa565b82525050565b6000608082019050610370600083018761034c565b61037d602083018661034c565b61038a604083018561028f565b610397606083018461034c565b9594505050505056fe60a06040523073ffffffffffffffffffffffffffffffffffffffff1660809073ffffffffffffffffffffffffffffffffffffffff16815250348015604257600080fd5b5060805161215d61006c60003960008181610ed001528181610f250152611168015261215d6000f3fe60806040526004361061009c5760003560e01c80639979ef45116100645780639979ef4514610181578063ad3cb1cc1461019d578063b1cb48ef146101c8578063b9a2de3a146101f1578063f851a4401461021a578063fc528482146102455761009c565b8063150b7a02146100a15780634f1ef286146100de57806352d1902d146100fa578063571a26a0146101255780638129fc1c1461016a575b600080fd5b3480156100ad57600080fd5b506100c860048036038101906100c3919061166e565b610270565b6040516100d59190611731565b60405180910390f35b6100f860048036038101906100f3919061188d565b610285565b005b34801561010657600080fd5b5061010f6102a4565b60405161011c9190611902565b60405180910390f35b34801561013157600080fd5b5061014c6004803603810190610147919061191d565b6102d7565b60405161016199989796959493929190611983565b60405180910390f35b34801561017657600080fd5b5061017f610392565b005b61019b6004803603810190610196919061191d565b610558565b005b3480156101a957600080fd5b506101b26107c6565b6040516101bf9190611a8f565b60405180910390f35b3480156101d457600080fd5b506101ef60048036038101906101ea9190611ab1565b6107ff565b005b3480156101fd57600080fd5b506102186004803603810190610213919061191d565b610b6f565b005b34801561022657600080fd5b5061022f610ea2565b60405161023c9190611b18565b60405180910390f35b34801561025157600080fd5b5061025a610ec8565b6040516102679190611b33565b60405180910390f35b600063150b7a0260e01b905095945050505050565b61028d610ece565b61029682610fb4565b6102a08282611047565b5050565b60006102ae611166565b7f360894a13ba1a3210667c828492db98dca3e2076cc3735a920a3ca505d382bbc60001b905090565b60006020528060005260406000206000915090508060000160009054906101000a900473ffffffffffffffffffffffffffffffffffffffff16908060010154908060020154908060030154908060040160009054906101000a900460ff16908060040160019054906101000a900473ffffffffffffffffffffffffffffffffffffffff16908060050154908060060160009054906101000a900473ffffffffffffffffffffffffffffffffffffffff16908060070154905089565b600061039c6111ed565b905060008160000160089054906101000a900460ff1615905060008260000160009054906101000a900467ffffffffffffffff1690506000808267ffffffffffffffff161480156103ea5750825b9050600060018367ffffffffffffffff1614801561041f575060003073ffffffffffffffffffffffffffffffffffffffff163b145b90508115801561042d575080155b15610464576040517ff92ee8a900000000000000000000000000000000000000000000000000000000815260040160405180910390fd5b60018560000160006101000a81548167ffffffffffffffff021916908367ffffffffffffffff16021790555083156104b45760018560000160086101000a81548160ff0219169083151502179055505b33600260006101000a81548173ffffffffffffffffffffffffffffffffffffffff021916908373ffffffffffffffffffffffffffffffffffffffff16021790555083156105515760008560000160086101000a81548160ff0219169083151502179055507fc7f505b2f371ae2175ee4913f4499e1f2633a7b5936321eed1cdaeb6115181d260016040516105489190611ba7565b60405180910390a15b5050505050565b60008060008381526020019081526020016000209050600015158160040160009054906101000a900460ff161515146105c6576040517f08c379a00000000000000000000000000000000000000000000000000000000081526004016105bd90611c0e565b60405180910390fd5b806002015481600101546105da9190611c5d565b42111561061c576040517f08c379a000000000000000000000000000000000000000000000000000000000815260040161061390611cdd565b60405180910390fd5b600034905081600301548111610667576040517f08c379a000000000000000000000000000000000000000000000000000000000815260040161065e90611d49565b60405180910390fd5b816005015481116106ad576040517f08c379a00000000000000000000000000000000000000000000000000000000081526004016106a490611db5565b60405180910390fd5b600073ffffffffffffffffffffffffffffffffffffffff168260040160019054906101000a900473ffffffffffffffffffffffffffffffffffffffff1673ffffffffffffffffffffffffffffffffffffffff1614610775578160040160019054906101000a900473ffffffffffffffffffffffffffffffffffffffff1673ffffffffffffffffffffffffffffffffffffffff166108fc83600501549081150290604051600060405180830381858888f19350505050158015610773573d6000803e3d6000fd5b505b338260040160016101000a81548173ffffffffffffffffffffffffffffffffffffffff021916908373ffffffffffffffffffffffffffffffffffffffff160217905550808260050181905550505050565b6040518060400160405280600581526020017f352e302e3000000000000000000000000000000000000000000000000000000081525081565b600260009054906101000a900473ffffffffffffffffffffffffffffffffffffffff1673ffffffffffffffffffffffffffffffffffffffff163373ffffffffffffffffffffffffffffffffffffffff161461088f576040517f08c379a000000000000000000000000000000000000000000000000000000000815260040161088690611e21565b60405180910390fd5b603c8410156108d3576040517f08c379a00000000000000000000000000000000000000000000000000000000081526004016108ca90611e8d565b60405180910390fd5b60008311610916576040517f08c379a000000000000000000000000000000000000000000000000000000000815260040161090d90611ef9565b60405180910390fd5b60008290508073ffffffffffffffffffffffffffffffffffffffff166342842e0e3330856040518463ffffffff1660e01b815260040161095893929190611f19565b600060405180830381600087803b15801561097257600080fd5b505af1158015610986573d6000803e3d6000fd5b505050506040518061012001604052803373ffffffffffffffffffffffffffffffffffffffff168152602001428152602001868152602001858152602001600015158152602001600073ffffffffffffffffffffffffffffffffffffffff168152602001600081526020018473ffffffffffffffffffffffffffffffffffffffff16815260200183815250600080600154815260200190815260200160002060008201518160000160006101000a81548173ffffffffffffffffffffffffffffffffffffffff021916908373ffffffffffffffffffffffffffffffffffffffff16021790555060208201518160010155604082015181600201556060820151816003015560808201518160040160006101000a81548160ff02191690831515021790555060a08201518160040160016101000a81548173ffffffffffffffffffffffffffffffffffffffff021916908373ffffffffffffffffffffffffffffffffffffffff16021790555060c0820151816005015560e08201518160060160006101000a81548173ffffffffffffffffffffffffffffffffffffffff021916908373ffffffffffffffffffffffffffffffffffffffff160217905550610100820151816007015590505060016000815480929190610b6390611f50565b91905055505050505050565b60008060008381526020019081526020016000209050600015158160040160009054906101000a900460ff16151514610bdd576040517f08c379a0000000000000000000000000000000000000000000000000000000008152600401610bd490611c0e565b60405180910390fd5b80600201548160010154610bf19190611c5d565b4211610c32576040517f08c379a0000000000000000000000000000000000000000000000000000000008152600401610c2990611fe4565b60405180910390fd5b600073ffffffffffffffffffffffffffffffffffffffff168160040160019054906101000a900473ffffffffffffffffffffffffffffffffffffffff1673ffffffffffffffffffffffffffffffffffffffff1603610d505760008160060160009054906101000a900473ffffffffffffffffffffffffffffffffffffffff1690508073ffffffffffffffffffffffffffffffffffffffff166342842e0e308460000160009054906101000a900473ffffffffffffffffffffffffffffffffffffffff1685600701546040518463ffffffff1660e01b8152600401610d1893929190611f19565b600060405180830381600087803b158015610d3257600080fd5b505af1158015610d46573d6000803e3d6000fd5b5050505050610e81565b60008160060160009054906101000a900473ffffffffffffffffffffffffffffffffffffffff1690508073ffffffffffffffffffffffffffffffffffffffff166342842e0e308460040160019054906101000a900473ffffffffffffffffffffffffffffffffffffffff1685600701546040518463ffffffff1660e01b8152600401610dde93929190611f19565b600060405180830381600087803b158015610df857600080fd5b505af1158015610e0c573d6000803e3d6000fd5b505050508160000160009054906101000a900473ffffffffffffffffffffffffffffffffffffffff1673ffffffffffffffffffffffffffffffffffffffff166108fc83600501549081150290604051600060405180830381858888f19350505050158015610e7e573d6000803e3d6000fd5b50505b60018160040160006101000a81548160ff0219169083151502179055505050565b600260009054906101000a900473ffffffffffffffffffffffffffffffffffffffff1681565b60015481565b7f000000000000000000000000000000000000000000000000000000000000000073ffffffffffffffffffffffffffffffffffffffff163073ffffffffffffffffffffffffffffffffffffffff161480610f7b57507f000000000000000000000000000000000000000000000000000000000000000073ffffffffffffffffffffffffffffffffffffffff16610f62611201565b73ffffffffffffffffffffffffffffffffffffffff1614155b15610fb2576040517fe07c8dba00000000000000000000000000000000000000000000000000000000815260040160405180910390fd5b565b600260009054906101000a900473ffffffffffffffffffffffffffffffffffffffff1673ffffffffffffffffffffffffffffffffffffffff163373ffffffffffffffffffffffffffffffffffffffff1614611044576040517f08c379a000000000000000000000000000000000000000000000000000000000815260040161103b90612050565b60405180910390fd5b50565b8173ffffffffffffffffffffffffffffffffffffffff166352d1902d6040518163ffffffff1660e01b8152600401602060405180830381865afa9250505080156110af57506040513d601f19601f820116820180604052508101906110ac919061209c565b60015b6110f057816040517f4c9c8ce30000000000000000000000000000000000000000000000000000000081526004016110e79190611b18565b60405180910390fd5b7f360894a13ba1a3210667c828492db98dca3e2076cc3735a920a3ca505d382bbc60001b811461115757806040517faa1d49a400000000000000000000000000000000000000000000000000000000815260040161114e9190611902565b60405180910390fd5b6111618383611258565b505050565b7f000000000000000000000000000000000000000000000000000000000000000073ffffffffffffffffffffffffffffffffffffffff163073ffffffffffffffffffffffffffffffffffffffff16146111eb576040517fe07c8dba00000000000000000000000000000000000000000000000000000000815260040160405180910390fd5b565b6000806111f86112cb565b90508091505090565b600061122f7f360894a13ba1a3210667c828492db98dca3e2076cc3735a920a3ca505d382bbc60001b6112f6565b60000160009054906101000a900473ffffffffffffffffffffffffffffffffffffffff16905090565b61126182611300565b8173ffffffffffffffffffffffffffffffffffffffff167fbc7cd75a20ee27fd9adebab32041f755214dbc6bffa90cc0225b39da2e5c2d3b60405160405180910390a26000815111156112be576112b882826113cd565b506112c7565b6112c6611451565b5b5050565b60007ff0c57e16840df040f15088dc2f81fe391c3923bec73e23a9662efc9c229c6a0060001b905090565b6000819050919050565b60008173ffffffffffffffffffffffffffffffffffffffff163b0361135c57806040517f4c9c8ce30000000000000000000000000000000000000000000000000000000081526004016113539190611b18565b60405180910390fd5b806113897f360894a13ba1a3210667c828492db98dca3e2076cc3735a920a3ca505d382bbc60001b6112f6565b60000160006101000a81548173ffffffffffffffffffffffffffffffffffffffff021916908373ffffffffffffffffffffffffffffffffffffffff16021790555050565b60606000808473ffffffffffffffffffffffffffffffffffffffff16846040516113f79190612110565b600060405180830381855af49150503d8060008114611432576040519150601f19603f3d011682016040523d82523d6000602084013e611437565b606091505b509150915061144785838361148e565b9250505092915050565b600034111561148c576040517fb398979f00000000000000000000000000000000000000000000000000000000815260040160405180910390fd5b565b6060826114a35761149e8261151d565b611515565b600082511480156114cb575060008473ffffffffffffffffffffffffffffffffffffffff163b145b1561150d57836040517f9996b3150000000000000000000000000000000000000000000000000000000081526004016115049190611b18565b60405180910390fd5b819050611516565b5b9392505050565b60008151111561152f57805160208201fd5b6040517fd6bda27500000000000000000000000000000000000000000000000000000000815260040160405180910390fd5b6000604051905090565b600080fd5b600080fd5b600073ffffffffffffffffffffffffffffffffffffffff82169050919050565b60006115a082611575565b9050919050565b6115b081611595565b81146115bb57600080fd5b50565b6000813590506115cd816115a7565b92915050565b6000819050919050565b6115e6816115d3565b81146115f157600080fd5b50565b600081359050611603816115dd565b92915050565b600080fd5b600080fd5b600080fd5b60008083601f84011261162e5761162d611609565b5b8235905067ffffffffffffffff81111561164b5761164a61160e565b5b60208301915083600182028301111561166757611666611613565b5b9250929050565b60008060008060006080868803121561168a5761168961156b565b5b6000611698888289016115be565b95505060206116a9888289016115be565b94505060406116ba888289016115f4565b935050606086013567ffffffffffffffff8111156116db576116da611570565b5b6116e788828901611618565b92509250509295509295909350565b60007fffffffff0000000000000000000000000000000000000000000000000000000082169050919050565b61172b816116f6565b82525050565b60006020820190506117466000830184611722565b92915050565b600080fd5b6000601f19601f8301169050919050565b7f4e487b7100000000000000000000000000000000000000000000000000000000600052604160045260246000fd5b61179a82611751565b810181811067ffffffffffffffff821117156117b9576117b8611762565b5b80604052505050565b60006117cc611561565b90506117d88282611791565b919050565b600067ffffffffffffffff8211156117f8576117f7611762565b5b61180182611751565b9050602081019050919050565b82818337600083830152505050565b600061183061182b846117dd565b6117c2565b90508281526020810184848401111561184c5761184b61174c565b5b61185784828561180e565b509392505050565b600082601f83011261187457611873611609565b5b813561188484826020860161181d565b91505092915050565b600080604083850312156118a4576118a361156b565b5b60006118b2858286016115be565b925050602083013567ffffffffffffffff8111156118d3576118d2611570565b5b6118df8582860161185f565b9150509250929050565b6000819050919050565b6118fc816118e9565b82525050565b600060208201905061191760008301846118f3565b92915050565b6000602082840312156119335761193261156b565b5b6000611941848285016115f4565b91505092915050565b61195381611595565b82525050565b611962816115d3565b82525050565b60008115159050919050565b61197d81611968565b82525050565b600061012082019050611999600083018c61194a565b6119a6602083018b611959565b6119b3604083018a611959565b6119c06060830189611959565b6119cd6080830188611974565b6119da60a083018761194a565b6119e760c0830186611959565b6119f460e083018561194a565b611a02610100830184611959565b9a9950505050505050505050565b600081519050919050565b600082825260208201905092915050565b60005b83811015611a4a578082015181840152602081019050611a2f565b60008484015250505050565b6000611a6182611a10565b611a6b8185611a1b565b9350611a7b818560208601611a2c565b611a8481611751565b840191505092915050565b60006020820190508181036000830152611aa98184611a56565b905092915050565b60008060008060808587031215611acb57611aca61156b565b5b6000611ad9878288016115f4565b9450506020611aea878288016115f4565b9350506040611afb878288016115be565b9250506060611b0c878288016115f4565b91505092959194509250565b6000602082019050611b2d600083018461194a565b92915050565b6000602082019050611b486000830184611959565b92915050565b6000819050919050565b600067ffffffffffffffff82169050919050565b6000819050919050565b6000611b91611b8c611b8784611b4e565b611b6c565b611b58565b9050919050565b611ba181611b76565b82525050565b6000602082019050611bbc6000830184611b98565b92915050565b7f61756374696f6e2068617320656e646564000000000000000000000000000000600082015250565b6000611bf8601183611a1b565b9150611c0382611bc2565b602082019050919050565b60006020820190508181036000830152611c2781611beb565b9050919050565b7f4e487b7100000000000000000000000000000000000000000000000000000000600052601160045260246000fd5b6000611c68826115d3565b9150611c73836115d3565b9250828201905080821115611c8b57611c8a611c2e565b5b92915050565b7f61756374696f6e2074696d6520697320656e6465640000000000000000000000600082015250565b6000611cc7601583611a1b565b9150611cd282611c91565b602082019050919050565b60006020820190508181036000830152611cf681611cba565b9050919050565b7f7072696365206d757374206265203e2073746172745072696365000000000000600082015250565b6000611d33601a83611a1b565b9150611d3e82611cfd565b602082019050919050565b60006020820190508181036000830152611d6281611d26565b9050919050565b7f7072696365206d757374206265203e2068696768657374426964000000000000600082015250565b6000611d9f601a83611a1b565b9150611daa82611d69565b602082019050919050565b60006020820190508181036000830152611dce81611d92565b9050919050565b7f6f6e6c792061646d696e2063616e206372656174652061756374696f6e730000600082015250565b6000611e0b601e83611a1b565b9150611e1682611dd5565b602082019050919050565b60006020820190508181036000830152611e3a81611dfe565b9050919050565b7f6475726174696f6e206d757374206265203e3d20363000000000000000000000600082015250565b6000611e77601683611a1b565b9150611e8282611e41565b602082019050919050565b60006020820190508181036000830152611ea681611e6a565b9050919050565b7f73746172745072696365206d757374206265203e203000000000000000000000600082015250565b6000611ee3601683611a1b565b9150611eee82611ead565b602082019050919050565b60006020820190508181036000830152611f1281611ed6565b9050919050565b6000606082019050611f2e600083018661194a565b611f3b602083018561194a565b611f486040830184611959565b949350505050565b6000611f5b826115d3565b91507fffffffffffffffffffffffffffffffffffffffffffffffffffffffffffffffff8203611f8d57611f8c611c2e565b5b600182019050919050565b7f61756374696f6e206973206e6f7420656e646564000000000000000000000000600082015250565b6000611fce601483611a1b565b9150611fd982611f98565b602082019050919050565b60006020820190508181036000830152611ffd81611fc1565b9050919050565b7f4f6e6c792061646d696e2063616e207570677261646500000000000000000000600082015250565b600061203a601683611a1b565b915061204582612004565b602082019050919050565b600060208201905081810360008301526120698161202d565b9050919050565b612079816118e9565b811461208457600080fd5b50565b60008151905061209681612070565b92915050565b6000602082840312156120b2576120b161156b565b5b60006120c084828501612087565b91505092915050565b600081519050919050565b600081905092915050565b60006120ea826120c9565b6120f481856120d4565b9350612104818560208601611a2c565b80840191505092915050565b600061211c82846120df565b91508190509291505056fea264697066735822122057fc4c588e0dff6ac5eb7d88f01bd9e7f0066d3b8672fb189cc15bc768b0e02d64736f6c634300081e0033a2646970667358221220996aa299041bdc4ad0ea6dc97e879e0663d2dfdfaca904795087515f023f1e4064736f6c634300081e0033",
  "devdoc": {
    "kind": "dev",
    "methods": {},
    "version": 1
  },
  "userdoc": {
    "kind": "user",
    "methods": {},
    "version": 1
  },
  "storageLayout": {
    "storage": [
      {
        "astId": 8170,
        "contract": "contracts/task3/NftAuctionFactory.sol:NftAuctionFactory",
        "label": "auctions",
        "offset": 0,
        "slot": "0",
        "type": "t_array(t_address)dyn_storage"
      }
    ],
    "types": {
      "t_address": {
        "encoding": "inplace",
        "label": "address",
        "numberOfBytes": "20"
      },
      "t_array(t_address)dyn_storage": {
        "base": "t_address",
        "encoding": "dynamic_array",
        "label": "address[]",
        "numberOfBytes": "32"
      }
    }
  }
}