{
  "address": "0xCf7Ed3AccA5a467e9e704C703E8D87F634fB0Fc9",
  "abi": [
    {
      "inputs": [
        {
          "internalType": "uint256",
          "name": "num",
          "type": "uint256"
        }
      ],
      "name": "toRoman",
      "outputs": [
        {
          "internalType": "string",
          "name": "",
          "type": "string"
        }
      ],
      "stateMutability": "view",
      "type": "function"
    }
  ],
  "transactionHash": "0x3603f06b99a7e203647b58f00289c791d785f32d11e10ce7db1080b091dea2dd",
  "args": [],
  "numDeployments": 1,
  "solcInputHash": "880f970cb0f97c450265bc6d85b7edff",
  "bytecode": "0x6080604052604051806101a001604052806103e861ffff16815260200161038461ffff1681526020016101f461ffff16815260200161019061ffff168152602001606461ffff168152602001605a61ffff168152602001603261ffff168152602001602861ffff168152602001600a61ffff168152602001600961ffff168152602001600561ffff168152602001600461ffff168152602001600161ffff16815250600090600d6100b19291906103de565b50604051806101a001604052806040518060400160405280600181526020017f4d0000000000000000000000000000000000000000000000000000000000000081525081526020016040518060400160405280600281526020017f434d00000000000000000000000000000000000000000000000000000000000081525081526020016040518060400160405280600181526020017f440000000000000000000000000000000000000000000000000000000000000081525081526020016040518060400160405280600281526020017f434400000000000000000000000000000000000000000000000000000000000081525081526020016040518060400160405280600181526020017f430000000000000000000000000000000000000000000000000000000000000081525081526020016040518060400160405280600281526020017f584300000000000000000000000000000000000000000000000000000000000081525081526020016040518060400160405280600181526020017f4c0000000000000000000000000000000000000000000000000000000000000081525081526020016040518060400160405280600281526020017f584c00000000000000000000000000000000000000000000000000000000000081525081526020016040518060400160405280600181526020017f580000000000000000000000000000000000000000000000000000000000000081525081526020016040518060400160405280600281526020017f495800000000000000000000000000000000000000000000000000000000000081525081526020016040518060400160405280600181526020017f560000000000000000000000000000000000000000000000000000000000000081525081526020016040518060400160405280600281526020017f495600000000000000000000000000000000000000000000000000000000000081525081526020016040518060400160405280600181526020017f4900000000000000000000000000000000000000000000000000000000000000815250815250600190600d6103cb929190610431565b503480156103d857600080fd5b5061082d565b828054828255906000526020600020908101928215610420579160200282015b8281111561041f578251829061ffff169055916020019190600101906103fe565b5b50905061042d919061048a565b5090565b828054828255906000526020600020908101928215610479579160200282015b82811115610478578251829081610468919061075b565b5091602001919060010190610451565b5b50905061048691906104a7565b5090565b5b808211156104a357600081600090555060010161048b565b5090565b5b808211156104c757600081816104be91906104cb565b506001016104a8565b5090565b5080546104d790610574565b6000825580601f106104e95750610508565b601f016020900490600052602060002090810190610507919061048a565b5b50565b600081519050919050565b7f4e487b7100000000000000000000000000000000000000000000000000000000600052604160045260246000fd5b7f4e487b7100000000000000000000000000000000000000000000000000000000600052602260045260246000fd5b6000600282049050600182168061058c57607f821691505b60208210810361059f5761059e610545565b5b50919050565b60008190508160005260206000209050919050565b60006020601f8301049050919050565b600082821b905092915050565b6000600883026106077fffffffffffffffffffffffffffffffffffffffffffffffffffffffffffffffff826105ca565b61061186836105ca565b95508019841693508086168417925050509392505050565b6000819050919050565b6000819050919050565b600061065861065361064e84610629565b610633565b610629565b9050919050565b6000819050919050565b6106728361063d565b61068661067e8261065f565b8484546105d7565b825550505050565b600090565b61069b61068e565b6106a6818484610669565b505050565b5b818110156106ca576106bf600082610693565b6001810190506106ac565b5050565b601f82111561070f576106e0816105a5565b6106e9846105ba565b810160208510156106f8578190505b61070c610704856105ba565b8301826106ab565b50505b505050565b600082821c905092915050565b600061073260001984600802610714565b1980831691505092915050565b600061074b8383610721565b9150826002028217905092915050565b6107648261050b565b67ffffffffffffffff81111561077d5761077c610516565b5b6107878254610574565b6107928282856106ce565b600060209050601f8311600181146107c557600084156107b3578287015190505b6107bd858261073f565b865550610825565b601f1984166107d3866105a5565b60005b828110156107fb578489015182556001820191506020850194506020810190506107d6565b868310156108185784890151610814601f891682610721565b8355505b6001600288020188555050505b505050505050565b6104548061083c6000396000f3fe608060405234801561001057600080fd5b506004361061002b5760003560e01c8063ab7baabe14610030575b600080fd5b61004a600480360381019061004591906101e2565b610060565b604051610057919061029f565b60405180910390f35b60608060005b60008054905081101561019d576000808281548110610088576100876102c1565b5b906000526020600020015490506000600183815481106100ab576100aa6102c1565b5b9060005260206000200180546100c09061031f565b80601f01602080910402602001604051908101604052809291908181526020018280546100ec9061031f565b80156101395780601f1061010e57610100808354040283529160200191610139565b820191906000526020600020905b81548152906001019060200180831161011c57829003601f168201915b505050505090505b81861061017f578186610154919061037f565b955083816040516020016101699291906103fa565b6040516020818303038152906040529350610141565b6000860361018e57505061019d565b50508080600101915050610066565b5080915050919050565b600080fd5b6000819050919050565b6101bf816101ac565b81146101ca57600080fd5b50565b6000813590506101dc816101b6565b92915050565b6000602082840312156101f8576101f76101a7565b5b6000610206848285016101cd565b91505092915050565b600081519050919050565b600082825260208201905092915050565b60005b8381101561024957808201518184015260208101905061022e565b60008484015250505050565b6000601f19601f8301169050919050565b60006102718261020f565b61027b818561021a565b935061028b81856020860161022b565b61029481610255565b840191505092915050565b600060208201905081810360008301526102b98184610266565b905092915050565b7f4e487b7100000000000000000000000000000000000000000000000000000000600052603260045260246000fd5b7f4e487b7100000000000000000000000000000000000000000000000000000000600052602260045260246000fd5b6000600282049050600182168061033757607f821691505b60208210810361034a576103496102f0565b5b50919050565b7f4e487b7100000000000000000000000000000000000000000000000000000000600052601160045260246000fd5b600061038a826101ac565b9150610395836101ac565b92508282039050818111156103ad576103ac610350565b5b92915050565b600081519050919050565b600081905092915050565b60006103d4826103b3565b6103de81856103be565b93506103ee81856020860161022b565b80840191505092915050565b600061040682856103c9565b915061041282846103c9565b9150819050939250505056fea2646970667358221220b8382aa87d93dd8814b162a07a4092d86fe68da2c607ff6095dc7be269c53de264736f6c634300081e0033",
  "devdoc": {
    "kind": "dev",
    "methods": {},
    "version": 1
  },
  "userdoc": {
    "kind": "user",
    "methods": {},
    "version": 1
  },
  "storageLayout": {
    "storage": [
      {
        "astId": 9498,
        "contract": "contracts/task1/NumberToRoman.sol:NumberToRoman",
        "label": "numbers",
        "offset": 0,
        "slot": "0",
        "type": "t_array(t_uint256)dyn_storage"
      },
      {
        "astId": 9515,
        "contract": "contracts/task1/NumberToRoman.sol:NumberToRoman",
        "label": "romans",
        "offset": 0,
        "slot": "1",
        "type": "t_array(t_string_storage)dyn_storage"
      }
    ],
    "types": {
      "t_array(t_string_storage)dyn_storage": {
        "base": "t_string_storage",
        "encoding": "dynamic_array",
        "label": "string[]",
        "numberOfBytes": "32"
      },
      "t_array(t_uint256)dyn_storage": {
        "base": "t_uint256",
        "encoding": "dynamic_array",
        "label": "uint256[]",
        "numberOfBytes": "32"
      },
      "t_string_storage": {
        "encoding": "bytes",
        "label": "string",
        "numberOfBytes": "32"
      },
      "t_uint256": {
        "encoding": "inplace",
        "label": "uint256",
        "numberOfBytes": "32"
      }
    }
  }
}