{
  "address": "0xe7f1725E7734CE288F8367e1Bb143E90bb3F0512",
  "abi": [
    {
      "inputs": [
        {
          "internalType": "string",
          "name": "str",
          "type": "string"
        }
      ],
      "name": "reverse",
      "outputs": [
        {
          "internalType": "string",
          "name": "",
          "type": "string"
        }
      ],
      "stateMutability": "pure",
      "type": "function"
    }
  ],
  "transactionHash": "0x2e8aceead36c9bf3a5a9f34430b6601394def33d6e9821a5931c3bb9612ff613",
  "args": [],
  "numDeployments": 1,
  "solcInputHash": "880f970cb0f97c450265bc6d85b7edff",
  "bytecode": "0x6080604052348015600f57600080fd5b5061046f8061001f6000396000f3fe608060405234801561001057600080fd5b506004361061002b5760003560e01c8063064767aa14610030575b600080fd5b61004a600480360381019061004591906102b3565b610060565b604051610057919061037b565b60405180910390f35b6060600082905060008151905060008167ffffffffffffffff81111561008957610088610188565b5b6040519080825280601f01601f1916602001820160405280156100bb5781602001600182028036833780820191505090505b50905060005b8281101561014d5783816001856100d891906103d6565b6100e291906103d6565b815181106100f3576100f261040a565b5b602001015160f81c60f81b8282815181106101115761011061040a565b5b60200101907effffffffffffffffffffffffffffffffffffffffffffffffffffffffffffff1916908160001a90535080806001019150506100c1565b50809350505050919050565b6000604051905090565b600080fd5b600080fd5b600080fd5b600080fd5b6000601f19601f8301169050919050565b7f4e487b7100000000000000000000000000000000000000000000000000000000600052604160045260246000fd5b6101c082610177565b810181811067ffffffffffffffff821117156101df576101de610188565b5b80604052505050565b60006101f2610159565b90506101fe82826101b7565b919050565b600067ffffffffffffffff82111561021e5761021d610188565b5b61022782610177565b9050602081019050919050565b82818337600083830152505050565b600061025661025184610203565b6101e8565b90508281526020810184848401111561027257610271610172565b5b61027d848285610234565b509392505050565b600082601f83011261029a5761029961016d565b5b81356102aa848260208601610243565b91505092915050565b6000602082840312156102c9576102c8610163565b5b600082013567ffffffffffffffff8111156102e7576102e6610168565b5b6102f384828501610285565b91505092915050565b600081519050919050565b600082825260208201905092915050565b60005b8381101561033657808201518184015260208101905061031b565b60008484015250505050565b600061034d826102fc565b6103578185610307565b9350610367818560208601610318565b61037081610177565b840191505092915050565b600060208201905081810360008301526103958184610342565b905092915050565b6000819050919050565b7f4e487b7100000000000000000000000000000000000000000000000000000000600052601160045260246000fd5b60006103e18261039d565b91506103ec8361039d565b9250828203905081811115610404576104036103a7565b5b92915050565b7f4e487b7100000000000000000000000000000000000000000000000000000000600052603260045260246000fdfea2646970667358221220a0b943c5d32b38aa6320ddf178ff87f200f341841b2925c9984aa0d92b8d303064736f6c634300081e0033",
  "devdoc": {
    "kind": "dev",
    "methods": {},
    "version": 1
  },
  "userdoc": {
    "kind": "user",
    "methods": {},
    "version": 1
  },
  "storageLayout": {
    "storage": [],
    "types": null
  }
}