{
  "address": "0x9fE46736679d2D9a65F0992F2272dE9f3c7fa6e0",
  "abi": [
    {
      "inputs": [],
      "stateMutability": "nonpayable",
      "type": "constructor"
    },
    {
      "inputs": [
        {
          "internalType": "string",
          "name": "romanStr",
          "type": "string"
        }
      ],
      "name": "toNumber",
      "outputs": [
        {
          "internalType": "uint256",
          "name": "",
          "type": "uint256"
        }
      ],
      "stateMutability": "view",
      "type": "function"
    }
  ],
  "transactionHash": "0x98df43b13e0aa2ac96380ae6ac84aa7e563c0887a9bfd3cba2c72baf28264763",
  "args": [],
  "numDeployments": 1,
  "solcInputHash": "880f970cb0f97c450265bc6d85b7edff",
  "bytecode": "0x608060405234801561001057600080fd5b5060016000807f49000000000000000000000000000000000000000000000000000000000000007effffffffffffffffffffffffffffffffffffffffffffffffffffffffffffff191681526020019081526020016000208190555060056000807f56000000000000000000000000000000000000000000000000000000000000007effffffffffffffffffffffffffffffffffffffffffffffffffffffffffffff1916815260200190815260200160002081905550600a6000807f58000000000000000000000000000000000000000000000000000000000000007effffffffffffffffffffffffffffffffffffffffffffffffffffffffffffff191681526020019081526020016000208190555060326000807f4c000000000000000000000000000000000000000000000000000000000000007effffffffffffffffffffffffffffffffffffffffffffffffffffffffffffff191681526020019081526020016000208190555060646000807f43000000000000000000000000000000000000000000000000000000000000007effffffffffffffffffffffffffffffffffffffffffffffffffffffffffffff19168152602001908152602001600020819055506101f46000807f44000000000000000000000000000000000000000000000000000000000000007effffffffffffffffffffffffffffffffffffffffffffffffffffffffffffff19168152602001908152602001600020819055506103e86000807f4d000000000000000000000000000000000000000000000000000000000000007effffffffffffffffffffffffffffffffffffffffffffffffffffffffffffff19168152602001908152602001600020819055506104a0806102986000396000f3fe608060405234801561001057600080fd5b506004361061002b5760003560e01c8063efecaf8114610030575b600080fd5b61004a60048036038101906100459190610327565b610060565b6040516100579190610389565b60405180910390f35b60008060009050600083905060008151905060005b818110156101c1576000806000858481518110610095576100946103a4565b5b602001015160f81c60f81b7effffffffffffffffffffffffffffffffffffffffffffffffffffffffffffff19167effffffffffffffffffffffffffffffffffffffffffffffffffffffffffffff191681526020019081526020016000205490506001836101029190610402565b8210801561018e57506000808560018561011c9190610436565b8151811061012d5761012c6103a4565b5b602001015160f81c60f81b7effffffffffffffffffffffffffffffffffffffffffffffffffffffffffffff19167effffffffffffffffffffffffffffffffffffffffffffffffffffffffffffff191681526020019081526020016000205481105b156101a657808561019f9190610402565b94506101b5565b80856101b29190610436565b94505b50806001019050610075565b50829350505050919050565b6000604051905090565b600080fd5b600080fd5b600080fd5b600080fd5b6000601f19601f8301169050919050565b7f4e487b7100000000000000000000000000000000000000000000000000000000600052604160045260246000fd5b610234826101eb565b810181811067ffffffffffffffff82111715610253576102526101fc565b5b80604052505050565b60006102666101cd565b9050610272828261022b565b919050565b600067ffffffffffffffff821115610292576102916101fc565b5b61029b826101eb565b9050602081019050919050565b82818337600083830152505050565b60006102ca6102c584610277565b61025c565b9050828152602081018484840111156102e6576102e56101e6565b5b6102f18482856102a8565b509392505050565b600082601f83011261030e5761030d6101e1565b5b813561031e8482602086016102b7565b91505092915050565b60006020828403121561033d5761033c6101d7565b5b600082013567ffffffffffffffff81111561035b5761035a6101dc565b5b610367848285016102f9565b91505092915050565b6000819050919050565b61038381610370565b82525050565b600060208201905061039e600083018461037a565b92915050565b7f4e487b7100000000000000000000000000000000000000000000000000000000600052603260045260246000fd5b7f4e487b7100000000000000000000000000000000000000000000000000000000600052601160045260246000fd5b600061040d82610370565b915061041883610370565b92508282039050818111156104305761042f6103d3565b5b92915050565b600061044182610370565b915061044c83610370565b9250828201905080821115610464576104636103d3565b5b9291505056fea2646970667358221220a2fbca2503dcad1bedb305f3cdd984e9cac43058ad7ad0e1ec5c5562dbc8390564736f6c634300081e0033",
  "devdoc": {
    "kind": "dev",
    "methods": {},
    "version": 1
  },
  "userdoc": {
    "kind": "user",
    "methods": {},
    "version": 1
  },
  "storageLayout": {
    "storage": [
      {
        "astId": 9649,
        "contract": "contracts/task1/RomanToNumber.sol:RomanToNumber",
        "label": "romanNumberMap",
        "offset": 0,
        "slot": "0",
        "type": "t_mapping(t_bytes1,t_uint256)"
      }
    ],
    "types": {
      "t_bytes1": {
        "encoding": "inplace",
        "label": "bytes1",
        "numberOfBytes": "1"
      },
      "t_mapping(t_bytes1,t_uint256)": {
        "encoding": "mapping",
        "key": "t_bytes1",
        "label": "mapping(bytes1 => uint256)",
        "numberOfBytes": "32",
        "value": "t_uint256"
      },
      "t_uint256": {
        "encoding": "inplace",
        "label": "uint256",
        "numberOfBytes": "32"
      }
    }
  }
}