{
  "address": "0x0B9cD742aDE8683DE025A6a1D9826e567e99aFa5",
  "abi": [
    {
      "inputs": [
        {
          "internalType": "uint256",
          "name": "_lockTime",
          "type": "uint256"
        },
        {
          "internalType": "address",
          "name": "dataFeedAddr",
          "type": "address"
        }
      ],
      "stateMutability": "nonpayable",
      "type": "constructor"
    },
    {
      "inputs": [],
      "name": "dataFeed",
      "outputs": [
        {
          "internalType": "contract AggregatorV3Interface",
          "name": "",
          "type": "address"
        }
      ],
      "stateMutability": "view",
      "type": "function"
    },
    {
      "inputs": [],
      "name": "fund",
      "outputs": [],
      "stateMutability": "payable",
      "type": "function"
    },
    {
      "inputs": [
        {
          "internalType": "address",
          "name": "",
          "type": "address"
        }
      ],
      "name": "funderMap",
      "outputs": [
        {
          "internalType": "uint256",
          "name": "",
          "type": "uint256"
        }
      ],
      "stateMutability": "view",
      "type": "function"
    },
    {
      "inputs": [],
      "name": "getFund",
      "outputs": [],
      "stateMutability": "nonpayable",
      "type": "function"
    },
    {
      "inputs": [],
      "name": "owner",
      "outputs": [
        {
          "internalType": "address",
          "name": "",
          "type": "address"
        }
      ],
      "stateMutability": "view",
      "type": "function"
    },
    {
      "inputs": [],
      "name": "refund",
      "outputs": [],
      "stateMutability": "nonpayable",
      "type": "function"
    },
    {
      "inputs": [
        {
          "internalType": "address",
          "name": "newOwner",
          "type": "address"
        }
      ],
      "name": "transferOwner",
      "outputs": [],
      "stateMutability": "nonpayable",
      "type": "function"
    }
  ],
  "transactionHash": "0x53354db0af62e208a1631504752dfdce5092b19781a901fca2b8dfee52c4dd7e",
  "args": [
    300,
    "0x694AA1769357215DE4FAC081bf1f309aDC325306"
  ],
  "numDeployments": 1,
  "solcInputHash": "7b8c555b01471699b2f9527f2e72f4b9",
  "bytecode": "0x6080604052678ac7230489e8000060045534801561001c57600080fd5b5060405161119a38038061119a833981810160405281019061003e919061016d565b806000806101000a81548173ffffffffffffffffffffffffffffffffffffffff021916908373ffffffffffffffffffffffffffffffffffffffff160217905550426001819055508160028190555033600560006101000a81548173ffffffffffffffffffffffffffffffffffffffff021916908373ffffffffffffffffffffffffffffffffffffffff16021790555050506101ad565b600080fd5b6000819050919050565b6100ec816100d9565b81146100f757600080fd5b50565b600081519050610109816100e3565b92915050565b600073ffffffffffffffffffffffffffffffffffffffff82169050919050565b600061013a8261010f565b9050919050565b61014a8161012f565b811461015557600080fd5b50565b60008151905061016781610141565b92915050565b60008060408385031215610184576101836100d4565b5b6000610192858286016100fa565b92505060206101a385828601610158565b9150509250929050565b610fde806101bc6000396000f3fe6080604052600436106100705760003560e01c80638edd6eb61161004e5780638edd6eb6146100e05780639e42ff90146100f7578063b60d428814610122578063f9de3ac21461012c57610070565b80634fb2e45d14610075578063590e1ae31461009e5780638da5cb5b146100b5575b600080fd5b34801561008157600080fd5b5061009c6004803603810190610097919061090e565b610169565b005b3480156100aa57600080fd5b506100b361023d565b005b3480156100c157600080fd5b506100ca61049e565b6040516100d7919061094a565b60405180910390f35b3480156100ec57600080fd5b506100f56104c4565b005b34801561010357600080fd5b5061010c6106a9565b60405161011991906109c4565b60405180910390f35b61012a6106cd565b005b34801561013857600080fd5b50610153600480360381019061014e919061090e565b6107c4565b60405161016091906109f8565b60405180910390f35b600560009054906101000a900473ffffffffffffffffffffffffffffffffffffffff1673ffffffffffffffffffffffffffffffffffffffff163373ffffffffffffffffffffffffffffffffffffffff16146101f9576040517f08c379a00000000000000000000000000000000000000000000000000000000081526004016101f090610a96565b60405180910390fd5b80600560006101000a81548173ffffffffffffffffffffffffffffffffffffffff021916908373ffffffffffffffffffffffffffffffffffffffff16021790555050565b60025460015461024d9190610ae5565b42101561028f576040517f08c379a000000000000000000000000000000000000000000000000000000000815260040161028690610b65565b60405180910390fd5b68056bc75e2d631000006102a2476107dc565b11156102e3576040517f08c379a00000000000000000000000000000000000000000000000000000000081526004016102da90610bd1565b60405180910390fd5b6000600360003373ffffffffffffffffffffffffffffffffffffffff1673ffffffffffffffffffffffffffffffffffffffff1681526020019081526020016000205490506000810361036a576040517f08c379a000000000000000000000000000000000000000000000000000000000815260040161036190610bd1565b60405180910390fd5b60003373ffffffffffffffffffffffffffffffffffffffff16600360003373ffffffffffffffffffffffffffffffffffffffff1673ffffffffffffffffffffffffffffffffffffffff168152602001908152602001600020546040516103cf90610c22565b60006040518083038185875af1925050503d806000811461040c576040519150601f19603f3d011682016040523d82523d6000602084013e610411565b606091505b5050905080610455576040517f08c379a000000000000000000000000000000000000000000000000000000000815260040161044c90610c83565b60405180910390fd5b6000600360003373ffffffffffffffffffffffffffffffffffffffff1673ffffffffffffffffffffffffffffffffffffffff168152602001908152602001600020819055505050565b600560009054906101000a900473ffffffffffffffffffffffffffffffffffffffff1681565b6002546001546104d49190610ae5565b421015610516576040517f08c379a000000000000000000000000000000000000000000000000000000000815260040161050d90610b65565b60405180910390fd5b600560009054906101000a900473ffffffffffffffffffffffffffffffffffffffff1673ffffffffffffffffffffffffffffffffffffffff163373ffffffffffffffffffffffffffffffffffffffff16146105a6576040517f08c379a000000000000000000000000000000000000000000000000000000000815260040161059d90610a96565b60405180910390fd5b68056bc75e2d631000006105b9476107dc565b10156105fa576040517f08c379a00000000000000000000000000000000000000000000000000000000081526004016105f190610cef565b60405180910390fd5b60003373ffffffffffffffffffffffffffffffffffffffff164760405161062090610c22565b60006040518083038185875af1925050503d806000811461065d576040519150601f19603f3d011682016040523d82523d6000602084013e610662565b606091505b50509050806106a6576040517f08c379a000000000000000000000000000000000000000000000000000000000815260040161069d90610c83565b60405180910390fd5b50565b60008054906101000a900473ffffffffffffffffffffffffffffffffffffffff1681565b6004546106d9346107dc565b101561071a576040517f08c379a000000000000000000000000000000000000000000000000000000000815260040161071190610d5b565b60405180910390fd5b60025460015461072a9190610ae5565b42111561076c576040517f08c379a000000000000000000000000000000000000000000000000000000000815260040161076390610dc7565b60405180910390fd5b34600360003373ffffffffffffffffffffffffffffffffffffffff1673ffffffffffffffffffffffffffffffffffffffff16815260200190815260200160002060008282546107bb9190610ae5565b92505081905550565b60036020528060005260406000206000915090505481565b6000806107e761080c565b90506305f5e10081846107fa9190610de7565b6108049190610e58565b915050919050565b60008060008054906101000a900473ffffffffffffffffffffffffffffffffffffffff1673ffffffffffffffffffffffffffffffffffffffff1663feaf968c6040518163ffffffff1660e01b815260040160a060405180830381865afa15801561087a573d6000803e3d6000fd5b505050506040513d601f19601f8201168201806040525081019061089e9190610f2d565b5050509150508091505090565b600080fd5b600073ffffffffffffffffffffffffffffffffffffffff82169050919050565b60006108db826108b0565b9050919050565b6108eb816108d0565b81146108f657600080fd5b50565b600081359050610908816108e2565b92915050565b600060208284031215610924576109236108ab565b5b6000610932848285016108f9565b91505092915050565b610944816108d0565b82525050565b600060208201905061095f600083018461093b565b92915050565b6000819050919050565b600061098a610985610980846108b0565b610965565b6108b0565b9050919050565b600061099c8261096f565b9050919050565b60006109ae82610991565b9050919050565b6109be816109a3565b82525050565b60006020820190506109d960008301846109b5565b92915050565b6000819050919050565b6109f2816109df565b82525050565b6000602082019050610a0d60008301846109e9565b92915050565b600082825260208201905092915050565b7f746869732066756e6374696f6e2063616e206f6e6c792062652063616c6c656460008201527f206279206f776e65720000000000000000000000000000000000000000000000602082015250565b6000610a80602983610a13565b9150610a8b82610a24565b604082019050919050565b60006020820190508181036000830152610aaf81610a73565b9050919050565b7f4e487b7100000000000000000000000000000000000000000000000000000000600052601160045260246000fd5b6000610af0826109df565b9150610afb836109df565b9250828201905080821115610b1357610b12610ab6565b5b92915050565b7f77696e646f77206973206e6f7420636c6f736564000000000000000000000000600082015250565b6000610b4f601483610a13565b9150610b5a82610b19565b602082019050919050565b60006020820190508181036000830152610b7e81610b42565b9050919050565b7f5461726765742069732072656163686564000000000000000000000000000000600082015250565b6000610bbb601183610a13565b9150610bc682610b85565b602082019050919050565b60006020820190508181036000830152610bea81610bae565b9050919050565b600081905092915050565b50565b6000610c0c600083610bf1565b9150610c1782610bfc565b600082019050919050565b6000610c2d82610bff565b9150819050919050565b7f7472616e73666572206661696c65640000000000000000000000000000000000600082015250565b6000610c6d600f83610a13565b9150610c7882610c37565b602082019050919050565b60006020820190508181036000830152610c9c81610c60565b9050919050565b7f546172676574206973206e6f7420726561636865640000000000000000000000600082015250565b6000610cd9601583610a13565b9150610ce482610ca3565b602082019050919050565b60006020820190508181036000830152610d0881610ccc565b9050919050565b7f66756e64206d6f72652045544800000000000000000000000000000000000000600082015250565b6000610d45600d83610a13565b9150610d5082610d0f565b602082019050919050565b60006020820190508181036000830152610d7481610d38565b9050919050565b7f77696e646f7720697320636c6f73656400000000000000000000000000000000600082015250565b6000610db1601083610a13565b9150610dbc82610d7b565b602082019050919050565b60006020820190508181036000830152610de081610da4565b9050919050565b6000610df2826109df565b9150610dfd836109df565b9250828202610e0b816109df565b91508282048414831517610e2257610e21610ab6565b5b5092915050565b7f4e487b7100000000000000000000000000000000000000000000000000000000600052601260045260246000fd5b6000610e63826109df565b9150610e6e836109df565b925082610e7e57610e7d610e29565b5b828204905092915050565b600069ffffffffffffffffffff82169050919050565b610ea881610e89565b8114610eb357600080fd5b50565b600081519050610ec581610e9f565b92915050565b6000819050919050565b610ede81610ecb565b8114610ee957600080fd5b50565b600081519050610efb81610ed5565b92915050565b610f0a816109df565b8114610f1557600080fd5b50565b600081519050610f2781610f01565b92915050565b600080600080600060a08688031215610f4957610f486108ab565b5b6000610f5788828901610eb6565b9550506020610f6888828901610eec565b9450506040610f7988828901610f18565b9350506060610f8a88828901610f18565b9250506080610f9b88828901610eb6565b915050929550929590935056fea264697066735822122005da645c9eb9c671b9cbf5809ad9da3439af2d94c67aa03c055b50598fefaa4864736f6c634300081e0033",
  "devdoc": {
    "kind": "dev",
    "methods": {},
    "version": 1
  },
  "userdoc": {
    "kind": "user",
    "methods": {},
    "version": 1
  },
  "storageLayout": {
    "storage": [
      {
        "astId": 52,
        "contract": "contracts/FundMe.sol:FundMe",
        "label": "dataFeed",
        "offset": 0,
        "slot": "0",
        "type": "t_contract(AggregatorV3Interface)45"
      },
      {
        "astId": 54,
        "contract": "contracts/FundMe.sol:FundMe",
        "label": "deploymentTimestamp",
        "offset": 0,
        "slot": "1",
        "type": "t_uint256"
      },
      {
        "astId": 56,
        "contract": "contracts/FundMe.sol:FundMe",
        "label": "lockTime",
        "offset": 0,
        "slot": "2",
        "type": "t_uint256"
      },
      {
        "astId": 60,
        "contract": "contracts/FundMe.sol:FundMe",
        "label": "funderMap",
        "offset": 0,
        "slot": "3",
        "type": "t_mapping(t_address,t_uint256)"
      },
      {
        "astId": 67,
        "contract": "contracts/FundMe.sol:FundMe",
        "label": "MIN_VALUE",
        "offset": 0,
        "slot": "4",
        "type": "t_uint256"
      },
      {
        "astId": 76,
        "contract": "contracts/FundMe.sol:FundMe",
        "label": "owner",
        "offset": 0,
        "slot": "5",
        "type": "t_address"
      }
    ],
    "types": {
      "t_address": {
        "encoding": "inplace",
        "label": "address",
        "numberOfBytes": "20"
      },
      "t_contract(AggregatorV3Interface)45": {
        "encoding": "inplace",
        "label": "contract AggregatorV3Interface",
        "numberOfBytes": "20"
      },
      "t_mapping(t_address,t_uint256)": {
        "encoding": "mapping",
        "key": "t_address",
        "label": "mapping(address => uint256)",
        "numberOfBytes": "32",
        "value": "t_uint256"
      },
      "t_uint256": {
        "encoding": "inplace",
        "label": "uint256",
        "numberOfBytes": "32"
      }
    }
  }
}